S0100000534550345F494F542E73726563AD
S1130000E5C0000004C1000002C1000000C10000FE
S1130010FEC00000FCC00000FAC00000F8C00000F0
S1130020F6C00000F4C00000F2C00000F0C0000000
S1130030DCC30000ECC00000EAC00000E8C000001F
S1130040E6C00000E4C00000E2C00000E0C0000020
S1130050DEC00000DCC00000DAC00000D8C0000030
S1130060D6C000000C94F51E0C94471FD0C00000AD
S1130070CEC00000CCC00000CAC00000C8C0000050
S1130080C6C00000C4C00000C2C00000C0C0000060
S11300900C948B1F0C94DD1FBAC000000C944823F1
S11300A0B6C00000B4C00000B2C00000B0C0000080
S11300B0AEC00000ACC00000AAC00000A8C0000090
S11300C0A6C00000A4C00000A2C000000C9421201F
S11300D00C9473209CC000000C94B7200C9409214C
S11300E096C00000F916F916F916301738174D178F
S11300F0F916F916301738176A23DA23DA23DA23C4
S1130100DA23DA23DA23DA236A23DA23DA23DA2373
S1130110DA23DA23DA23DA236C23DA23DA23DA2361
S1130120DA23DA23DA23DA23DA23DA23DA23DA23E3
S1130130DA23DA23DA23DA236C23DA23DA23DA2341
S1130140DA23DA23DA23DA23DA23DA23DA23DA23C3
S1130150DA23DA23DA23DA23D623DA23DA23DA23B7
S1130160DA23DA23DA23DA23A123DA23DA23DA23DC
S1130170DA23DA23DA23DA23DA23DA23DA23DA2393
S1130180DA23DA23DA23DA239523DA23DA23DA23C8
S1130190DA23DA23DA23DA23B9230E94490B809184
S11301A0AB10823008F05BD20E947617F6CFCF9363
S11301B0DF931F92CDB7DEB7CE0101960E9476146D
S11301C049810E946B160E94C216F6CF11241FBEED
S11301D0CFEFD1E2DEBFCDBF00E00CBF16E0A0E060
S11301E0B2E0EEE6F5E500E00BBF02C007900D9229
S11301F0A638B107D9F722E1A6E8B6E001C01D92FE
S1130200AF37B207E1F70E9441190C94B52AF8CE32
S1130210E2E9F6E0A6E9B6E0B183A0831382128294
S1130220E6E5F0E1F0939106E093900613821282E2
S11302301182108280EC99E013969C938E9312970E
S1130240ED93FC9390938D0680938C0690938F0688
S113025080938E0680E090E89093870680938606CC
S11302600895CF93DF93EC01A2E9B6E001C0DF016A
S1130270ED91FC911197EC17FD07C8F312968D913F
S11302809C9113979D01280F391FC217D30749F476
S11302902A813B81820F931F13969C938E9312970E
S11302A0ED018A819B819E01280F391FE217F30714
S11302B0C1F42091900630919106E217F30771F092
S11302C022813381820F931F9B838A83ED91FC915A
S11302D01197808191819983888305C0398328830C
S11302E002C0F983E883CA17DB0711F0CD93DC93CE
S11302F0DF91CF910895EF92FF920F931F93CF93C5
S1130300DF938C010E94940C809190069091910649
S1130310892B09F47DDF80918606909187068023DE
S11303209123892B09F076C00115110549F0C80104
S113033004960817190718F000E010E001C08C01BA
S11303400115110509F469C080918E0690918F06FC
S11303508017910708F464C0C0919206D091930667
S1130360E2E9F6E002C0FE01EC018A819B8180177C
S1130370910720F4888199810097A9F780919006CC
S113038090919106C817D90709F44DC0E080F18017
S113039084E0E80EF11C88819981918380832A810D
S11303A03B81201B310B2930310548F0CE01800FF1
S11303B0911FFC01338322831B830A8352DF2A812A
S11303C03B8180918E0690918F06821B930B9093B4
S11303D08F0680938E0640918C0650918D0684176B
S11303E0950720F490938D0680938C068091860661
S11303F090918706282B392B3B832A8319821882F4
S113040080918A0690918B06019690938B06809337
S11304108A060BC0E12CF12C08C0E12CF12C05C09C
S1130420E12CF12C02C0E12CF12C0E94D40DE1143A
S1130430F10411F40E948217C701DF91CF911F913B
S11304400F91FF90EF9008950F931F93CF93DF9335
S1130450009791F1EC0124974A815B8120918606F3
S113046030918706BA0162237323672B29F16881CF
S11304707981672B09F520953095242335233B8317
S11304802A830E94940C8A819B8120918E0630914C
S11304908F06820F931F90938F0680938E06CE0152
S11304A0E0DE8091880690918906019690938906F2
S11304B0809388060E94D40DDF91CF911F910F91F4
S11304C00895FC010396928381834FEF5FEFBA0195
S11304D04383548365837683908787839287818758
S11304E010820895FC011386128608950F931F93BA
S11304F0CF93DF93EB01088119812A813B810F3F60
S11305004FEF14072407340721F4FC01A185B285B9
S113051011C0DC01139601C0DF011496ED91FC912A
S1130520159740815181628173810417150726074D
S1130530370790F71496ED91FC911597FD83EC83A2
S1130540D783C683BF83AE831596DC93CE9314976B
S11305509B878A87FC0120812F5F2083DF91CF91C5
S11305601F910F910895CF93DF93FC01A285B3856A
S1130570C481D581868197819F838E83C681D781EB
S1130580848195819D838C8311968D919C91129782
S1130590E817F90731F48681978112969C938E931C
S11305A01197138612868C9181508C938C91DF91D4
S11305B0CF910895A89590EC88E10FB6F894A8958A
S11305C0809360000FBE909360000895FC016083E7
S11305D0319770833197108231971082319720E8D8
S11305E02083319710823197108231971082779748
S11305F040833197508386970895DCDFA0911911C9
S1130600B0911A11CD91CDBFDD91DEBFFF91EF9175
S1130610DF91CF91BF91AF919F918F917F916F9116
S11306205F914F913F912F911F910F91FF90EF9008
S1130630DF90CF90BF90AF909F908F907F906F90FE
S11306405F904F903F902F901F900F900CBE0F9093
S11306500BBE0F900FBE0F90089581E008950F9286
S11306600FB6F8940F920BB60F920CB60F921F921E
S113067011242F923F924F925F926F927F928F92AA
S11306809F92AF92BF92CF92DF92EF92FF920F931D
S11306901F932F933F934F935F936F937F938F9306
S11306A09F93AF93BF93CF93DF93EF93FF93A09167
S11306B01911B0911A110DB60D920EB60D920E9439
S11306C0300FA0911911B0911A11CD91CDBFDD91C8
S11306D0DEBFFF91EF91DF91CF91BF91AF919F91D9
S11306E08F917F916F915F914F913F912F911F91C6
S11306F00F91FF90EF90DF90CF90BF90AF909F90BD
S11307008F907F906F905F904F903F902F901F90AD
S11307100F900CBE0F900BBE0F900FBE0F9008955C
S11307200F920FB6F8940F920BB60F920CB60F926D
S11307301F9211242F923F924F925F926F927F9259
S11307408F929F92AF92BF92CF92DF92EF92FF92DD
S11307500F931F932F933F934F935F936F937F93C5
S11307608F939F93AF93BF93CF93DF93EF93FF93B5
S1130770A0911911B0911A110DB60D920EB60D92E9
S113078013BE0E94A80C81110E94300FA091191170
S1130790B0911A11CD91CDBFDD91DEBFFF91EF91E4
S11307A0DF91CF91BF91AF919F918F917F916F9185
S11307B05F914F913F912F911F910F91FF90EF9077
S11307C0DF90CF90BF90AF909F908F907F906F906D
S11307D05F904F903F902F901F900F900CBE0F9002
S11307E00BBE0F900FBE0F9008959ADF18950FB6A9
S11307F0F8940F92FC01868D811102C081E001C042
S113080080E00F900FBE08950FB6F8940F92FC018C
S1130810268D878D281302C081E001C080E00F90EF
S11308200FBE08950F931F93CF93DF93EC01042F12
S11308301E8D48A141110CC088819981892B09F032
S113084042C08C819D810E9441111D821C8242C044
S1130850011117C050E08A819B810E94382728A18A
S11308608A819B81820F911D9B838A832C813D8188
S11308708217930750F1888199819B838A8380E052
S113088029C050E08E819F810E94382788A190E082
S11308909195819591092E813F81280F391F3F83BE
S11308A02E83488159812417350730F42C813D81EA
S11308B0820F931F9F838E83023049F4112349F0E2
S11308C0115080E007C080E005C080E003C080E0F4
S11308D001C080E01F5F1E8FDF91CF911F910F91A8
S11308E00895FC0140A14423A9F050E026813781FA
S11308F0240F351F37832683848195812817390770
S113090020F08081918197838683CB0166817781F2
S11309100C94382708951F93CF93DF93EC010FB6FF
S1130920F8940F921AA10BC08B89882351F0CE0141
S113093043960E94EE0F81110E942A111150111644
S11309409CF38FEF8AA30F900FBE0FB6F8940F920B
S113095019A10BC08885882351F0CE0108960E9406
S1130960EE0F81110E942A11115011169CF38FEF82
S113097089A30F900FBEDF91CF911F910895CF935C
S1130980DF93EC010FB6F8940F92E881F9818F8D13
S113099028A190E030E0829FA001839F500D929F98
S11309A0500D11244E0F5F1F5D834C831E8EFB83FD
S11309B0EA830197289FA001299F500D389F500D6D
S11309C01124CF01840F951F9F838E838FEF89A3FA
S11309D08AA361110BC08885882371F0CE01089623
S11309E00E94EE0F882341F03ADE06C0CE0108963D
S11309F068DDCE01439665DD0F900FBE81E0DF9187
S1130A00CF9108950F931F93F801611103C01183CF
S1130A10008302C051834083878F60A361E0CF01CC
S1130A20AEDF1F910F910895DF92EF92FF920F9323
S1130A301F93CF93DF93F82EE62ED42E869FC0010A
S1130A401124839658DCEC01009741F08C012D2D84
S1130A50AC014D5D5F4F6E2D8F2DD4DFCE01DF9144
S1130A60CF911F910F91FF90EF90DF900895CF9257
S1130A70DF92EF92FF920F931F93CF93DF93CDB743
S1130A80DEB729970FB6F894DEBF0FBECDBF7C0149
S1130A906B012E833F834887598710E00FB6F89483
S1130AA00F92F701968D878D981710F00230B1F4EC
S1130AB0402FB601C701B6DEF7019389992341F0AF
S1130AC0C70143960E94EE0F882321F0C8DD02C0BF
S1130AD08111C5DD0F900FBE81E04CC08E819F81D6
S1130AE0A885B985892B8A2B8B2B21F40F900FBEF7
S1130AF080E040C0111105C0CE0101960E94B310E0
S1130B0011E00F900FBE10D70FB6F8940F92F701B3
S1130B1081A18F3F09F411A2F70182A18F3F09F44B
S1130B2012A20F900FBEBE016A5F7F4FCE010196E5
S1130B300E94C410811119C0C70166DE882381F0A8
S1130B404E815F8168857985C70108960E94950F5B
S1130B50C701E1DE0E94D40D8111A0CF80DD9ECFBC
S1130B60C701D9DE0E94D40D99CFC701D4DE0E94FB
S1130B70D40D80E029960FB6F894DEBF0FBECDBF2A
S1130B80DF91CF911F910F91FF90EF90DF90CF9065
S1130B9008950F93009769F0FC0115821482118265
S1130BA01082168200E020E030E0A90160E070E0ED
S1130BB05EDF0F910895CF93DF93482F60E081E0CB
S1130BC033DFEC01E6DFCE01DF91CF910895EF92A0
S1130BD0FF920F931F93CF93DF938A01FC01568DED
S1130BE0378D531710F02230F9F4422F7801EC01BD
S1130BF01AA18E8DCE0116DE1F3F81F48B898823C6
S1130C00A9F0CE0143960E94EE0F882389F0E114E7
S1130C10F10481F081E0F70180830DC0FF24F39497
S1130C20F10EFAA281E007C080E005C081E003C0B4
S1130C3081E001C081E0DF91CF911F910F91FF907E
S1130C40EF900895CF92DF92EF92FF920F931F934C
S1130C50CF93DF93CDB7DEB729970FB6F894DEBFF5
S1130C600FBECDBF8C016B012E833F83488759870C
S1130C70E12C0FB6F8940F92F801F68CFF2099F04E
S1130C80B601C8012EDEFA94F801F68E8085882319
S1130C9031F0C80108960E94EE0F8111E0DC0F903C
S1130CA00FBE81E04FC08E819F81A885B985892BB5
S1130CB08A2B8B2B21F40F900FBE80E043C0E110F0
S1130CC006C0CE0101960E94B310EE24E3940F9067
S1130CD00FBE2AD60FB6F8940F92F80181A18F3F68
S1130CE009F411A2F80182A18F3F09F412A20F9016
S1130CF00FBEBE016A5F7F4FCE0101960E94C410F1
S1130D00811117C0C80173DD882379F04E815F819A
S1130D1068857985C80143960E94950FC801FBDD5B
S1130D2043D78111A6CF9BDCA4CFC801F4DD3CD707
S1130D30A0CFC801F0DD38D7C80159DD882309F4F4
S1130D4098CF80E029960FB6F894DEBF0FBECDBFD2
S1130D50DF91CF911F910F91FF90EF90DF90CF9093
S1130D600895CF93DF93EC010FB6F8940F9289A105
S1130D708F3F09F419A28AA18F3F09F41AA20F9098
S1130D800FBE8E8D811104C0CE0143960E94AC0F1C
S1130D90CE01C1DDDF91CF910895FC0144815581DD
S1130DA022813381240F351F80819181B901681B11
S1130DB0790BCB016417750710F0841B950B08950C
S1130DC00F93FC018FE0DF011D928A95E9F7758787
S1130DD06487558344833783268306870F91089558
S1130DE0AF92BF92CF92DF92EF92FF920F931F9335
S1130DF0CF93DF936C015B017A01FC01C281D38143
S1130E00048115810C1B1D0B4017510708F48A013E
S1130E10F60184859585A801B5018C0F9D1F0E945C
S1130E2038270E151F0558F4A701401B510BB501B7
S1130E30600F711FF601848595850E943827CE01C5
S1130E408E0D9F1DF601248135818217930710F0C2
S1130E50821B930BF60193838283C701DF91CF91A9
S1130E601F910F91FF90EF90DF90CF90BF90AF90C4
S1130E700895CF92DF92EF92FF920F931F93CF9337
S1130E80DF931F921F92CDB7DEB77C016B015A83AB
S1130E90498321153105C1F0FC01868580FD08C018
S1130EA04217530708F49A013A83298381E00FC05B
S1130EB02017310758F042E050E0BE016F5F7F4FCA
S1130EC0C7018EDF81E003C080E001C080E0882399
S1130ED031F049815A81B601C70182DF02C080E046
S1130EE090E00F900F90DF91CF911F910F91FF90A1
S1130EF0EF90DF90CF900895AF92BF92CF92DF92A0
S1130F00EF92FF920F931F93CF93DF937C015B01CA
S1130F10E9014217530708F4EA01209781F1F70128
S1130F200081118184819581801B910B6E018C1746
S1130F309D0708F46C01F70164857585600F711FC6
S1130F40A601C5010E943827CC16DD0658F4AE016F
S1130F504C195D09F70164857585C5018C0D9D1DCE
S1130F600E9438270C0F1D1FF701848195810817F3
S1130F70190710F0081B190BF70111830083CE0128
S1130F80DF91CF911F910F91FF90EF90DF90CF9061
S1130F90BF90AF9008956F927F928F929F92AF927D
S1130FA0BF92CF92DF92EF92FF920F931F93CF9352
S1130FB0DF931F921F92CDB7DEB76C014B015A012C
S1130FC0790101151105B1F0FC0160807180A8015F
S1130FD0BE016F5F7F4F90DF89819A81E01AF10A29
S1130FE0A816B90630F4F60171826082A12CB12CE6
S1130FF001C05C019701A501B401C6017DDF0F901A
S11310000F90DF91CF911F910F91FF90EF90DF90A0
S1131010CF90BF90AF909F908F907F906F900895E6
S1131020CF92DF92EF92FF920F93CF93DF93EC0175
S11310306B01413011F401E001C000E0C114D1049E
S113104019F4CC24C394D12CCE014096C817D907E7
S113105020F4219650D97C0102C0E12CF12CE1143A
S1131060F10439F09601AE01B701615F7F4FC7010A
S1131070A7DEC701DF91CF910F91FF90EF90DF9032
S1131080CF9008950F930FB6F8940F92FC0120852A
S11310903185232B71F422853385232B61F426813A
S11310A037814481558164857585068589DE81E0B3
S11310B003C080E001C080E00F900FBE0F9108953F
S11310C0FC012481358180819181820F931F4281AB
S11310D05381841B950B01978217930710F0821B91
S11310E0930B08952F923F924F925F926F927F924B
S11310F08F929F92AF92BF92CF92DF92EF92FF9224
S11311000F931F93CF93DF93CDB7DEB72B970FB613
S1131110F894DEBF0FBECDBF4C017B876A871A01EE
S11311200E831F8328873987FC0184819581019769
S1131130268520FF0CC02A01F2E04F0E511C8415B5
S1131140950558F41E821F821886198606C08417D6
S1131150950710F02A0101C02C018E819F81A8857A
S1131160B985892B8A2B8B2B09F436C0CE010196C5
S1131170E4D70FB6F8940F92C401A2DF3C018415A2
S1131180950538F560E080E090E00E945C140E94D0
S11311902E11F401938782870F900FBEAE80BF801B
S11311A0C884D984E12CF12C00E010E0980140E0DF
S11311B050E0BA0180E00E949C11F401138612866B
S11311C0BE016A5F7F4FCE010196DED7882389F284
S11311D005C00F900FBE02C0612C712C6114710404
S11311E019F4C4016DDF3C0182019301A1016A85F8
S11311F07B85C4013EDE6C01892BE9F0C401CDDDA1
S1131200F4012681378182179307A8F08DD3F40166
S113121080859185892B71F080859185E12CF12C55
S113122000E020E030E0A90160E00E944312F401F4
S113123011861086B9D4C6012B960FB6F894DEBF7A
S11312400FBECDBFDF91CF911F910F91FF90EF9013
S1131250DF90CF90BF90AF909F908F907F906F90D2
S11312605F904F903F902F900895AF92BF92CF928E
S1131270DF92EF92FF920F931F93CF93DF93EC01D2
S11312807B015A0169018E8580FF04C08A010E5FCB
S11312901F4F01C08A01CE0113DF9C01A501B701D4
S11312A0CE01E7DD5C01892BC1F0CE0176DD2E8114
S11312B03F818217930788F088859985892B69F087
S11312C088859985E12CF12C00E020E030E0A9012B
S11312D060E00E943A1319861886C501DF91CF9108
S11312E01F910F91FF90EF90DF90CF90BF90AF9040
S11312F008954F925F926F927F928F929F92AF92D6
S1131300BF92CF92DF92EF92FF920F931F93CF93EE
S1131310DF93EC012B013A01580169018E8580FFAE
S113132005C06894882481F8912C02C0812C912CEA
S1131330A114B104C104D10431F10FB6F8940F9291
S1131340CE012BDD7C018816990640F060E080E038
S113135090E00E945C1482D7998788870F900FBE13
S11313608E149F0498F0E12CF12C00E010E0980119
S113137040E050E0BA0180E0DFD719861886CE013C
S11313800CDD7C0103C0CE0108DD7C018E149F04BA
S1131390E8F484019701A301B201CE01FCDD6C01E4
S11313A0892BB1F0C1D28A859B85892B69F08A8506
S11313B09B85E12CF12C00E020E030E0A90160E005
S11313C00E9443121B861A86EFD302C0C12CD12C73
S11313D0C601DF91CF911F910F91FF90EF90DF90A5
S11313E0CF90BF90AF909F908F907F906F905F90C1
S11313F04F900895E0919310F091941080818111A1
S11314000CC08FEF9FEFDC0180935D1090935E1012
S1131410A0935F10B09360100895E0919310F09141
S113142094100780F085E02D80819181A281B381A1
S113143080935D1090935E10A0935F10B093601042
S11314400895CF93DF93EC018B8D9C8D0E94240231
S1131450CE010E942402DF91CF9108954F925F92B2
S11314606F927F928F929F92AF92BF92CF92DF92B0
S1131470EF92FF920F93CF93DF932C015B014A010C
S11314803901E60165EA70E08B8D9C8D0E9441274D
S11314908B8D9C8D21E0821A9108880E991EA114CF
S11314A0B10489F415C0822F90E0F501E80FF91F0B
S11314B03081DE01A80FB91F5D963C93808188239B
S11314C029F02F5F01C020E0203168F31CA601C081
S11314D01D8E0A3008F009E00A8F0DA71EA6CE0162
S11314E0029600D8CE010E960E947202DB87CA874C
S11314F08AE090E0A0E0B0E0801B9109A109B10965
S11315008E879F87A88BB98BDF8BCE8B84E0FE01FF
S1131510BF96DF011D928A95E9F71BAAA301B201C8
S1131520C40154D899838883E114F10419F0F701B4
S1131530D183C083DF91CF910F91FF90EF90DF9023
S1131540CF90BF90AF909F908F907F906F905F905F
S11315504F900895CF93C0E009C02BE0C29FC00113
S1131560112485559F4E0E946102CF5FCA30A8F3B3
S113157080EA90E10E94610285E990E10E946102A3
S113158086E890E10E9461028BE790E10E9461028B
S11315908FE690E10E94610280EA90E190939410BA
S11315A08093931085E990E1909392108093911029
S11315B0CF910895CF93DF93EC010FB6F8940F9277
S11315C080916E108F5F80936E10809119119091AD
S11315D01A11892B51F4D0931A11C09319118091C7
S11315E06E10813091F4B6DF10C0809168108111C3
S11315F00CC0E0911911F0911A11928D8A8D8917FE
S113160020F0D0931A11C0931911809161108F5F4B
S113161080936110EA8D809169108E1710F4E09325
S113162069108BE08E9FF0011124E555FF4E018077
S1131630F281E02DFF83EE83268137813987288765
S1131640A681B7819E012E5F3F4F15963C932E9342
S1131650149737832683EA8D8E9FF0011124E55574
S1131660FF4EFD87EC8780818F5F80830F900FBED4
S113167080916810882351F0E0911911F0911A11AA
S1131680928D8A8D981710F40E942F03DF91CF91C9
S11316900895CF93DF931BC00FB6F8940F92E09197
S11316A08210F0918310C085D185CE0102960E94EC
S11316B0B30280916E10815080936E1080917A10E5
S11316C0815080937A100F900FBECE01BADE8091C4
S11316D07A108111E1CFDF91CF9108958F929F927B
S11316E0AF92BF92CF92DF92EF92FF92CF93DF93AC
S11316F06B017C01C42F80906A1090906B10A090B5
S11317006C10B0906D108091191190911A1102967D
S11317100E94B3028FEFC816D806E806F806B1F5A2
S1131720CC23A1F1EFE6F0E1A181B281C0911911BE
S1131730D0911A11BF83AE83C0911911D0911A119F
S113174016968D919C911797998788871696CD91B7
S1131750DC9117978091191190911A1102969D832B
S11317608C838091191190911A11029617969C936B
S11317708E931697A0911911B0911A111D96FC938E
S1131780EE931C9780818F5F80833FC0C80CD91C67
S1131790EA1CFB1CE0911911F0911A11C282D38248
S11317A0E482F582C814D904EA04FB0468F4609165
S11317B0191170911A1180919110909192106E5F8D
S11317C07F4F0E94760221C06091191170911A1105
S11317D080919310909194106E5F7F4F0E947602D7
S11317E080915D1090915E10A0915F10B091601097
S11317F0C816D906EA06FB0640F4C0925D10D092E2
S11318005E10E0925F10F0926010DF91CF91FF9034
S1131810EF90DF90CF90BF90AF909F908F900895FE
S11318202F923F924F925F926F927F928F929F92EC
S1131830AF92BF92CF92DF92EF92FF920F93CF932A
S1131840DF933C011B014A012901CA010E947B016B
S11318506C01892B71F084E390E00E947B01EC0120
S1131860892B19F0DC8ECB8E06C0C6010E9424029F
S113187002C0C0E0D0E0209761F0A12CB12C6E0131
S11318809201A401B101C301E9DDCE0193DE81E03F
S113189001C08FEFDF91CF910F91FF90EF90DF9018
S11318A0CF90BF90AF909F908F907F906F905F90FC
S11318B04F903F902F900895EF92FF920F930F2E29
S11318C0FBE5EF2EF0E1FF2EF02D00E020E030E00C
S11318D040EC50E06EE372E08DEC90E0A1DF8130EB
S11318E011F40E9400158130C9F4F8948FEF9FEF32
S11318F0DC0180935D1090935E10A0935F10B09311
S1131900601081E08093681010926A1010926B103E
S113191010926C1010926D100E94FD0280910602CC
S11319200F91FF90EF90089580915A108F5F8093EC
S11319305A1008950FB6F8940F9260916A1070913E
S11319406B1080916C1090916D100F900FBE0895E4
S1131950CF92DF92EF92FF92CF93DF9380915A1050
S1131960811105C1C0906A10D0906B10E0906C108A
S1131970F0906D108FEFC81AD80AE80AF80AC092DE
S11319806A10D0926B10E0926C10F0926D10C1143A
S1131990D104E104F104B1F4809193109091941076
S11319A020919110309192103093941020939310C1
S11319B09093921080939110809162108F5F809326
S11319C0621018DD80915D1090915E10A0915F10FF
S11319D0B0916010C816D906EA06FB0620F480E030
S11319E0B2C081E001C080E0E0919310F0919410C6
S11319F0908191110CC04FEF5FEFBA0140935D10DD
S1131A0050935E1060935F10709360109CC0E091DF
S1131A109310F09194100780F085E02D0084F185F7
S1131A20E02D4281538164817581C416D506E60692
S1131A30F70648F440935D1050935E1060935F1076
S1131A407093601080C0A485B585C681D781208538
S1131A5031853F832E83C085D185268137813D839F
S1131A602C8311964D915C9112979F012E5F3F4FED
S1131A704217530731F44085518512965C934E9377
S1131A801197158614869C9191509C93A08DB18DCD
S1131A90109709F1C289D389448955895F834E839C
S1131AA0C489D589428953895D834C8311966D918C
S1131AB07C911297AF01425F5F4F6417750731F451
S1131AC04489558912965C934E931197118E108E0A
S1131AD09C9191509C93A28D909169109A1710F447
S1131AE0A09369109BE09A9FD0011124A555BF4E85
S1131AF011960D90BC91A02DB783A68316964D9197
S1131B005C911797518740871696CD91DC91179772
S1131B103D832C8317963C932E931697A28D9A9F00
S1131B20D0011124A555BF4EB587A4879C919F5F12
S1131B309C93228DE0911911F0911A11928D29171D
S1131B4008F04FCF51CFE0911911F0911A11E28DA5
S1131B509BE0E99FF0011124E555FF4E90819230FE
S1131B6008F081E090916310911116C016C0809125
S1131B70641090916510A0916610B0916710019661
S1131B80A11DB11D8093641090936510A0936610FD
S1131B90B093671080E001C081E0DF91CF91FF90A6
S1131BA0EF90DF90CF900895CF92DF92EF92FF9263
S1131BB0CF93DF930FB6F8940F9280915A1081500F
S1131BC080935A1080915A108111BEC080916E107A
S1131BD0811188C0BCC0E0918D10F0918E100084FA
S1131BE0F185E02DA08DB18DC289D3898489958931
S1131BF09F838E83C489D589828993899D838C83AD
S1131C0011962D913C911297CF010E962817390702
S1131C1031F48489958912969C938E931197118E31
S1131C20108E8C9181508C93A485B585C681D78103
S1131C30808591859F838E83C085D1858681978198
S1131C409D838C8311968D919C9112979F012E5F99
S1131C503F4F8217930731F48085918512969C93A8
S1131C608E931197158614868C9181508C93A28D36
S1131C70809169108A1710F4A09369108BE08A9FF1
S1131C80D0011124A555BF4E11960D90BC91A02DE5
S1131C90B783A68316964D915C9117975187408719
S1131CA01696CD91DC9117973D832C8317963C9320
S1131CB02E931697A28D8A9FD0011124A555BF4E4D
S1131CC0B587A4878C918F5F8C93928DA091191105
S1131CD0B0911A115A968C91981730F081E0809344
S1131CE0631002C0E0E0F0E080918610811173CFB0
S1131CF0EF2B09F07FDBC0906410D0906510E0906A
S1131D006610F0906710C114D104E104F104A1F04D
S1131D101FDE882319F081E08093631081E0C81AE4
S1131D20D108E108F108A1F710926410109265102F
S1131D30109266101092671080916310882331F01E
S1131D400E942F0381E003C080E001C080E00F9077
S1131D500FBEDF91CF91FF90EF90DF90CF90089569
S1131D608F929F92AF92BF92CF92DF92EF92FF92A7
S1131D701F93CF93DF93EC016A017B01D5DD809043
S1131D806A1090906B10A0906C10B0906D108881C8
S1131D909981AA81BB81AC01BD014C0D5D1D6E1DF5
S1131DA07F1D88169906AA06BB0660F448175907D2
S1131DB06A077B0798F484169506A606B70680F092
S1131DC010E013C0481759076A077B0758F08416B8
S1131DD09506A606B70640F010E007C010E005C05F
S1131DE011E003C011E001C011E0488359836A8304
S1131DF07B83112341F0CB01BA01681979098A095F
S1131E009B0940E06BDCD0DE811102C00E942F03ED
S1131E10812FDF91CF911F91FF90EF90DF90CF90B2
S1131E20BF90AF909F908F900895CF92DF92EF92E2
S1131E30FF926B017C01672B682B692B39F074DDF1
S1131E4040E0C701B6014ADCAFDE01C080E0811189
S1131E5002C00E942F03FF90EF90DF90CF9008956F
S1131E6080915A10882321F081E0809363100895B3
S1131E7010926310E0911911F0911A1120813181AF
S1131E80E0911911F0911A11838D948D82179307A3
S1131E9060F06091191170911A11635E7F4F809107
S1131EA0191190911A110E948E178091691001C026
S1131EB08150282F30E09BE0929FF001939FF00D1A
S1131EC01124E555FF4E9081992391F39BE0929F55
S1131ED0A001939F500D1124DF010180F281E02DB8
S1131EE00480F581E02D1296FC93EE9311974255F0
S1131EF05F4EE417F50729F444815581FD015283AF
S1131F0041839BE0929FF001939FF00D1124E555CE
S1131F10FF4E0180F281E02D2085318530931A1126
S1131F2020931911809369100895CF92DF92EF9254
S1131F30FF926A017B016091191170911A11625F1D
S1131F407F4F0E94760241E0C701B601C7DBFF90D4
S1131F50EF90DF90CF900895CF93DF93FC01CB01F6
S1131F60BA01A181B281C0911911D0911A11BB8B10
S1131F70AA8BC0911911D0911A1116964D915C91AA
S1131F8017975D8B4C8B1696CD91DC9117974091EA
S1131F90191150911A11425F5F4F5D834C83409138
S1131FA0191150911A11425F5F4F17965C934E932B
S1131FB01697A0911911B0911A115996FC93EE93AA
S1131FC0589730813F5F3083222319F06FEF7FEF02
S1131FD0CB01422F83DBDF91CF910895CF93DF9321
S1131FE0DC011796ED91FC9118970084F185E02DA2
S1131FF0A08DB18DC289D389848995899F838E836D
S1132000C489D589828993899D838C8311968D9106
S11320109C9112979F01225F3F4F8217930731F4DF
S11320208489958912969C938E931197118E108EA4
S11320308C9181508C9380915A10811152C0A48547
S1132040B585C681D781808591859F838E83C08520
S1132050D185868197819D838C8311968D919C91E6
S113206012979F012E5F3F4F8217930731F48085AB
S1132070918512969C938E931197158614868C9154
S113208081508C93A28D809169108A1710F4A093CB
S113209069108BE08A9FD0011124A555BF4E11967B
S11320A00D90BC91A02DB783A68316964D915C919B
S11320B01797518740871696CD91DC9117973D83EA
S11320C02C8317963C932E931697A28D8A9FD0014A
S11320D01124A555BF4EB587A4878C918F5F8C932F
S11320E01CC046E850E1DA011196CD91DC911297BB
S11320F0D38BC28B8E819F81958B848B8E819F81A4
S1132100DC0115963C932E9314973F832E83518FB5
S1132110408FDA018C918F5F8C93928DE09119112D
S1132120F0911A11828D891720F481E08093631055
S113213001C080E0DF91CF9108950FB6F8940F921B
S113214020916210FC01208340916A1050916B1021
S113215060916C1070916D1041835283638374831A
S11321600F900FBE089520916210FC0120834091CE
S11321706A1050916B1060916C1070916D104183D6
S113218052836383748308958F929F92AF92BF9218
S1132190CF92DF92EF92FF920F931F93CF93DF932F
S11321A0FB010FB6F8940F92C0906A10D0906B1098
S11321B0E0906C10F0906D10DC0111960D911D9162
S11321C02D913C91149746015701801A910AA20A55
S11321D0B30A40815181628173814F3FBFEF5B0736
S11321E06B077B0739F1EC01B881A0916210BA1733
S11321F059F0C016D106E206F30630F010821182BF
S11322001282138281E017C084169506A606B706CB
S113221058F4481959096A097B0940835183628338
S11322207383A1DF80E007C01082118212821382BF
S113223081E001C080E00F900FBEDF91CF911F912C
S11322400F91FF90EF90DF90CF90BF90AF909F9051
S11322508F90089581E080936310089580911911FF
S113226090911A11089580916810882331F080911B
S11322705A10811104C082E0089581E0089580E03D
S113228008950F931F93CF93DF93FC01892B09F4D7
S113229049C086A5815086A7228D95A5291709F4E2
S11322A043C0811143C0EF018F010E5F1F4FC8016E
S11322B00E94B302EDA5EA8F8AE090E0A0E0B0E0CE
S11322C08E1B9109A109B1098E879F87A88BB98BB1
S11322D0809169108E1710F4E09369108BE08E9F43
S11322E0F0011124E555FF4E0180F281E02DFF83BA
S11322F0EE832681378139872887A681B781159691
S11323001C930E93149717830683EA8D8E9FF00116
S11323101124E555FF4EFD87EC8780818F5F808314
S113232081E005C080E003C080E001C080E0DF916F
S1132330CF911F910F9108954F925F926F927F9268
S1132340AF92BF92CF92DF92EF92FF920F931F93BF
S1132350CF93DF93280139010FB6F8940F92E091DF
S11323601911F0911A11C82FD0E0EC0FFD1F83A9A9
S1132370823071F1E0911911F0911A11CE01880F98
S1132380991F880F991FE80FF91F87A590A9A1A984
S1132390B2A94095509560957095482359236A23B6
S11323A07B2347A750AB61AB72ABE0911911F0915D
S11323B01A11EC0FFD1F81E083ABA114B104C10419
S11323C0D10431F041E0C601B50188D90E942F0340
S11323D00F900FBE0FB6F8940F92E114F104A1F020
S11323E0E0911911F0911A11CE01880F991F880FED
S11323F0991FE80FF91F87A590A9A1A9B2A9F70110
S113240080839183A283B383E0911911F0911A110F
S1132410EC0FFD1F83A98230E9F4E0911911F091CA
S11324201A11CE01880F991F880F991FE80FF91F01
S113243087A590A9A1A9B2A94094509460947094DE
S1132440482259226A227B2247A650AA61AA72AA6C
S113245081E001C080E02091191130911A11C20F5E
S1132460D31F1BAA0F900FBEDF91CF911F910F9125
S1132470FF90EF90DF90CF90BF90AF907F906F90E0
S11324805F904F9008958F929F92AF92BF92EF9278
S1132490FF920F93CF93DF93DC010FB6F8940F9262
S11324A0E114F10489F0E62FF0E0EE0FFF1FEE0FC8
S11324B0FF1FE80FF91F87A490A8A1A8B2A8F701ED
S11324C080829182A282B38270E0FD01E60FF71F41
S11324D083A992E093AB023001F118F4013031F09A
S11324E04DC0033079F10430D1F148C0660F771F35
S11324F0660F771FFD01E60FF71F87A490A8A1A818
S1132500B2A8BA01A901482959296A297B2947A7F0
S113251050AB61AB72AB01E034C0660F771F660F3E
S1132520771FFD01E60FF71F47A550A961A972A9FE
S11325304F5F5F4F6F4F7F4F47A750AB61AB72AB9D
S113254001E01FC0660F771F660F771FFD01E60FBE
S1132550F71F27A730AB41AB52AB01E012C082306A
S113256079F0660F771F660F771FFD01E60FF71FDF
S113257027A730AB41AB52AB01E003C001E001C07F
S113258000E0813009F069C01C96ED91FC911D9723
S11325901696CD91DC91179718968D919C91199769
S11325A09F838E831896CD91DC91199716968D9101
S11325B09C9117979D838C83818192819D012E5FCD
S11325C03F4F8217930731F418968D919C91199778
S11325D0928381831D961C921E921C978081815048
S11325E080835A96EC915A97809169108E1710F453
S11325F0E09369108BE08E9FF0011124E555FF4EA6
S11326000180F281E02D1796FC93EE931697468194
S1132610578119965C934E931897C681D7813D8351
S11326202C83378326835A96EC915A978E9FF00118
S11326301124E555FF4E1D96FC93EE931C97808163
S11326408F5F80835A969C91E0911911F0911A1131
S1132650828D891710F40E942F030F900FBE802FD4
S1132660DF91CF910F91FF90EF90BF90AF909F902B
S11326708F9008958F929F92AF92BF92CF92DF92E4
S1132680EF92FF920F93CF93DF93DC01E114F104F7
S113269089F0E62FF0E0EE0FFF1FEE0FFF1FE80FAB
S11326A0F91F87A490A8A1A8B2A8F70180829182FB
S11326B0A282B38270E0FD01E60FF71F93A982E0C6
S11326C083AB023001F118F4013031F04DC0033016
S11326D079F10430D1F148C0660F771F660F771F78
S11326E0FD01E60FF71F87A490A8A1A8B2A8BA011C
S11326F0A901482959296A297B2947A750AB61AB0D
S113270072AB81E034C0660F771F660F771FFD013F
S1132710E60FF71F47A550A961A972A94F5F5F4F44
S11327206F4F7F4F47A750AB61AB72AB81E01FC0C7
S1132730660F771F660F771FFD01E60FF71F27A7A8
S113274030AB41AB52AB81E012C0923079F0660FEE
S1132750771F660F771FFD01E60FF71F27A730AB22
S113276041AB52AB81E003C081E001C080E0913015
S113277009F096C090915A1091115FC01C96ED918A
S1132780FC911D971696CD91DC91179718962D9173
S11327903C9119973F832E831896CD91DC9119971C
S11327A016962D913C9117973D832C83418152813C
S11327B09D012E5F3F4F4217530731F418964D91F8
S11327C05C911997528341831D961C921E921C970B
S11327D09081915090835A96EC915A9790916910F8
S11327E09E1710F4E09369109BE09E9FF001112462
S11327F0E555FF4E0180F281E02D1796FC93EE9390
S113280016974681578119965C934E931897C68103
S1132810D7813D832C83378326835A96EC915A972C
S11328209E9FF0011124E555FF4E1D96FC93EE93F7
S11328301C9790819F5F908321C066E870E1FB0143
S1132840C181D2815396DC93CE9352972E813F81DE
S113285055963C932E9354974E815F819D01225F40
S11328603F4FFA01358324833F832E8359967C930B
S11328706E935897FB0190819F5F90835A962C9199
S1132880E0911911F0911A11928D921748F4C11424
S1132890D10419F091E0F601908391E090936310D4
S11328A0DF91CF910F91FF90EF90DF90CF90BF9089
S11328B0AF909F908F900895009721F48091191103
S11328C090911A110FB6F8940F9270E0FC01E60F84
S11328D0F71F23A9223031F4FC01E60FF71F13AAD6
S11328E081E001C080E00F900FBE0895DC01E0910B
S11328F02511F0912611808191E0811190E09C9343
S1132900911108C00780F085E02D6081718182817A
S11329109381089560E070E0CB010895CF92DF9237
S1132920EF92FF920F931F93FC01428353836483BE
S11329307583938782870417150726073707C0F026
S11329400C191D092E093F0986859785A089B1892F
S1132950081719072A073B0700F5BF016E5F7F4F71
S113296080912311909124110E94760280E018C076
S11329700C151D052E053F0528F44C155D056E0547
S11329807F0568F4BF016E5F7F4F809125119091A0
S113299026110E94760280E003C081E001C081E03C
S11329A01F910F91FF90EF90DF90CF9008950FB695
S11329B0F8940F928091211190912211892BE9F4BE
S11329C082E391E10E94610287E291E10E94610247
S11329D082E391E1909326118093251187E291E19E
S11329E0909324118093231140E067E08AE00E94D1
S11329F0140590932211809321110F900FBE089516
S1132A00EF92FF920F93D3DF8091211190912211C5
S1132A10892B91F00F2EFFE1EF2EF1E1FF2EF02D27
S1132A2003E020E030E040EC50E063E472E087ED46
S1132A3090E00E94100C01C080E00F91FF90EF9095
S1132A4008958F929F92AF92BF92CF92DF92EF92AE
S1132A50FF920F931F93CF93DF93CDB7DEB72797E2
S1132A600FB6F894DEBF0FBECDBFE0912111F091F7
S1132A702211309781F169832A833B834C835D83E0
S1132A809F838E836630F4F4EEDB823069F400E0D9
S1132A90A7019601BE016F5F7F4F80912111909134
S1132AA022110E94370518C000E020E030E0A9019F
S1132AB0BE016F5F7F4F80912111909122110E947E
S1132AC037050AC020E0A801BE016F5F7F4FCF0128
S1132AD00E94E70501C080E027960FB6F894DEBF98
S1132AE00FBECDBFDF91CF911F910F91FF90EF905B
S1132AF0DF90CF90BF90AF909F908F9008958F926A
S1132B009F92AF92BF92CF92DF92EF92FF920F9378
S1132B101F93CF93DF933BC00780F085E02D808027
S1132B209180A280B380C085D1858E010E5F1F4F36
S1132B30C8010E94B302EC89FD89CE0119958E89E2
S1132B4082FF25C08E859F85A889B989880D991D26
S1132B50AA1DBB1D88169906AA06BB0670F48A83B3
S1132B609B83AC83BD83DB87CA87B8018091251121
S1132B70909126110E9476020AC0C12CD12C7601B4
S1132B8000E010E0A501940160E0CE015ADFE0917D
S1132B902511F091261180818111BECF80912311DE
S1132BA0909124119093261180932511F093241170
S1132BB0E0932311DF91CF911F910F91FF90EF903C
S1132BC0DF90CF90BF90AF909F908F900895CF9259
S1132BD0DF92EF92FF92CF93DF93EC010E949A0C65
S1132BE06B017C0180911B1190911C11A0911D110E
S1132BF0B0911E11C816D906EA06FB0620F47FDF41
S1132C0081E0888301C01882C0921B11D0921C11EC
S1132C10E0921D11F0921E11C701B601DF91CF9110
S1132C20FF90EF90DF90CF9008954F925F926F9254
S1132C307F928F929F92AF92BF92CF92DF92EF9248
S1132C40FF920F931F93CF93DF934B015C012901F4
S1132C503A01E0912511F09126110780F085E02DCD
S1132C60C085D185CE0102960E94B3028E8982FF6F
S1132C701BC04E855F8568897989480D591D6A1D79
S1132C807B1D7501640193018201CE0147DE882317
S1132C9069F0C12CD12C760100E010E0A50194016B
S1132CA060E0CE01CEDE02C08E7F8E8BEC89FD8982
S1132CB0CE011995DF91CF911F910F91FF90EF9065
S1132CC0DF90CF90BF90AF909F908F907F906F9048
S1132CD05F904F9008958F929F92AF92BF92CF9240
S1132CE0DF92EF92FF921F93CF93DF931F92CDB7A2
S1132CF0DEB76B017C01142F0E94940CCE01019667
S1132D0066DF4B015C01898181112DC011110DC059
S1132D108C149D04AE04BF0440F00E94D40DA501A0
S1132D209401C701B60181DF20C0112341F0E09175
S1132D302311F0912411808111E0811110E0B70179
S1132D40A601481959096A097B09212F809121118B
S1132D50909122110E94B1060E94D40D811105C0E8
S1132D600E942F0302C00E94D40D0F90DF91CF91D7
S1132D701F91FF90EF90DF90CF90BF90AF909F9006
S1132D808F900895AF92BF92CF92DF92EF92FF920D
S1132D900F931F93CF93DF93CDB7DEB728970FB66A
S1132DA0F894DEBF0FBECDBF82C0898188230CF4A6
S1132DB07EC0AE80BF80D5011C968D919C911D97DD
S1132DC0892B21F0C50102960E94B302CE01089618
S1132DD0FEDE8B019C01E9810E2E000CFF0BEA3014
S1132DE0F10508F064C08827EE58FF4F8F4F0C940C
S1132DF00B26F50186898160868BCA80DB80EC8096
S1132E00FD8046855785608971894C0D5D1D6E1D59
S1132E107F1DC50183DD882309F449C0D50154967B
S1132E20ED91FC915597C5011995F501868982FFAD
S1132E303EC04A815B816C817D8186859785A089AE
S1132E40B1899A01AB01280F391F4A1F5B1FC12C9E
S1132E50D12C760100E010E060E0C501F2DD27C06E
S1132E60D50156968C9156978E7F56968C931FC09B
S1132E70F50186898160868B4A815B816C817D81C5
S1132E8046875787608B718B400F511F621F731FDA
S1132E9068017901C50142DD0AC0F501868981FD19
S1132EA004C0C5010E94240202C08E7F868B20E0EC
S1132EB030E0A901BE016F5F7F4F80912111909195
S1132EC022110E942206811170CF28960FB6F89421
S1132ED0DEBF0FBECDBFDF91CF911F910F91FF9049
S1132EE0EF90DF90CF90BF90AF900895089584B194
S1132EF0806884B985B1806885B9089583B1806894
S1132F0083B90895F4DF2FEF80E792E021508040E9
S1132F109040E1F700C00000F1DFF5CFE8DF2FEFCC
S1132F2087EA91E6215080409040E1F700C000001C
S1132F30E5DFF5CF0F931F93CF93DF93CDB7DEB7C4
S1132F4064970FB6F894DEBF0FBECDBF81E00E9438
S1132F50C0220CD388D59F938F938BE492E09F93E8
S1132F608F930E94972780D47ED59F938F938EE56D
S1132F7092E09F938F930E9497278E010F5F1F4FBC
S1132F80C80106D370D51F930F939F938F9387E740
S1132F9092E09F938F930E949727C80115D363D51E
S1132FA09F938F931F930F938BE892E09F938F933C
S1132FB00E949727A80160EA72E081EC92E032D582
S1132FC052D59F938F931F930F9380EA92E09F9320
S1132FD08F9381EC92E09F938F9382ED92E09F9385
S1132FE08F930E94972723D33ED59F938F9388E096
S1132FF093E09F938F930E9497270FB6F894DEBFB8
S11330000FBECDBF81E00DD42ED59F938F9387E162
S113301093E09F938F930E94972784EF91E00CD4C1
S113302022D59F938F9381E08F9384EF8F9388E3CE
S113303093E09F938F930E9497270FB6F894DEBF77
S11330400FBECDBF1AE080E0F8D2082F0CD59F93B5
S11330508F931F921F9388E593E09F938F930E9411
S113306097270F900F900F900F900F900F900830AC
S113307059F080E00E94242366E371E080E090E050
S11330800E94150F1150F9F6083021F481E00E94D6
S1133090062309C081E00E94152380E00E94E322F8
S11330A00E942F03FDCF64960FB6F894DEBF0FBEC7
S11330B0CDBFDF91CF911F910F910895CF93DF93EF
S11330C000D01F92CDB7DEB781E042D262E070E05B
S11330D080E090E00E94150F80E03AD266E970E04B
S11330E080E090E00E94150FECD124DFEDE3F1E1E4
S11330F086E0818382E080830E949A0C69837A83CC
S11331008B839C8348EA58E460E070E0CE0101962A
S11331100E94B00EEDE3F1E180E3828389E38383CF
S113312082E0848383EA858384E086838AE18783DB
S113313083E00E9436236DE371E180E0A7D293D44B
S11331409F938F9388E793E09F938F930E94972791
S11331500F900F900F900F90D5CFEF92FF920F9397
S1133160E12CF12C082F20E030E048E851E06DE834
S113317073E08EE598E10E94100C0F91FF90EF90A0
S11331800895CF93DF9300D01F92CDB7DEB70E948E
S11331909A0C69837A838B839C834FE150E060E0CF
S11331A070E0CE0101960E94B00E84E993E00E9483
S11331B0AA2792B181E0892782B9EFCFCF93DF9319
S11331C000D01F92CDB7DEB70E949A0C69837A8330
S11331D08B839C834EE350E060E070E0CE01019667
S11331E00E94B00E8AE993E00E94AA2782B1805817
S11331F082B9F0CFEF92FF920F9380917312909166
S11332007412892B89F481E00E94DB059093741277
S113321080937312009741F000E020E030E0A901B0
S113322060E070E00E943705E12CF12C02E020E020
S113323030E040EC50E064E973E081EC98E10E94F6
S1133240100C01E020E030E040EC50E06AE973E06B
S11332508EED98E10E94100C0F91FF90EF9008956D
S113326081B1816881B980E00E946B21C3DF85E070
S11332700E94722260E070E081E02AD183E06DCF89
S11332800895EEDF80EA93E00E94AA270E945C0C76
S1133290FFCF0F931F93CF93DF931F921F92CDB74E
S11332A0DEB78C0119822DC0E0918A11EC3250F402
S11332B081E08E0F80938A11F0E0E454FE4E8A81FF
S11332C0808302C010928A118A818A30D1F440919D
S11332D08A1150E0FA01E654FE4E10824150510921
S11332E09E012F5F3F4F6CEB71E180918D119091A6
S11332F08E110E943509898181110E942F03109239
S11333008A11BE016E5F7F4FC8014FD5882361F2D9
S11333100F900F90DF91CF911F910F9108950F930C
S11333201F93CF93DF938C01EB0180918D119091CA
S11333308E110E944208B80183E591E10E9478272A
S1133340209779F0E3E5F1E101900020E9F7319766
S113335080E290E091838083BE0183E591E10E9445
S11333606D27E3E5F1E1DF010D900020E9F7119706
S11333708DE09AE011969C938E9312961C92019084
S11333800020E9F73197E355F141AE2F83E591E150
S1133390AC016A2F80918F1190919011B1D4811159
S11333A011C008E215E020E030E04DE250E066E1B3
S11333B072E180918D1190918E110E94790986E1BC
S11333C092E102C080E090E0DF91CF911F910F91D4
S11333D008952F923F924F925F926F927F928F92B5
S11333E09F92AF92BF92CF92DF92EF92FF920F9390
S11333F01F93CF93DF935C01FC0101900020E9F758
S113340031976F01C81AD90A5C2C0F2EFBE48F2E5A
S1133410F6E09F2EF02DE12CF12C4C2C3701F40119
S113342001811281E80109900020E9F72197C01B6E
S1133430D10B3C2EF9E0CF16D10458F0F4012080D2
S1133440FEE02F1206C0B801C5010E944827892B4F
S113345009F5442D351408F44C2F50E0B801C5018A
S11334600E947F27892B49F4F301EE0FFF1FE60D1D
S1133470F71DE55BF94F20800DC08FEFE81AF80ABD
S1133480E3E08E0E911CF1E1EF16F10439F6689435
S1133490222424F8822DDF91CF911F910F91FF9068
S11334A0EF90DF90CF90BF90AF909F908F907F90E0
S11334B06F905F904F903F902F90089530DF89CFA9
S11334C0089580918D1190918E110C944208089565
S11334D08F929F92AF92CF92EF920F931F93CF93BD
S11334E0C82F8B0141E060E070E088EC90E00E941E
S11334F0100890938E1180938D1110938C1100936A
S11335008B110F2EF9E48F2EF9E19F2EF02D689484
S1133510AA24A6F86894CC24C6F8E12C00E023E0A1
S113352040E051EE60E070E08C2F1ED39093901138
S113353080938F11E7E0F1E0808180618083CF91F7
S11335401F910F91EF90CF90AF909F908F9008951F
S1133550882331F0E8E0F1E080818F7E8083089554
S1133560E8E0F1E0808180618083089560E070E0AC
S113357081ED93E0D4DEE6E1F2E101900020E9F789
S11335803197E651F24181E0759708F080E00895A3
S1133590CF93DF93EC0160E070E082EE93E0BFDE56
S11335A0E6E1F2E101900020E9F7E752F24139F453
S11335B066E172E1CE010E94782780E002C01882A1
S11335C081E0DF91CF910895FC0101900020E9F79B
S11335D09F01215131092817390729F4BC0180E1E1
S11335E094E06CCF089589E00895FC0101900020D7
S11335F0E9F79F01215131092817390729F4BC0142
S11336008FE194E05BCF089589E00895FC01019077
S11336100020E9F79F01215231092817390729F4BD
S1133620BC018EE294E04ACF089589E0089560E0F9
S113363070E08DE694E042CF08950F931F93E82F36
S1133640F0E0EE0FFF1FE95BF94F6081718186E7BF
S113365094E034DF811114C008E215E020E030E08A
S11336604DE250E066E172E180918D1190918E11EE
S11336700E947909882321F086E192E1AADE03C041
S113368086E192E1A6DE1F910F9108950F931F9397
S1133690CF93DF931F92CDB7DEB7DB0111969C91D8
S11336A01197953108F0B4C0992381F160E070E07E
S11336B0272F30E0462F50E0FD01E40FF51F9281E3
S11336C092959F709A3010F0995C01C0905DF90159
S11336D0E955FE4E90832F5F3F4FFD01E40FF51F28
S11336E092819F70492F50E04A30510514F0995C43
S11336F001C0905DF901E955FE4E90837E5F6F5FD6
S113370011969C911197691798F201C070E0E72F08
S1133710F0E0E955FE4E10824C91811103C08FE711
S113372094E002C081E894E027EA31E13F932F93CB
S11337301F924F939F938F9385E894E09F938F9369
S113374089EE91E19F938F930E94DA2760E070E005
S113375089EE91E1B3DE0FB6F894DEBF0FBECDBFA4
S1133760811159C008E215E020E030E04DE250E05C
S113377066E172E180918D1190918E110E94790918
S1133780882309F447C086E192E123DE8E3009F0F4
S113379042C087E0898380918B1190918C11892B91
S11337A0A9F1BE016F5F7F4F86E192E168D18093FA
S11337B09111E981F0E0EA5EFD4EDF010D900020F9
S11337C0E9F71197AE1BBF0BAA2391F0BB27CD01DC
S11337D001979C0112F42F5F3F4F35952795209355
S11337E09211AF014F5F5F4F64E183E991E173D1BF
S11337F001E010E020E030E046E150E061E971E1F1
S113380080918B1190918C110E9472088EE003C0FC
S113381084E101C080E00F90DF91CF911F910F915F
S11338200895813019F065E974E002C06EE675E030
S113383089E994E043CE08959F938F938AEC94E0B2
S11338409F938F9389EE91E19F938F930E94DA2740
S113385060E070E089EE91E131DE0F900F900F90FF
S11338600F900F900F9008952F923F924F925F9276
S11338706F927F928F929F92AF92BF92CF92DF927C
S1133880EF92FF920F931F93CF93DF93CDB7DEB7E1
S1133890A0970FB6F894DEBF0FBECDBF67EF74E0FC
S11338A083E095E03CDD95DD8111A3C080E2EEE18B
S11338B0F2E0DE01119601900D928A95E1F79E01E6
S11338C02F5F3F4F6901E12CF12C0F2EFFE0AF2E4B
S11338D0F5E0BF2EF02D09EE11E10F2EF8E24F2E88
S11338E0F5E05F2EF02D0F2EFFE38F2EF5E09F2ED7
S11338F0F02D0F2EF9E56F2EF5E07F2EF02D3E2CE6
S11339002F2CFF92EF92BF92AF921F930F930E94BE
S1133910DA2760E070E0C80102DD5BDD0F900F90F4
S11339200F900F900F900F90811163C032E03E15FD
S1133930E8F4F60183818F9382818F9381818F9341
S113394080818F93FF92EF925F924F921F930F9318
S11339500E94DA2760E070E0C801E1DC3ADD0FB6CE
S1133960F894DEBF0FBECDBF811143C02F923F92AA
S11339709F928F921F930F930E94DA2760E070E06A
S1133980C801CDDC26DD0F900F900F900F900F90A3
S11339900F9081112EC02F923F927F926F921F93AE
S11339A00F930E94DA2760E070E0C801B8DC11DDF3
S11339B00F900F900F900F900F900F90811119C0DE
S11339C03FEFE31AF30A84E0C80ED11C98E0E9162D
S11339D0F10409F094CF60E070E081E795E09FDCAA
S11339E0F8DC811106C060E070E082E895E097DCC5
S11339F0F0DCA0960FB6F894DEBF0FBECDBFDF910A
S1133A00CF911F910F91FF90EF90DF90CF90BF90D7
S1133A10AF909F908F907F906F905F904F903F906A
S1133A202F900895EF92FF920F931F93CF93DF93FC
S1133A30EC018B017A0181E0F4DE81110DC0CE012D
S1133A40D4DD811109C0C801E1DD811105C0C701C0
S1133A50BBDD811101C0EBDDDF91CF911F910F918F
S1133A60FF90EF90089590E0FC01EE0FFF1F8E0F82
S1133A709F1FFC01E55BF94F818192810895DC0170
S1133A80009729F1FB012081FC0101900020E9F756
S1133A903197E81BF90B822F90E0E817F907C8F07B
S1133AA080E008C0880F382F330F330F830F805303
S1133AB0890F2F5FFD01E20FF11D908130ED390F69
S1133AC03A3010F49111EECFFB012083089580E089
S1133AD0089580E008950F931F93CF93DF93DC0143
S1133AE0EA012097E1F1FA0101900020E9F731970A
S1133AF0E41BF50B329710F532C08D01040F151F2E
S1133B0030E0AE01420F531FFA019081913428F046
S1133B109753592F5295507F03C0592F5295507F78
S1133B202C0F3D1FF9019181913410F0975301C07E
S1133B309053950FF80190838F5F01C080E0282F88
S1133B40220F482F50E0FE0101900020E9F7319741
S1133B50EC1BFD0B4E175F0710F48613CECFDF91DD
S1133B60CF911F910F9108952F923F924F925F92A0
S1133B706F927F928F929F92AF92CF92EF92FF9229
S1133B800F931F93CF93DF93CDB7DEB7F82E2A019F
S1133B903B0188E090E00E9413268C018F2D90E079
S1133BA0FC01EE0FFF1FED5BFD4E11830083011539
S1133BB0110509F468C0880F991FFC01E95FFD4FE6
S1133BC080819181D8018D939C938C2D90E0880FF6
S1133BD0991F880F991F0E9413261C0186E090E00C
S1133BE00E9413267C014C2DB1010FD6F801F582F9
S1133BF0E4828A2D90E0880F991F880F991F0E94F4
S1133C0013261C0186E090E00E9413267C014A2DB5
S1133C10B101FBD5D8011396FC92EE921297179638
S1133C209C928E921697FFB6F894ED91FC911197A1
S1133C3036978081826080838D909C90C301B2010D
S1133C40F9D620E030E040E051E482D79B01AC019A
S1133C5060E074E284E79BE459D620E030E040E879
S1133C605FE3EFD5BBD6F40132976083D801ED91C1
S1133C70FC911197359788E98083ED91FC913497F5
S1133C8086E08083FFBEC801DF91CF911F910F9121
S1133C90FF90EF90CF90AF909F908F907F906F9018
S1133CA05F904F903F902F900895CF93DF93DC0166
S1133CB0892B01F11296ED91FC91139793818281E6
S1133CC02581981B922384819817B1F083812695CE
S1133CD02823C081D181C20FD11D68838F5F958154
S1133CE089238383ED91FC91359780818062808361
S1133CF080E003C081E001C082E0DF91CF910895AC
S1133D00EF92FF920F931F93CF93DF937C01009761
S1133D1009F441C0DC011296ED91FC911397938153
S1133D208281981B858198238481891B8617A8F139
S1133D30662341F1842F952FDC016150462F50E01A
S1133D404F5F5F4F480F591FE701EA81FB81938161
S1133D5082812581981B92238481981779F08C9114
S1133D60938126952923608171818B01020F111D96
S1133D70E80188839F5F8581982393831196A41714
S1133D80B50711F7D701ED91FC91359780818062D9
S1133D90808380E003C081E001C082E0DF91CF91A5
S1133DA01F910F91FF90EF9008950097D1F0DC01DF
S1133DB01496ED91FC91159793818281981799F04F
S1133DC09281858186958923A081B181A80FB11D37
S1133DD08C91DB018C939F5F85819823928380E093
S1133DE0089581E0089583E008951F920F920FB61D
S1133DF00F9211240BB60F922F933F934F935F931F
S1133E006F937F938F939F93AF93BF93CF93DF93DE
S1133E10EF93FF93A0914312B0914412109711F1C4
S1133E206091C6001496ED91FC911597938182815F
S1133E302581981B92238481981761F083812695AC
S1133E402823C081D181C20FD11D68838F5F9581E2
S1133E50892383831696ED91FC911797309711F07F
S1133E60CD011995FF91EF91DF91CF91BF91AF9162
S1133E709F918F917F916F915F914F913F912F917E
S1133E800F900BBE0F900FBE0F901F9018951F92AE
S1133E900F920FB60F9211240BB60F922F938F939C
S1133EA09F93AF93BF93EF93FF93E0914312F091ED
S1133EB044123097B9F00280F381E02D938182811E
S1133EC09817B1F092818581282F26952923A08106
S1133ED0B181A20FB11D2C919F5F8923828320930E
S1133EE0C6000BC0E1ECF0E080818F7D808305C0CB
S1133EF0E1ECF0E080818F7D8083FF91EF91BF91B1
S1133F00AF919F918F912F910F900BBE0F900FBE89
S1133F100F901F9018951F920F920FB60F921124B5
S1133F200BB60F922F933F934F935F936F937F93AF
S1133F308F939F93AF93BF93CF93DF93EF93FF93AD
S1133F40A0914512B0914612109711F16091CE00E4
S1133F501496ED91FC911597938182812581981B8C
S1133F6092238481981761F0838126952823C08148
S1133F70D181C20FD11D68838F5F9581892383838B
S1133F801696ED91FC911797309711F0CD01199584
S1133F90FF91EF91DF91CF91BF91AF919F918F915D
S1133FA07F916F915F914F913F912F910F900BBE35
S1133FB00F900FBE0F901F9018951F920F920FB67F
S1133FC00F9211240BB60F922F938F939F93AF935D
S1133FD0BF93EF93FF93E0914512F091461230970F
S1133FE0B9F00280F381E02D938182819817B1F0BA
S1133FF092818581282F26952923A081B181A20F42
S1134000B11D2C919F5F892382832093CE000BC026
S1134010E9ECF0E080818F7D808305C0E9ECF0E07D
S113402080818F7D8083FF91EF91BF91AF919F91AC
S11340308F912F910F900BBE0F900FBE0F901F907A
S113404018951F920F920FB60F9211240BB60F9270
S11340502F933F934F935F936F937F938F939F938C
S1134060AF93BF93CF93DF93EF93FF93A091471246
S1134070B0914812109711F16091D6001496ED9109
S1134080FC911597938182812581981B92238481C9
S1134090981761F0838126952823C081D181C20FAE
S11340A0D11D68838F5F9581892383831696ED9153
S11340B0FC911797309711F0CD011995FF91EF916D
S11340C0DF91CF91BF91AF919F918F917F916F912C
S11340D05F914F913F912F910F900BBE0F900FBEA8
S11340E00F901F9018951F920F920FB60F921124E4
S11340F00BB60F922F938F939F93AF93BF93EF932E
S1134100FF93E0914712F09148123097B9F0028082
S1134110F381E02D938182819817B1F0928185819A
S1134120282F26952923A081B181A20FB11D2C919E
S11341309F5F892382832093D6000BC0E1EDF0E0DA
S113414080818F7D808305C0E1EDF0E080818F7DEB
S11341508083FF91EF91BF91AF919F918F912F91A8
S11341600F900BBE0F900FBE0F901F9018951F92CB
S11341700F920FB60F9211240BB60F922F933F9309
S11341804F935F936F937F938F939F93AF93BF935B
S1134190CF93DF93EF93FF93A0914912B0914A120A
S11341A0109711F1609136011496ED91FC911597D9
S11341B0938182812581981B92238481981761F0D1
S11341C0838126952823C081D181C20FD11D6883A4
S11341D08F5F9581892383831696ED91FC911797C0
S11341E0309711F0CD011995FF91EF91DF91CF91A7
S11341F0BF91AF919F918F917F916F915F914F91FB
S11342003F912F910F900BBE0F900FBE0F901F90F8
S113421018951F920F920FB60F9211240BB60F929E
S11342202F938F939F93AF93BF93EF93FF93E0915B
S11342304912F0914A123097B9F00280F381E02DCF
S1134240938182819817B1F092818581282F2695D8
S11342502923A081B181A20FB11D2C919F5F8923D5
S11342608283209336010BC0E1E3F1E080818F7DEE
S1134270808305C0E1E3F1E080818F7D8083FF913D
S1134280EF91BF91AF919F918F912F910F900BBEA2
S11342900F900FBE0F901F901895CF93DF931F922E
S11342A0CDB7DEB7BE016F5F7F4F80914B12909107
S11342B04C127BDD8111F6CF898190E00F90DF9164
S11342C0CF910895682F80914B1290914C12EDDCA0
S11342D080E090E008958F929F92AF92CF92EF92F8
S11342E00F93812C912C6894AA24A7F86894CC2469
S11342F0C7F8E12C00E023E040E051EE60E070E01C
S113430033DC90934C1280934B12E9E7F2E18FE097
S113431092E091838083938382830F91EF90CF9077
S1134320AF909F908F90089590E0FC01EE0FFF1FD7
S1134330E80FF91FEE0FFF1FE35BFD4E23812111F0
S11343401FC09C01220F331FF901E80FF91FEE0F64
S1134350FF1FE35BFD4EA081B1814C91F901E80F91
S1134360F91FEE0FFF1FE35BFD4E81E090E002803A
S113437002C0880F991F0A94E2F7842B8C93089546
S1134380FC01EE0FFF1FDF01A80FB91FAA0FBB1F0F
S1134390A35BBD4E0D90BC91A02D2C91E80FF91F8D
S11343A0EE0FFF1FE35BFD4E81E090E0028002C050
S11343B0880F991F0A94E2F7809582238C930895BD
S11343C090E0FC01EE0FFF1FE80FF91FEE0FFF1F37
S11343D0E35BFD4E2381211120C09C01220F331F7A
S11343E0F901E80FF91FEE0FFF1FE35BFD4EA081FB
S11343F0B1814C91F901E80FF91FEE0FFF1FE35B48
S1134400FD4E81E090E0028002C0880F991F0A945B
S1134410E2F7809584238C930895FC01EE0FFF1F2F
S1134420DF01A80FB91FAA0FBB1FA35BBD4E0D90E0
S1134430BC91A02D2C91E80FF91FEE0FFF1FE35B39
S1134440FD4E81E090E0028002C0880F991F0A941B
S1134450E2F7822B8C930895CC24C394D12C6894D6
S1134460BB24B2F8CDE4D2E110E08C81813081F03C
S113447018F1823061F5E881F9812081C6010A8052
S113448002C0880F991F0A94E2F7822780831FC015
S11344908D818F5F8A3010F48D8319C01D82E8816D
S11344A0F9812081C6010A8002C0880F991F0A94ED
S11344B0E2F7822780830BC00D81002329F0812F2E
S11344C07FDF01500D8303C0BC82812F2DDF1F5F6E
S11344D02696143051F665E070E080E090E00E948A
S11344E0150FC0CFEF92FF920F931F93CF93DF93DB
S11344F0082F80E487B9CDE4D2E10F2EF8E2EF2E45
S1134500F12CF02DF982E88286E08A831B8214E084
S11345101C8380E009DF80E887B9FF82EE8287E0B0
S1134520888719861A8781E0FFDE80E283BB84E3F3
S113453090E09D878C8785E08E871F86188B82E0AC
S1134540F3DE80E18093010182E091E09B8B8A8B12
S11345501C8B1D8A1E8B83E0E7DEE12CF12C20E00E
S113456030E040EC50E06EE776E08CE292E20E94AC
S1134570100CDF91CF911F910F91FF90EF90089550
S1134580CF93DF9390E0FC01EE0FFF1FDF01A80F34
S1134590B91FAA0FBB1FA35BBD4ECD91DC91119730
S11345A0488121E030E012960C90129702C0220F4D
S11345B0331F0A94E2F724272883FD0181E08483D2
S11345C0DF91CF910895CF93DF9390E0FC01EE0F3C
S11345D0FF1FDF01A80FB91FAA0FBB1FA35BBD4EAE
S11345E0CD91DC911197488121E030E012960C9036
S11345F0129702C0220F331F0A94E2F7242728835C
S1134600FD0182E08483DF91CF910895282F30E06B
S1134610F901EE0FFF1FE20FF31FEE0FFF1FE35B25
S1134620FD4E93E09483CCCE0895282F30E0F90119
S1134630EE0FFF1FE20FF31FEE0FFF1FE35BFD4EB4
S113464094E0948371CE089590E0FC01EE0FFF1F77
S1134650DF01A80FB91FAA0FBB1FA35BBD4E24E047
S113466015962C931597FD011482089590E0FC0192
S1134670EE0FFF1FDF01A80FB91FAA0FBB1FA35B1B
S1134680BD4E21E015962C931597FD0114820895D3
S11346901F920F920FB60F9211240BB60F922F9305
S11346A03F934F935F936F937F938F939F93AF93B6
S11346B0BF93EF93FF93E091B9008E2F90E0FC013C
S11346C03897E135F10508F075C08827E458FF4FA5
S11346D08F4FA1C210926512E09165128091681209
S11346E0E81770F481E08E0F80936512F0E0E759CB
S11346F0FD4E80818093BB0085E88093BC0072C02E
S113470084E98093BC008091661290916712DC0169
S11347101296ED91FC911397309709F463C020E051
S113472040E050E064E019955DC0E091651281E0DD
S11347308E0F809365128091BB00F0E0E759FD4E27
S113474080838091B900803411F410926512209115
S1134750651230E08091681290E0019728173907BC
S113476024F485EC8093BC003DC085E88093BC00B4
S113477039C08091BB00E0916512F0E0E759FD4E2D
S1134780808384E98093BC008091661290916712C3
S1134790DC011296ED91FC911397309719F1209159
S11347A0681249E652E165E019951CC085EA8093D8
S11347B0BC0018C08091B90080931D0284E08093EE
S11347C0BC008091661290916712DC011296ED9103
S11347D0FC911397309731F020E040E050E0609175
S11347E01D021995FF91EF91BF91AF919F918F9108
S11347F07F916F915F914F913F912F910F900BBEDD
S11348000F900FBE0F901F901895FC01411101C02D
S11348102BD3842F90E09C012150310982239323D0
S1134820892B09F021D3413808F01ED31282138258
S11348304483440F415045837183608380E090E05A
S113484008955058BB27AA270ED048C139D130F05B
S11348503ED120F031F49F3F11F41EF42EC10EF42A
S1134860E095E7FB24C1E92F4AD180F3BA17620728
S113487073078407950718F071F49EF562C10EF46E
S1134880E0950B2EBA2FA02D0B01B90190010C015C
S1134890CA01A0011124FF27591B99F0593F50F474
S11348A0503E68F11A16F040A22F232F342F4427CC
S11348B0585FF3CF469537952795A795F0405395C4
S11348C0C9F77EF41F16BA0B620B730B840BBAF094
S11348D09150A1F0FF0FBB1F661F771F881FC2F7FF
S11348E00EC0BA0F621F731F841F48F48795779513
S11348F06795B795F7959E3F08F0B3CF9395880FCA
S113490008F09927EE0F9795879508950CD0E6C087
S1134910DED040F0D5D030F021F45F3F19F0C7C0AD
S1134920511110C1CAC0EBD098F39923C9F3552390
S1134930B1F3951B550BBB27AA276217730784078E
S113494038F09F5F5F4F220F331F441FAA1FA9F344
S113495033D00E2E3AF0E0E830D091505040E69536
S1134960001CCAF729D0FE2F27D0660F771F881F97
S1134970BB1F261737074807AB07B0E809F0BB0B86
S1134980802DBF01FF2793585F4F2AF09E3F5105AA
S113499068F08DC0D7C05F3FECF3983EDCF386959A
S11349A077956795B795F7959F5FC9F7880F911D20
S11349B09695879597F90895E1E0660F771F881F0C
S11349C0BB1F621773078407BA0720F0621B730BBF
S11349D0840BBA0BEE1F88F7E095089598D088F001
S11349E09F5790F0B92F9927B751A0F0D1F0660FD7
S11349F0771F881F991F1AF0BA95C9F712C0B130F2
S1134A0081F09FD0B1E008959CC0672F782F88274C
S1134A10B85F39F0B93FCCF3869577956795B39530
S1134A20D9F73EF490958095709561957F4F8F4F9F
S1134A309F4F0895E89409C097FB3EF490958095A4
S1134A40709561957F4F8F4F9F4F9923A9F0F92F50
S1134A5096E9BB279395F695879577956795B795CE
S1134A60F111F8CFFAF4BB0F11F460FF1BC06F5FB4
S1134A707F4F8F4F9F4F16C0882311F096E911C0C6
S1134A80772321F09EE8872F762F05C0662371F0E7
S1134A9096E8862F70E060E02AF09A95660F771FFB
S1134AA0881FDAF7880F9695879597F9089597F9EF
S1134AB09F6780E870E060E008959FEF80EC0895C0
S1134AC000240A94161617061806090608950024E9
S1134AD00A9412161306140605060895092E039463
S1134AE0000C11F4882352F0BB0F40F4BF2B11F4D7
S1134AF060FF04C06F5F7F4F8F4F9F4F089557FD36
S1134B009058440F551F59F05F3F71F04795880F37
S1134B1097FB991F61F09F3F79F0879508951216CE
S1134B2013061406551FF2CF4695F1DF08C016167A
S1134B3017061806991FF1CF86957105610508942B
S1134B400895E894BB2766277727CB0197F9089542
S1134B500BD0C4CFB5DF28F0BADF18F0952309F0E5
S1134B60A6CFABCF1124EECFCADFA0F3959FD1F32C
S1134B70950F50E0551F629FF001729FBB27F00D07
S1134B80B11D639FAA27F00DB11DAA1F649F66275C
S1134B90B00DA11D661F829F2227B00DA11D621FAB
S1134BA0739FB00DA11D621F839FA00D611D221F65
S1134BB0749F3327A00D611D231F849F600D211D49
S1134BC0822F762F6A2F11249F5750408AF0E1F0EC
S1134BD088234AF0EE0FFF1FBB1F661F771F881F35
S1134BE091505040A9F79E3F510570F060CFAACF75
S1134BF05F3FECF3983EDCF3869577956795B79520
S1134C00F795E7959F5FC1F7FE2B880F911D969549
S1134C10879597F90895EE0FFF1F881F8BBF0790A4
S1134C20F691E02D19940F931F93CF93DF93823065
S1134C30910510F482E090E0E0917712F0917812FF
S1134C4020E030E0A0E0B0E0309719F140815181DC
S1134C500281138148175907C8F08417950769F42E
S1134C60109731F012960C93129713961C9327C049
S1134C70009377121093781222C02115310519F090
S1134C804217530718F49A01BD01EF01DF01F8013F
S1134C90DBCF21153105F9F0281B390B2430310500
S1134CA080F48A819B816115710521F0FB01938356
S1134CB0828304C09093781280937712FE01329617
S1134CC044C0FE01E20FF31F8193919322503109F6
S1134CD0398328833AC02091751230917612232BA0
S1134CE041F4209102023091030230937612209312
S1134CF0751220910002309101022115310541F411
S1134D002DB73EB74091040250910502241B350B88
S1134D10E0917512F0917612E217F307A0F42E1BBE
S1134D203F0B2817390778F0AC014E5F5F4F24170B
S1134D30350748F04E0F5F1F50937612409375125B
S1134D408193919302C0E0E0F0E0CF01DF91CF9135
S1134D501F910F910895CF93DF93009709F481C0B9
S1134D60FC01329713821282A0917712B0917812CB
S1134D70109781F420813181820F931F2091751245
S1134D80309176122817390751F5F0937612E09393
S1134D90751267C0ED0120E030E0CE17DF0740F464
S1134DA04A815B819E0141155105F1F0EA01F5CF7D
S1134DB0D383C28340815181840F951FC817D907BB
S1134DC059F488819981840F951F02969183808379
S1134DD08A819B81938382832115310529F4F09381
S1134DE07812E09377123DC0E901FB83EA8349918D
S1134DF05991C40FD51FEC17FD0761F4808191818F
S1134E00840F951F0296E901998388838281938197
S1134E109B838A83E0E0F0E012968D919C91139736
S1134E20009719F0FD01DC01F7CF8D919C9111974A
S1134E309D012E5F3F4F820F931F20917512309179
S1134E4076122817390769F4309729F410927812EA
S1134E501092771202C013821282B0937612A0933A
S1134E607512DF91CF91089581E090E0F8947DC3AD
S1134E70FB01DC0102C001900D9241505040D8F773
S1134E800895DC0101C06D9341505040E0F708954E
S1134E90FB0151915523B1F0BF01DC01052E4D9169
S1134EA0442369F010D0D9F7CD010190002049F0D6
S1134EB04D91411108D0C9F3FB014111EECF81E0BE
S1134EC090E001970895402539F0403229F44029B3
S1134ED04B57465E08F018940895FB01DC010D90D1
S1134EE00020E9F7119701900D920020E1F7089551
S1134EF0FB01DC0101900D920020E1F70895FB0114
S1134F00DC014150504088F08D9181341CF08B3588
S1134F100CF4805E619161341CF06B350CF4605EBE
S1134F20861B611171F3990B0895881BFCCFCF93F5
S1134F30DF93CDB7DEB7AE014A5F5F4FFA016191EF
S1134F407191AF0180917B1290917C1261D0DF91BD
S1134F50CF9108950F931F93CF93DF93E0917B122A
S1134F60F0917C12238121FF1BC08C01D0E0C0E0B2
S1134F70F80181918F0160917B1270917C12DB01A9
S1134F801896ED91FC911997882331F01995892B86
S1134F9079F3DFEFCFEFECCF8AE01995892B19F085
S1134FA08FEF9FEF02C08D2F9C2FDF91CF911F9128
S1134FB00F9108950F931F93CF93DF93CDB7DEB76F
S1134FC02E970FB6F894DEBF0FBECDBF0E891F8992
S1134FD086E08C831A8309838FEF9FE79E838D83FA
S1134FE0AE01465E5F4F688D798DCE01019610D07B
S1134FF0EF81F885E00FF11F10822E960FB6F8941A
S1135000DEBF0FBECDBFDF91CF911F910F910895E9
S11350102F923F924F925F926F927F928F929F92C4
S1135020AF92BF92CF92DF92EF92FF920F931F93B2
S1135030CF93DF93CDB7DEB72B970FB6F894DEBFCF
S11350400FBECDBF6C017B018A01FC011782168261
S1135050838181FFBFC1CE0101963C01F60193819A
S1135060F70193FD859193FF81917F01882309F4D2
S1135070ADC1853239F493FD859193FF81917F0110
S1135080853221F4B60190E0D6D1E8CF912C212CC1
S1135090312CFFE1F315D8F08B3279F038F48032FB
S11350A079F08332A1F4232D20611DC08D3261F08B
S11350B0803369F4232D216016C0832D8260382E3D
S11350C0E32DE4603E2E2AC0F32DF8601DC037FCAA
S11350D02DC020ED280F2A3040F08E32B9F436FC72
S11350E075C1232D2064322E19C036FE06C08AE015
S11350F0989E200D1124922E11C0EAE02E9E200DC0
S11351001124222EF32DF0623F2E08C08C3621F498
S1135110832D8068382E02C0883641F4F70193FD50
S1135120859193FF81917F018111B3CF982F9F7D4A
S11351309554933028F40C5F1F4F9FE399830DC05F
S1135140833631F0833771F0833509F055C020C0C0
S1135150F801808189830E5F1F4F88248394912CEA
S1135160530112C02801F2E04F0E511CF801A08037
S1135170B18036FE03C0692D70E002C06FEF7FEF8F
S1135180C5014ED14C018201F32DFF773F2E15C08E
S1135190280122E0420E511CF801A080B18036FEA5
S11351A003C0692D70E002C06FEF7FEFC5012DD100
S11351B04C01F32DF0683F2E820133FC19C0822D7F
S11351C090E088169906A0F4B60180E290E033D10D
S11351D02A94F5CFF50137FC859137FE81915F0163
S11351E0B60190E028D121102A9421E0821A910876
S11351F08114910479F7E1C0843611F0893639F5C8
S1135200F80137FE07C060817181828193810C5F50
S11352101F4F08C060817181072E000C880B990B09
S11352200E5F1F4FF32DFF763F2E97FF09C0909519
S11352308095709561957F4F8F4F9F4FF0683F2EFB
S11352402AE030E0A30133D1882E861844C0853784
S113525031F4232D2F7EB22E2AE030E025C0932D89
S1135260997FB92E8F36C1F018F4883579F0AEC025
S1135270803719F0883721F0A9C0E92FE061BE2EEC
S1135280B4FE0DC0FB2DF460BF2E09C034FE0AC06D
S1135290292F2660B22E06C028E030E005C020E1A8
S11352A030E002C020E132E0F801B7FE07C06081BF
S11352B07181828193810C5F1F4F06C0608171816F
S11352C080E090E00E5F1F4FA301F1D0882E861876
S11352D0FB2DFF773F2E36FE0DC0232D2E7FA22EF1
S11352E0891458F434FE0BC032FC09C0832D8E7E21
S11352F0A82E05C0B82CA32C03C0B82C01C0B92C0F
S1135300A4FE0FC0FE01E80DF11D8081803321F45D
S11353109A2D997EA92E09C0A2FE06C0B394B39417
S113532004C08A2D867809F0B394A3FC10C0A0FEB3
S113533006C0B21480F4280C922C9B180DC0B21431
S113534058F4B60180E290E076D0B394F8CFB2146A
S113535018F42B1802C0982C212CA4FE0FC0B601FF
S113536080E390E068D0A2FE16C0A1FC03C088E7E9
S113537090E002C088E590E0B6010CC08A2D8678E2
S113538051F0A1FE02C08BE201C080E2A7FC8DE2D5
S1135390B60190E050D0891430F4B60180E390E077
S11353A04AD09A94F8CF8A94F301E80DF11D8081D4
S11353B0B60190E040D08110F6CF222009F44ECE01
S11353C0B60180E290E037D02A94F7CFF6018681C7
S11353D0978102C08FEF9FEF2B960FB6F894DEBF34
S11353E00FBECDBFDF91CF911F910F91FF90EF9032
S11353F0DF90CF90BF90AF909F908F907F906F90F1
S11354005F904F903F902F900895FC01059061505C
S113541070400110D8F7809590958E0F9F1F0895C6
S1135420FC016150704001900110D8F7809590956F
S11354308E0F9F1F08950F931F93CF93DF93FB014C
S1135440238121FD03C08FEF9FEF2CC022FF16C0E4
S113545046815781248135814217530744F4A08142
S1135460B1819D012F5F3F4F318320838C9326812F
S113547037812F5F3F4F3783268314C08B01EC01A4
S1135480FB010084F185E02D1995892BE1F6D80103
S113549016968D919C911797019617969C938E93CF
S11354A01697CE01DF91CF911F910F910895FA01C4
S11354B0AA27283051F1203181F1E8946F936E7F4F
S11354C06E5F7F4F8F4F9F4FAF4FB1E03ED0B4E040
S11354D03CD0670F781F891F9A1FA11D680F791F81
S11354E08A1F911DA11D6A0F711D811D911DA11D92
S11354F020D009F468943F912AE0269F11243019A2
S1135500305D3193DEF6CF010895462F4770405D3C
S11355104193B3E00FD0C9F7F6CF462F4F70405DEB
S11355204A3318F0495D31FD4052419302D0A9F746
S1135530EACFB4E0A6959795879577956795BA9540
S1135540C9F700976105710508959B01AC010A2E06
S113555006945795479537952795BA95C9F7620FDD
S1115560731F841F951FA01D0895F894FFCF9C
S113556E00007F12200009C600CE00D600360100CE
S113557E0000030000000062214D210000F8A02766
S113558EBE33E034C1332042C43360E5AE33A0F2FF
S113559EB133E0FFB433200DB833601ABB33494442
S11355AE4C4500546D722053766300466163746FEC
S11355BE72795265736574203E25733C0A00436FFD
S11355CE6E66696775726520746F20455538363876
S11355DE203E25733C0A00476574204857455549BB
S11355EE203E25733C3A2025730A005365742044EB
S11355FE65764555493A202573203E25733C0A00AD
S113560E46413135463634303441443244373746D8
S113561E3837383531343430334337343232444406
S113562E00463244444532453832364445394241C7
S113563E3500536574204F544141204964656E749E
S113564E697479206170704555493A2573206170EB
S113565E704B45593A2573206465764555493A256C
S113566E73203E25733C0A0053617665206D616399
S113567E203E25733C0A00536574204164617074A6
S113568E697665204461746120526174653A204FD5
S113569E4E203E25733C0A005365742052656365A3
S11356AE697665722044656C61793A202564206DB3
S11356BE73203E25733C0A004A6F696E204E657452
S11356CE776F726B2054726965734C6566743A25F4
S11356DE64203E25733C0A0055706C6F6164204D46
S11356EE657373616765203E25733C0A004C52480E
S11356FE616E64005461736B31005461736B3200DC
S113570E50726F6772616D20537461727465642197
S113571E2100737973207265736574006D61632063
S113572E7061757365006D616320726573756D6567
S113573E0073797320666163746F727952455345B1
S113574E54007379732067657420687765756900F2
S113575E6D6163206765742067776E62006D6163A7
S113576E20736574206C696E6B63686B202564000E
S113577E6D61632073657420646576657569006D6B
S113578E61632073657420617070657569006D6165
S113579E6320736574206170706B6579006D61634D
S11357AE20736574206E776B736B6579006D61631E
S11357BE2073657420617070736B6579006D61631D
S11357CE207365742064657661646472006D616330
S11357DE2073617665006D6163206A6F696E007572
S11357EE6E636E66006D61632074782025732025C8
S11357FE64202573006F6666006D616320736574A3
S113580E20616472006D6163206765742061647247
S113581E006D616320736574206472202564006DCD
S113582E616320676574206472006D616320736523
S113583E7420727864656C617931202564006D6121
S113584E6320736574206172202573006D6163207B
S113585E676574206172003320383639353235303D
S113586E3030006D61632073657420727832006D80
S113587E61632073657420636820646379636C6567
S113588E20256420373939006D61632073657420D7
S113589E6368206672657120256420256C75006D21
S11358AE61632073657420636820647272616E672D
S11358BE6520256420302037006D61632073657484
S11358CE20636820737461747573202564206F6E71
S11358DE006D61632073657420707772696478203B
S11358EE31006D616320736574207265747820379E
S11358FE006F74616100616270004B4559535F4ED5
S113590E4F545F494E4954004E4F5F465245455FD2
S113591E43480053494C454E540042555359004D8B
S113592E41435F5041555345440044454E49454417
S113593E00414343455054454400494E56414C4959
S113594E445F504152414D004E4F545F4A4F494EB1
S113595E454400494E56414C49445F444154415FCD
S113596E4C454E004652414D455F434F554E5445AE
S113597E525F4552525F52454A4F494E5F4E45451E
S113598E444544004D41435F54585F4F4B004D41D5
S113599E435F5258004D41435F4552524F5200559A
S11359AE4E4B4E4F574E0091059605002B0601396E
S11359BE06029A0503A80504B30505BA0506BF0534
S11359CE07CA0508D10509DA050AE8050BF3050C23
S11359DE04060D24060E2E060F3506103F0648410A
S10959EE4C5F4C4544002F
S9030000FC
