S0100000534550345F494F542E73726563AD
S1130000E6C0000005C1000003C1000001C10000FA
S1130010FFC00000FDC00000FBC00000F9C00000EC
S1130020F7C00000F5C00000F3C00000F1C00000FC
S11300300C94F909EDC00000EBC00000E9C0000019
S1130040E7C00000E5C00000E3C00000E1C000001C
S1130050DFC00000DDC00000DBC00000D9C000002C
S1130060D7C000000C94902A0C94E22AD1C000005E
S1130070CFC00000CDC00000CBC00000C9C000004C
S1130080C7C00000C5C00000C3C00000C1C000005C
S11300900C94262B0C94782BBBC000000C94C42F1A
S11300A0B7C00000B5C00000B3C00000B1C000007C
S11300B0AFC00000ADC00000ABC00000A9C000008C
S11300C0A7C00000A5C00000A3C000000C94BC2B76
S11300D00C940E2C9DC000000C94522C0C94A42C57
S11300E097C00000D31FD31FD31F0A20122027203C
S11300F0D31FD31F0A201220E62F56305630563015
S11301005630563056305630E62F5630563056302C
S11301105630563056305630E82F5630563056301A
S1130120563056305630563056305630563056309B
S11301305630563056305630E82F563056305630FA
S1130140563056305630563056305630563056307B
S1130150563056305630563052305630563056306F
S113016056305630563056301D3056305630563094
S1130170563056305630563056305630563056304B
S11301805630563056305630113056305630563080
S1130190563056305630563035300E941412809105
S11301A0EA11823010F00E9433090E945020F5CFEA
S11301B0CF93DF931F92CDB7DEB7CE0101960E9495
S11301C0501D49810E94451F0E949C1FF6CF112497
S11301D01FBECFEFD1E2DEBFCDBF00E00CBF17E002
S11301E0A0E0B2E0E4EBFEE600E00BBF02C0079043
S11301F00D92A436B107D9F723E1A4E6B7E001C014
S11302001D92A73FB207E1F70E9432230C9458379E
S1130210F7CE2F923F924F925F926F927F928F927E
S11302209F92AF92BF92CF92DF92EF92FF920F9381
S11302301F93CF93DF93882E962E1A01280139013C
S1130240870184E090E00E94B632EC01009771F1DE
S1130250FC01119211927F0130926F0720926E0778
S113026040926A0750926B0760926C0770926D0718
S11302701093690700936807A0926407B09265071A
S1130280C0926607D092670783E00E94B528492D83
S113029050E048535F4F082D9E016FE672E082ECF8
S11302A091E00E94DB128C2F9D2F02C080E090E031
S11302B0DF91CF911F910F91FF90EF90DF90CF903E
S11302C0BF90AF909F908F907F906F905F904F9072
S11302D03F902F900895CF92DF92EF92FF920F9369
S11302E01F93CF93DF93EC0140916A0750916B0702
S11302F060916C0770916D07CC24CA94DC2C760154
S113030001E021E080916E0790916F0757D400912E
S11303106A0710916B0720916C0730916D07DC011F
S1130320CB0180239123A223B323081719072A079B
S11303303B07F9F40E94DA28182F6EE571E080E09B
S113034090E00E94E01589E792E00E944D3411117B
S113035003C0CE010E9409294091640750916507AA
S113036060916607709167078091680790916907AB
S1130370C5D4DF91CF911F910F91FF90EF90DF9043
S1130380CF900895EC01CE01A6DFFDCFFC01808162
S11303909181089582E090E00E94B632FC010097BA
S11303A041F01382128215821482118210829F2FCF
S11303B0089580E090E00895009749F09B01285C3F
S11303C031092934364218F4FC0173836283089599
S11303D0009739F0693E23E0720718F4FC01718339
S11303E060830895009749F09B0120573E4F273BB7
S11303F0334018F4FC01758364830895FC01DB0128
S113040081E0808386E0818314968C9114971596FD
S11304109C911597928383838C9111969C9111974B
S11304209483858312968C91129713969C9196834C
S11304308783CF01089521E0FC01208322E02183FA
S113044012821382089581E090E00E94B63221E086
S1130450892B09F420E02093730781E090E00E9447
S1130460B63281E080937307109272070E94EF0BFB
S1130470909371078093700708950F93CF93DF9340
S1130480209170073091710721153105B9F0EC0105
S11304904FEF5FEFBA01C9010E94C50C8091730749
S11304A0888300E020E030E0A90160E070E0809102
S11304B07007909171070E944B0B04C02091730741
S11304C0FC012083DF91CF910F9108950F93CF9377
S11304D0DF93209170073091710721153105B9F030
S11304E0EC014FEF5FEFBA01C9010E94C50C809186
S11304F07207888300E020E030E0A90160E070E04A
S113050080917007909171070E944B0B04C0209159
S11305107207FC012083DF91CF910F9108952F92F0
S11305203F924F925F926F927F928F929F92AF927F
S1130530BF92CF92DF92EF92FF920F931F93CF93CC
S1130540DF9300D01F92CDB7DEB7382E262E5C8302
S11305504B832801390188E090E00E94B6329A83E7
S11305608983009709F43FC0FC01918280828A8DBF
S11305709B8D938382830EDFE981FA819583848343
S11305808B819C8190939707809396074092920762
S1130590509293076092940770929507F092910796
S11305A0E0929007A0928C07B0928D07C0928E07BC
S11305B0D0928F078C8D9D8D90938B0780938A07A3
S11305C0422D50E048535F4F7F0196E0E90EF11C45
S11305D0032D9F016DE772E082E194E00E94DB123B
S11305E089819A8102C080E090E00F900F900F9073
S11305F00F90DF91CF911F910F91FF90EF90DF90BB
S1130600CF90BF90AF909F908F907F906F905F90AE
S11306104F903F902F900895AF92BF92CF92DF9268
S1130620EF92FF920F931F93CF93DF93CDB7DEB773
S113063066970FB6F894DEBF0FBECDBF5C0181E0B4
S113064090E05DD48C0119DFF8018081882309F4DE
S1130650B6C081E090E053D48C0138DFF80180818A
S1130660882311F020D101C023D1409192075091E9
S113067093076091940770919507809196079091E4
S113068097073CD340918C0750918D0760918E075A
S113069070918F07CC24CA94DC2C760101E021E010
S11306A0809190079091910789D200918C071091C5
S11306B08D0720918E0730918F07DC01CB018023B9
S11306C09123A223B323081719072A073B0709F02C
S11306D098C0F5018081918159DEBC01F5018481C6
S11306E095816ADEF50181818F9380818F9384E8FF
S11306F092E09F938F930E943A34F5018281938113
S11307000E945421BC01F501848195816BDEF501C1
S1130710828193810E945021BC01F50184819581DD
S113072057DEF5018081918131DE9F938F9387E8B5
S113073092E09F938F930E943A34F50182819381D2
S11307400E9454219F938F9383E992E09F938F9308
S11307500E943A34F501828193810E9450219F9333
S11307608F9387EA92E09F938F930E943A34F50126
S113077064817581CE01019641DE86E1FE013196E8
S1130780A4E7B7E001900D928A95E1F70FEF1FEF10
S1130790980146E150E064E777E080918A07909100
S11307A08B070E94370F60E375E780E090E00E94BA
S11307B0E0150FB6F894DEBF0FBECDBF22C0F50121
S11307C064817581CE01019636DE86E1FE013196A3
S11307D0A4E7B7E001900D928A95E1F70FEF1FEFC0
S11307E0980146E150E064E777E080918A079091B0
S11307F08B070E94370F60E375E780E090E00E946A
S1130800E01566960FB6F894DEBF0FBECDBFDF913C
S1130810CF911F910F91FF90EF90DF90CF90BF90F9
S1130820AF900895EC01CE01F7DEFDCF0F931F9337
S11308300FEF1FEF980146E150E068E977E00E946E
S11308404010E8E9F7E02181938182811F922F9380
S11308501F929F931F928F9388EB92E09F938F93A5
S11308600E943A348DB79EB708960FB6F8949EBF8F
S11308700FBE8DBF1F910F910895EF92FF920F93BA
S11308809A01E12CF12C082F48E851E069EE72E05E
S113089086E194E00E94DB120F91FF90EF9008959F
S11308A00C943229089564E681E00C941A29089581
S11308B06CE981E00C941A2908950F931F93CF9348
S11308C0DF93CDB7DEB764970FB6F894DEBF0FBEE3
S11308D0CDBF81E00E945B2E0E945C250E94D92737
S11308E09F938F9382EF92E09F938F930E943A3469
S11308F00E94DA260E94D9279F938F9385E093E084
S11309009F938F930E943A348E010F5F1F4FC8014B
S11309100E946E250E94D9271F930F939F938F9354
S11309208EE193E09F938F930E943A34C8010E9412
S11309308A250E94D9279F938F931F930F9382E355
S113094093E09F938F930E943A34A80167E473E085
S113095088E693E00E94B8270E94D9279F938F933B
S11309601F930F9387E493E09F938F9388E693E01C
S11309709F938F9389E793E09F938F930E943A34D8
S11309800E94BD250E94D9279F938F938FEA93E0FD
S11309909F938F930E943A340FB6F894DEBF0FBE34
S11309A0CDBF81E00E94B7260E94D9279F938F93E1
S11309B08EEB93E09F938F930E943A3484EF91E0FF
S11309C00E94C2260E94D9279F938F9381E08F9320
S11309D084EF8F938FED93E09F938F930E943A342B
S11309E00FB6F894DEBF0FBECDBF1AE080E00E94C0
S11309F0C325082F0E94D9279F938F931F921F937B
S1130A008FEF93E09F938F930E943A340F900F904F
S1130A100F900F900F900F90083059F080E00E94D3
S1130A20BF2E66E371E080E090E00E94E015115073
S1130A30E9F6083021F481E00E94A12E08C081E08B
S1130A400E94B02E80E00E947E2E0DD4FECF6496CC
S1130A500FB6F894DEBF0FBECDBFDF91CF911F91CB
S1130A600F910895CF93DF9300D01F92CDB7DEB7D7
S1130A707C018091AE07811118C081E00E944E254F
S1130A8062E070E080E090E00E94E01580E00E9467
S1130A904E2566E970E080E090E00E94E0150E9437
S1130AA007250BDF81E08093AE07EFEAF7E086E0ED
S1130AB0818382E0808300E010E0980142E050E00E
S1130AC0BF01C7010E9440100E94651369837A83A5
S1130AD08B839C8348EA58E460E070E0CE01019681
S1130AE00E947B15EFEAF7E080E3828389E3838346
S1130AF082E0848383EA858384E086838AE1878332
S1130B0083E00E94D12E6FEA77E080E00E94EC251A
S1130B100E94D9279F938F938FE194E09F938F93A3
S1130B200E943A340F900F900F900F90D3CFEF9212
S1130B30FF920F939A01E12CF12C082F48E851E021
S1130B4069EE72E082E395E00E94DB120F91FF9060
S1130B50EF9008950F9301110CC0DC01CB018223A7
S1130B609323A423B523892B8A2B8B2B79F480E040
S1130B7010C0DC01CB0182239323A423B5232817BF
S1130B8039074A075B0721F080E003C081E001C018
S1130B9081E00F910895CF93DF938FE090E0AFD180
S1130BA0EC01009739F0FC0111921192119211920B
S1130BB0CF018BD2CE01DF91CF9108952F923F9236
S1130BC04F925F926F927F928F929F92AF92BF9259
S1130BD0CF92DF92EF92FF920F931F93CF93DF9305
S1130BE0EC014A015B01622E702E0E945F13288083
S1130BF039804A805B80A5019401C201B101AADF5A
S1130C008823A1F0662089F1D501C40180959095CF
S1130C10A095B09582219321A421B521888399833D
S1130C20AA83BB83C12CD12C760122C0C114D10468
S1130C30E104F104E9F0611004C040E050E0BA01BD
S1130C4004C040E050E060E071E071107460482935
S1130C5059296A297B2997018601CE0104960E94AD
S1130C607716212C312C210103C0C12CD12C760103
S1130C700E949F14CD28CE28CF2859F1811101C09C
S1130C80F2D20E94391A6B017C0191FD1FC00FB68C
S1130C90F8940F92C880D980EA80FB80072DA501C3
S1130CA09401C701B60156DF882371F0662061F014
S1130CB080949094A094B0948C209D20AE20BF206A
S1130CC088829982AA82BB820F900FBE16012701E7
S1130CD05524C201B101DF91CF911F910F91FF9073
S1130CE0EF90DF90CF90BF90AF909F908F907F90C8
S1130CF06F905F904F903F902F9008954F925F9226
S1130D006F927F92AF92BF92CF92DF92EF92FF9257
S1130D100F931F93CF93DF93EC016A017B018C0146
S1130D20095F1F4F0E945F13EB85FC8588819981C1
S1130D30AA81BB81C82AD92AEA2AFB2AC882D98275
S1130D40EA82FB82C12CD12C76013DC0A480B580FF
S1130D5080819181A281B381AC01BD017727B2FD6D
S1130D600EC0488059806A807B80442255226622C6
S1130D70772245284628472889F420E012C0488075
S1130D8059806A807B80442255226622772244154A
S1130D9055056605770521F020E003C021E001C078
S1130DA021E0222371F0B0FF04C0C42AD52AE62A28
S1130DB0F72A488159816A817B817260CF010E9440
S1130DC0B217EA2DFB2DE017F10709F0BFCFC0944D
S1130DD0D094E094F09488819981AA81BB81C8223F
S1130DE0D922EA22FB22C882D982EA82FB820E94AB
S1130DF09F14688179818A819B81DF91CF911F91B2
S1130E000F91FF90EF90DF90CF90BF90AF907F90C5
S1130E106F905F904F900895E1EDF7E0A5EDB7E096
S1130E20B183A08313821282E5E9F1E1F093D00744
S1130E30E093CF07138212821182108280EC99E032
S1130E4013969C938E931297ED93FC939093CC07F7
S1130E508093CB079093CE078093CD0780E090E8F2
S1130E609093C6078093C5070895CF93DF93EC0151
S1130E70A1EDB7E001C0DF01ED91FC911197EC17F2
S1130E80FD07C8F312968D919C9113979D01280F2D
S1130E90391FC217D30749F42A813B81820F931F5C
S1130EA013969C938E931297ED018A819B819E01E8
S1130EB0280F391FE217F307C1F42091CF073091AF
S1130EC0D007E217F30771F022813381820F931F59
S1130ED09B838A83ED91FC91119780819181998301
S1130EE0888305C03983288302C0F983E883CA173D
S1130EF0DB0711F0CD93DC93DF91CF910895EF924E
S1130F00FF920F931F93CF93DF938C010E945F1383
S1130F108091CF079091D007892B09F47DDF8091D0
S1130F20C5079091C60780239123892B09F076C0C9
S1130F300115110549F0C80104960817190718F09E
S1130F4000E010E001C08C010115110509F469C02D
S1130F508091CD079091CE078017910708F464C063
S1130F60C091D107D091D207E1EDF7E002C0FE01B4
S1130F70EC018A819B818017910720F488819981F3
S1130F800097A9F78091CF079091D007C817D90788
S1130F9009F44DC0E080F18084E0E80EF11C888102
S1130FA09981918380832A813B81201B310B2930D5
S1130FB0310548F0CE01800F911FFC013383228359
S1130FC01B830A8352DF2A813B818091CD07909154
S1130FD0CE07821B930B9093CE078093CD0740914D
S1130FE0CB075091CC078417950720F49093CC0736
S1130FF08093CB078091C5079091C607282B392B86
S11310003B832A83198218828091C9079091CA0769
S113101001969093CA078093C9070BC0E12CF12C69
S113102008C0E12CF12C05C0E12CF12C02C0E12C0C
S1131030F12C0E949F14E114F10411F40E945C202D
S1131040C701DF91CF911F910F91FF90EF90089509
S11310500F931F93CF93DF93009791F1EC012497A3
S11310604A815B812091C5073091C607BA0162238A
S11310707323672B29F168817981672B09F5209502
S11310803095242335233B832A830E945F138A816E
S11310909B812091CD073091CE07820F931F9093AF
S11310A0CE078093CD07CE01E0DE8091C7079091F3
S11310B0C80701969093C8078093C7070E949F149E
S11310C0DF91CF911F910F910895FC0103969283B4
S11310D081834FEF5FEFBA01438354836583768343
S11310E0908787839287818710820895FC011386F5
S11310F0128608950F931F93CF93DF93EB0108811A
S113110019812A813B810F3F4FEF140724073407CD
S113111021F4FC01A185B28511C0DC01139601C044
S1131120DF011496ED91FC91159740815181628104
S11311307381041715072607370790F71496ED9166
S1131140FC911597FD83EC83D783C683BF83AE835D
S11311501596DC93CE9314979B878A87FC01208194
S11311602F5F2083DF91CF911F910F910895CF932B
S1131170DF93FC01A285B385C481D58186819781E3
S11311809F838E83C681D781848195819D838C833F
S113119011968D919C911297E817F90731F4868185
S11311A0978112969C938E931197138612868C9135
S11311B081508C938C91DF91CF910895A89590ECF8
S11311C088E10FB6F894A895809360000FBE9093C1
S11311D060000895FC016083319770833197108219
S11311E031971082319720E820833197108231970C
S11311F01082319710827797408331975083869776
S11312000895DCDFA0915812B0915912CD91CDBF51
S1131210DD91DEBFFF91EF91DF91CF91BF91AF914F
S11312209F918F917F916F915F914F913F912F91FA
S11312301F910F91FF90EF90DF90CF90BF90AF90F0
S11312409F908F907F906F905F904F903F902F90E2
S11312501F900F900CBE0F900BBE0F900FBE0F90FF
S1131260089581E008950F920FB6F8940F920BB68B
S11312700F920CB60F921F9211242F923F924F920D
S11312805F926F927F928F929F92AF92BF92CF9212
S1131290DF92EF92FF920F931F932F933F934F93FD
S11312A05F936F937F938F939F93AF93BF93CF93EA
S11312B0DF93EF93FF93A0915812B09159120DB69A
S11312C00D920EB60D920E94FB15A0915812B0918A
S11312D05912CD91CDBFDD91DEBFFF91EF91DF912A
S11312E0CF91BF91AF919F918F917F916F915F91BA
S11312F04F913F912F911F910F91FF90EF90DF90AD
S1131300CF90BF90AF909F908F907F906F905F90A1
S11313104F903F902F901F900F900CBE0F900BBEDC
S11313200F900FBE0F9008950F920FB6F8940F927E
S11313300BB60F920CB60F921F9211242F923F926C
S11313404F925F926F927F928F929F92AF92BF92D1
S1131350CF92DF92EF92FF920F931F932F933F93BD
S11313604F935F936F937F938F939F93AF93BF93A9
S1131370CF93DF93EF93FF93A0915812B09159123A
S11313800DB60D920EB60D9213BE0E947313811109
S11313900E94FB15A0915812B0915912CD91CDBF66
S11313A0DD91DEBFFF91EF91DF91CF91BF91AF91BE
S11313B09F918F917F916F915F914F913F912F9169
S11313C01F910F91FF90EF90DF90CF90BF90AF905F
S11313D09F908F907F906F905F904F903F902F9051
S11313E01F900F900CBE0F900BBE0F900FBE0F906E
S11313F008959ADF1895DC0153962C915397222374
S113140041F05A96ED91FC915B9790818AE0891B9B
S1131410089580E008950FB6F8940F92FC01868D2C
S1131420811102C081E001C080E00F900FBE0895D9
S11314300FB6F8940F92FC01268D878D281302C0F5
S113144081E001C080E00F900FBE08950F931F93B9
S1131450CF93DF93EC01042F1E8D48A141110CC0E2
S113146088819981892B09F042C08C819D810E94D9
S113147077191D821C8242C0011117C050E08A8175
S11314809B810E94DB3328A18A819B81820F911D5D
S11314909B838A832C813D818217930750F1888135
S11314A099819B838A8380E029C050E08E819F814B
S11314B00E94DB3388A190E09195819591092E815A
S11314C03F81280F391F3F832E8348815981241778
S11314D0350730F42C813D81820F931F9F838E83C7
S11314E0023049F4112349F0115080E007C080E034
S11314F005C080E003C080E001C080E01F5F1E8F54
S1131500DF91CF911F910F910895FC0140A14423D5
S1131510A9F050E026813781240F351F37832683B5
S1131520848195812817390720F0808191819783E0
S11315308683CB01668177810C94DB3308951F93F6
S1131540CF93DF93EC010FB6F8940F921AA10BC05E
S11315508B89882351F0CE0143960E940317811191
S11315600E94D918115011169CF38FEF8AA30F9083
S11315700FBE0FB6F8940F9219A10BC0888588236B
S113158051F0CE0108960E94031781110E94D918C8
S1131590115011169CF38FEF89A30F900FBEDF91AA
S11315A0CF911F910895CF93DF93EC010FB6F89478
S11315B00F92E881F9818F8D28A190E030E0829F1D
S11315C0A001839F500D929F500D11244E0F5F1F59
S11315D05D834C831E8EFB83EA830197289FA001C1
S11315E0299F500D389F500D1124CF01840F951F52
S11315F09F838E838FEF89A38AA361110BC0888593
S1131600882371F0CE0108960E940317882341F0C5
S11316102ADE06C0CE01089658DDCE01439655DD7C
S11316200F900FBE81E0DF91CF9108950F931F9328
S1131630F801611103C01183008302C05183408308
S1131640878F60A361E0CF01AEDF1F910F910895F2
S1131650DF92EF92FF920F931F93CF93DF93F82EB5
S1131660E62ED42E869FC0011124839648DCEC011B
S1131670009741F08C012D2DAC014D5D5F4F6E2D17
S11316808F2DD4DFCE01DF91CF911F910F91FF9069
S1131690EF90DF900895CF92DF92EF92FF920F9335
S11316A01F93CF93DF93CDB7DEB729970FB6F89486
S11316B0DEBF0FBECDBF7C016B012E833F83488705
S11316C0598710E00FB6F8940F92F701968D878D25
S11316D0981710F00230B1F4402FB601C701B6DEFE
S11316E0F7019389992341F0C70143960E94031798
S11316F0882321F0B8DD02C08111B5DD0F900FBE43
S113170081E04CC08E819F81A885B985892B8A2B65
S11317108B2B21F40F900FBE80E040C0111105C047
S1131720CE0101960E94621811E00F900FBEC7D738
S11317300FB6F8940F92F70181A18F3F09F411A21B
S1131740F70182A18F3F09F412A20F900FBEBE01D0
S11317506A5F7F4FCE0101960E947318811119C0F0
S1131760C70166DE882381F04E815F8168857985B3
S1131770C70108960E946016C701E1DE0E949F140B
S11317808111A0CF70DD9ECFC701D9DE0E949F14C6
S113179099CFC701D4DE0E949F1480E029960FB62A
S11317A0F894DEBF0FBECDBFDF91CF911F910F9193
S11317B0FF90EF90DF90CF9008950F93009769F01A
S11317C0FC011582148211821082168200E020E04E
S11317D030E0A90160E070E05EDF0F910895CF93DF
S11317E0DF93482F60E081E033DFEC01E6DFCE01D8
S11317F0DF91CF910895EF92FF920F931F93CF93B0
S1131800DF938A01FC01568D378D531710F0223077
S1131810F9F4422F7801EC011AA18E8DCE0116DE67
S11318201F3F81F48B898823A9F0CE0143960E943F
S11318300317882389F0E114F10481F081E0F701B2
S113184080830DC0FF24F394F10EFAA281E007C057
S113185080E005C081E003C081E001C081E0DF9148
S1131860CF911F910F91FF90EF900895CF92DF9247
S1131870EF92FF920F931F93CF93DF93CDB7DEB711
S113188029970FB6F894DEBF0FBECDBF8C016B0154
S11318902E833F8348875987E12C0FB6F8940F9223
S11318A0F801F68CFF2099F0B601C8012EDEFA94F7
S11318B0F801F68E8085882331F0C80108960E94CD
S11318C003178111D0DC0F900FBE81E04FC08E81D1
S11318D09F81A885B985892B8A2B8B2B21F40F90A6
S11318E00FBE80E043C0E11006C0CE0101960E9405
S11318F06218EE24E3940F900FBEE1D60FB6F8946D
S11319000F92F80181A18F3F09F411A2F80182A17D
S11319108F3F09F412A20F900FBEBE016A5F7F4F82
S1131920CE0101960E947318811117C0C80173DD9E
S1131930882379F04E815F8168857985C801439653
S11319400E946016C801FBDDFAD78111A6CF8BDC9B
S1131950A4CFC801F4DDF3D7A0CFC801F0DDEFD7E1
S1131960C80159DD882309F498CF80E029960FB681
S1131970F894DEBF0FBECDBFDF91CF911F910F91C1
S1131980FF90EF90DF90CF900895EF92FF920F9326
S11319901F93CF93DF93CDB7DEB729970FB6F89493
S11319A0DEBF0FBECDBF8C014E835F83688779870E
S11319B0E12CF12C0FB6F8940F92F801868D882350
S11319C0C9F08150868F80819181892B29F40E94EE
S11319D0631AF80195838483F8018085882331F0A4
S11319E0C80108960E94031781113DDC0F900FBEB9
S11319F081E06FC08E819F81A885B985892B8A2B50
S1131A008B2B21F40F900FBE80E063C0F11006C051
S1131A10CE0101960E946218FF24F3940F900FBE2A
S1131A204ED60FB6F8940F92F80181A18F3F09F4B6
S1131A3011A2F80182A18F3F09F412A20F900FBEE8
S1131A40BE016A5F7F4FCE0101960E947318811117
S1131A5026C0C801E0DC8823F1F0F801808191817F
S1131A60892B51F40FB6F8940F92848195810E94CA
S1131A70F018E82E0F900FBE4E815F81688579853E
S1131A80C80143960E946016C80159DD58D78111D8
S1131A9091CFE9DB8FCFC80152DD51D78BCFC8017D
S1131AA04EDD4DD7C801B7DC882309F483CFEE207F
S1131AB079F00FB6F8940F92C8019DDC682FF801F5
S1131AC0848195810E94D2190F900FBE80E001C0DD
S1131AD080E029960FB6F894DEBF0FBECDBFDF912C
S1131AE0CF911F910F91FF90EF900895CF93DF93C3
S1131AF0EC010FB6F8940F9289A18F3F09F419A253
S1131B008AA18F3F09F41AA20F900FBE8E8D811106
S1131B1004C0CE0143960E94C116CE0110DDDF91B0
S1131B20CF910895FC014481558122813381240F92
S1131B30351F80819181B901681B790BCB01641732
S1131B40750710F0841B950B08950F93FC018FE02B
S1131B50DF011D928A95E9F775876487558344836D
S1131B603783268306870F910895AF92BF92CF9251
S1131B70DF92EF92FF920F931F93CF93DF936C0149
S1131B805B017A01FC01C281D381048115810C1BA4
S1131B901D0B4017510708F48A01F60184859585C9
S1131BA0A801B5018C0F9D1F0E94DB330E151F0584
S1131BB058F4A701401B510BB501600F711FF601CA
S1131BC0848595850E94DB33CE018E0D9F1DF60121
S1131BD0248135818217930710F0821B930BF60141
S1131BE093838283C701DF91CF911F910F91FF905F
S1131BF0EF90DF90CF90BF90AF900895CF92DF9297
S1131C00EF92FF920F931F93CF93DF931F921F9234
S1131C10CDB7DEB77C016B015A83498321153105A9
S1131C20C1F0FC01868580FD08C04217530708F403
S1131C309A013A83298381E00FC02017310758F0B5
S1131C4042E050E0BE016F5F7F4FC7018EDF81E04D
S1131C5003C080E001C080E0882331F049815A81CB
S1131C60B601C70182DF02C080E090E00F900F90C0
S1131C70DF91CF911F910F91FF90EF90DF90CF9064
S1131C800895AF92BF92CF92DF92EF92FF920F939B
S1131C901F93CF93DF937C015B01E9014217530744
S1131CA008F4EA01209781F1F70100811181848110
S1131CB09581801B910B6E018C179D0708F46C01B4
S1131CC0F70164857585600F711FA601C5010E9427
S1131CD0DB33CC16DD0658F4AE014C195D09F7016F
S1131CE064857585C5018C0D9D1D0E94DB330C0F29
S1131CF01D1FF701848195810817190710F0081B2F
S1131D00190BF70111830083CE01DF91CF911F914D
S1131D100F91FF90EF90DF90CF90BF90AF90089518
S1131D206F927F928F929F92AF92BF92CF92DF92E7
S1131D30EF92FF920F931F93CF93DF931F921F9203
S1131D40CDB7DEB76C014B015A01790101151105BC
S1131D50B1F0FC0160807180A801BE016F5F7F4F0C
S1131D6090DF89819A81E01AF10AA816B90630F445
S1131D70F60171826082A12CB12C01C05C01970133
S1131D80A501B401C6017DDF0F900F90DF91CF91C3
S1131D901F910F91FF90EF90DF90CF90BF90AF9085
S1131DA09F908F907F906F900895CF92DF92EF92E3
S1131DB0FF920F93CF93DF93EC016B01413011F449
S1131DC001E001C000E0C114D10419F4CC24C3948F
S1131DD0D12CCE014096C817D90720F421968FD86C
S1131DE07C0102C0E12CF12CE114F10439F09601DC
S1131DF0AE01B701615F7F4FC701A7DEC701DF9165
S1131E00CF910F91FF90EF90DF90CF9008950F93B3
S1131E100FB6F8940F92FC0120853185232B71F4C1
S1131E2022853385232B61F42681378144815581B2
S1131E3064857585068589DE81E003C080E001C084
S1131E4080E00F900FBE0F910895FC01248135812D
S1131E5080819181820F931F42815381841B950B52
S1131E6001978217930710F0821B930B08952F920A
S1131E703F924F925F926F927F928F929F92AF9216
S1131E80BF92CF92DF92EF92FF920F931F93CF9363
S1131E90DF93CDB7DEB72B970FB6F894DEBF0FBE36
S1131EA0CDBF4C017B876A871A010E831F83288765
S1131EB03987FC01848195810197268520FF0CC018
S1131EC02A01F2E04F0E511C8415950558F41E8228
S1131ED01F821886198606C08417950710F02A01F8
S1131EE001C02C018E819F81A885B985892B8A2BFD
S1131EF08B2B09F438C0CE0101960E944C180FB602
S1131F00F8940F92C401A1DF3C018415950540F5B6
S1131F1060E080E090E00E94361D0E94DD18F4012C
S1131F20938782870F900FBEAE80BF80C884D98408
S1131F30E12CF12C00E010E0980140E050E0BA01FF
S1131F4080E00E94751AF40113861286BE016A5F4E
S1131F507F4FCE0101960E947318882381F205C039
S1131F600F900FBE02C0612C712C6114710419F41E
S1131F70C4016BDF3C0182019301A1016A857B8569
S1131F80C4013CDE6C01892BE9F0C401CBDDF40112
S1131F902681378182179307A8F091D3F4018085B5
S1131FA09185892B71F080859185E12CF12C00E0DD
S1131FB020E030E0A90160E00E941D1BF4011186BD
S1131FC01086BDD4C6012B960FB6F894DEBF0FBEA3
S1131FD0CDBFDF91CF911F910F91FF90EF90DF90D4
S1131FE0CF90BF90AF909F908F907F906F905F90B5
S1131FF04F903F902F900895AF92BF92CF92DF926F
S1132000EF92FF920F931F93CF93DF93EC017B0129
S11320105A0169018E8580FF04C08A010E5F1F4F3B
S113202001C08A01CE0111DF9C01A501B701CE01D7
S1132030E5DD5C01892BC1F0CE0174DD2E813F8189
S11320408217930788F088859985892B69F088859C
S11320509985E12CF12C00E020E030E0A90160E05A
S11320600E94141C19861886C501DF91CF911F9117
S11320700F91FF90EF90DF90CF90BF90AF900895B5
S11320804F925F926F927F928F929F92AF92BF9284
S1132090CF92DF92EF92FF920F931F93CF93DF9330
S11320A0EC012B013A01580169018E8580FF05C0BE
S11320B06894882481F8912C02C0812C912CA1145D
S11320C0B104C104D10441F10FB6F8940F92CE01CA
S11320D029DD7C018816990648F060E080E090E0F4
S11320E00E94361D0E94DD18998788870F900FBEC5
S11320F08E149F04A0F0E12CF12C00E010E0980174
S113210040E050E0BA0180E00E94751A19861886F2
S1132110CE0108DD7C0103C0CE0104DD7C018E14F8
S11321209F04E8F484019701A301B201CE01F8DD14
S11321306C01892BB1F0C3D28A859B85892B69F008
S11321408A859B85E12CF12C00E020E030E0A90198
S113215060E00E941D1B1B861A86F1D302C0C12CAD
S1132160D12CC601DF91CF911F910F91FF90EF9079
S1132170DF90CF90BF90AF909F908F907F906F90A3
S11321805F904F900895E091D211F091D311808126
S113219081110CC08FEF9FEFDC0180939C11909311
S11321A09D11A0939E11B0939F110895E091D211B7
S11321B0F091D3110780F085E02D80819181A28177
S11321C0B38180939C1190939D11A0939E11B09321
S11321D09F110895CF93DF93EC018B8D9C8D0E940A
S11321E02808CE010E942808DF91CF9108954F92CC
S11321F05F926F927F928F929F92AF92BF92CF9293
S1132200DF92EF92FF920F93CF93DF932C015B0148
S11322104A013901E60165EA70E08B8D9C8D0E94CC
S1132220E4338B8D9C8D21E0821A9108880E991ECF
S1132230A114B10489F415C0822F90E0F501E80FD0
S1132240F91F3081DE01A80FB91F5D963C93808190
S1132250882329F02F5F01C020E0203168F31CA6F9
S113226001C01D8E0A3008F009E00A8F0DA71EA6D2
S1132270CE0102960E947608CE010E960E94760840
S1132280DB87CA878AE090E0A0E0B0E0801B910978
S1132290A109B1098E879F87A88BB98BDF8BCE8B61
S11322A084E0FE01BF96DF011D928A95E9F71BAA1F
S11322B0A301B201C4010E94EA0899838883E1144E
S11322C0F10419F0F701D183C083DF91CF910F910D
S11322D0FF90EF90DF90CF90BF90AF909F908F9042
S11322E07F906F905F904F900895CF93C0E009C0A6
S11322F02BE0C29FC001112486519E4E0E946508A6
S1132300CF5FCA30A8F38FED91E10E94650884ED98
S113231091E10E94650885EC91E10E9465088AEBD1
S113232091E10E9465088EEA91E10E9465088FEDB3
S113233091E19093D3118093D21184ED91E1909324
S1132340D1118093D011CF910895CF93DF93EC01F5
S11323500FB6F8940F928091AD118F5F8093AD11F9
S11323608091581290915912892B51F4D09359129B
S1132370C09358128091AD11813091F4B6DF10C032
S11323808091A71181110CC0E0915812F09159125B
S1132390928D8A8D891720F0D0935912C0935812C8
S11323A08091A0118F5F8093A011EA8D8091A81174
S11323B08E1710F4E093A8118BE08E9FF001112486
S11323C0E651FE4E0180F281E02DFF83EE832681EB
S11323D0378139872887A681B7819E012E5F3F4FB9
S11323E015963C932E93149737832683EA8D8E9FFC
S11323F0F0011124E651FE4EFD87EC8780818F5F4A
S113240080830F900FBE8091A711882351F0E09133
S11324105812F0915912928D8A8D981710F40E94D7
S11324203309DF91CF910895CF93DF931BC00FB68B
S1132430F8940F92E091C111F091C211C085D18539
S1132440CE0102960E94B7088091AD11815080930D
S1132450AD118091B91181508093B9110F900FBEC5
S1132460CE01B8DE8091B9118111E1CFDF91CF9116
S113247008958F929F92AF92BF92CF92DF92EF9284
S1132480FF92CF93DF936B017C01C42F8090A9113D
S11324909090AA11A090AB11B090AC1180915812F9
S11324A09091591202960E94B7088FEFC816D80669
S11324B0E806F806B1F5CC23A1F1EEEAF1E1A18139
S11324C0B281C0915812D0915912BF83AE83C0918A
S11324D05812D091591216968D919C9117979987FD
S11324E088871696CD91DC91179780915812909118
S11324F0591202969D838C8380915812909159129F
S1132500029617969C938E931697A0915812B091A9
S113251059121D96FC93EE931C9780818F5F8083E4
S11325203FC0C80CD91CEA1CFB1CE0915812F09166
S11325305912C282D382E482F582C814D904EA040F
S1132540FB0468F460915812709159128091D01173
S11325509091D1116E5F7F4F0E947A0821C06091E3
S11325605812709159128091D2119091D3116E5FCB
S11325707F4F0E947A0880919C1190919D11A091A7
S11325809E11B0919F11C816D906EA06FB0640F4C5
S1132590C0929C11D0929D11E0929E11F0929F11D5
S11325A0DF91CF91FF90EF90DF90CF90BF90AF90ED
S11325B09F908F9008952F923F924F925F926F92C7
S11325C07F928F929F92AF92BF92CF92DF92EF92BF
S11325D0FF920F93CF93DF933C011B014A01290122
S11325E0CA010E947F076C01892B71F084E390E09B
S11325F00E947F07EC01892B19F0DC8ECB8E06C07C
S1132600C6010E94280802C0C0E0D0E0209761F013
S1132610A12CB12C6E019201A401B101C301E7DD2B
S1132620CE0193DE81E001C08FEFDF91CF910F9156
S1132630FF90EF90DF90CF90BF90AF909F908F90DE
S11326407F906F905F904F903F902F900895EF92FE
S1132650FF920F930F2EFAE9EF2EF1E1FF2EF02DEA
S113266000E020E030E040EC50E064E374E08DEC06
S113267090E0A1DF813011F40E94DA1D8130C9F4A9
S1132680F8948FEF9FEFDC0180939C1190939D1140
S1132690A0939E11B0939F1181E08093A711109293
S11326A0A9111092AA111092AB111092AC110E94B0
S11326B00109809106020F91FF90EF900895809197
S11326C099118F5F8093991108950FB6F8940F9222
S11326D06091A9117091AA118091AB119091AC11E4
S11326E00F900FBE0895CF92DF92EF92FF92CF9397
S11326F0DF9380919911811105C1C090A911D090E7
S1132700AA11E090AB11F090AC118FEFC81AD80A5F
S1132710E80AF80AC092A911D092AA11E092AB116A
S1132720F092AC11C114D104E104F104B1F480912C
S1132730D2119091D3112091D0113091D1113093B5
S1132740D3112093D2119093D1118093D011809101
S1132750A1118F5F8093A11116DD80919C1190913E
S11327609D11A0919E11B0919F11C816D906EA0639
S1132770FB0620F480E0B2C081E001C080E0E0917B
S1132780D211F091D311908191110CC04FEF5FEFF2
S1132790BA0140939C1150939D1160939E117093C4
S11327A09F119CC0E091D211F091D3110780F08564
S11327B0E02D0084F185E02D42815381648175818F
S11327C0C416D506E606F70648F440939C115093C8
S11327D09D1160939E1170939F1180C0A485B5854F
S11327E0C681D781208531853F832E83C085D185DD
S11327F0268137813D832C8311964D915C911297EC
S11328009F012E5F3F4F4217530731F44085518596
S113281012965C934E931197158614869C91915051
S11328209C93A08DB18D109709F1C289D3894489F5
S113283055895F834E83C489D589428953895D83D1
S11328404C8311966D917C911297AF01425F5F4F5B
S11328506417750731F44489558912965C934E9335
S11328601197118E108E9C9191509C93A28D9091F2
S1132870A8119A1710F4A093A8119BE09A9FD00175
S11328801124A651BE4E11960D90BC91A02DB78374
S1132890A68316964D915C9117975187408716969B
S11328A0CD91DC9117973D832C8317963C932E93FF
S11328B01697A28D9A9FD0011124A651BE4EB587BA
S11328C0A4879C919F5F9C93228DE0915812F09174
S11328D05912928D291708F04FCF51CFE091581219
S11328E0F0915912E28D9BE0E99FF0011124E65129
S11328F0FE4E9081923008F081E09091A2119111E6
S113290016C016C08091A3119091A411A091A51195
S1132910B091A6110196A11DB11D8093A3119093AE
S1132920A411A093A511B093A61180E001C081E089
S1132930DF91CF91FF90EF90DF90CF900895CF92E9
S1132940DF92EF92FF92CF93DF930FB6F8940F923A
S113295080919911815080939911809199118111DD
S1132960BEC08091AD11811188C0BCC0E091CC1172
S1132970F091CD110084F185E02DA08DB18DC28937
S1132980D389848995899F838E83C489D5898289D3
S113299093899D838C8311962D913C911297CF013D
S11329A00E962817390731F48489958912969C93D9
S11329B08E931197118E108E8C9181508C93A485D7
S11329C0B585C681D781808591859F838E83C08597
S11329D0D185868197819D838C8311968D919C915D
S11329E012979F012E5F3F4F8217930731F4808522
S11329F0918512969C938E931197158614868C91CB
S1132A0081508C93A28D8091A8118A1710F4A09301
S1132A10A8118BE08A9FD0011124A651BE4E1196B5
S1132A200D90BC91A02DB783A68316964D915C9111
S1132A301797518740871696CD91DC9117973D8360
S1132A402C8317963C932E931697A28D8A9FD001C0
S1132A501124A651BE4EB587A4878C918F5F8C93A9
S1132A60928DA0915812B09159125A968C91981740
S1132A7030F081E08093A21102C0E0E0F0E08091A8
S1132A80C511811173CFEF2B09F07DDBC090A31129
S1132A90D090A411E090A511F090A611C114D10416
S1132AA0E104F104A1F01FDE882319F081E0809392
S1132AB0A21181E0C81AD108E108F108A1F7109227
S1132AC0A3111092A4111092A5111092A611809135
S1132AD0A211882331F00E94330981E003C080E011
S1132AE001C080E00F900FBEDF91CF91FF90EF9077
S1132AF0DF90CF9008958F929F92AF92BF92CF9222
S1132B00DF92EF92FF921F93CF93DF93EC016A0160
S1132B107B01D5DD8090A9119090AA11A090AB11F2
S1132B20B090AC1188819981AA81BB81AC01BD01AF
S1132B304C0D5D1D6E1D7F1D88169906AA06BB06E9
S1132B4060F4481759076A077B0798F484169506BA
S1132B50A606B70680F010E013C0481759076A07A5
S1132B607B0758F084169506A606B70640F010E0D9
S1132B7007C010E005C011E003C011E001C011E07E
S1132B80488359836A837B83112341F0CB01BA01C3
S1132B90681979098A099B0940E06BDCD0DE811150
S1132BA002C00E943309812FDF91CF911F91FF90C2
S1132BB0EF90DF90CF90BF90AF909F908F9008954B
S1132BC0CF92DF92EF92FF926B017C01672B682B0F
S1132BD0692B39F074DD40E0C701B6014ADCAFDE91
S1132BE001C080E0811102C00E943309FF90EF9080
S1132BF0DF90CF90089580919911882321F081E08E
S1132C008093A21108951092A211E0915812F091AC
S1132C10591220813181E0915812F0915912838D1B
S1132C20948D8217930760F0609158127091591235
S1132C30635E7F4F80915812909159120E946820D0
S1132C408091A81101C08150282F30E09BE0929F11
S1132C50F001939FF00D1124E651FE4E90819923CB
S1132C6091F39BE0929FA001939F500D1124DF01EB
S1132C700180F281E02D0480F581E02D1296FC9311
S1132C80EE93119743515E4EE417F50729F44481FE
S1132C905581FD01528341839BE0929FF001939FF4
S1132CA0F00D1124E651FE4E0180F281E02D2085C5
S1132CB0318530935912209358128093A8110895A6
S1132CC0CF92DF92EF92FF926A017B0160915812DA
S1132CD070915912625F7F4F0E947A0841E0C701E8
S1132CE0B601C7DBFF90EF90DF90CF9008950F936C
S1132CF01F93CF93DF93FC01A0915812B091591206
S1132D0070681E964D935D936D937C935197A1814A
S1132D10B281C0915812D0915912BB8BAA8BC09129
S1132D205812D091591216968D919C9117979D8B9C
S1132D308C8B1696CD91DC911797809158129091B7
S1132D4059120E969D838C8380915812909159123A
S1132D500E9617969C938E931697A0915812B09145
S1132D6059125996FC93EE93589780818F5F808314
S1132D7041E0C901B8017DDBDF91CF911F910F9133
S1132D800895CF93DF93FC01CB01BA01A181B281F5
S1132D90C0915812D0915912BB8BAA8BC091581272
S1132DA0D091591216964D915C9117975D8B4C8B6F
S1132DB01696CD91DC911797409158125091591263
S1132DC0425F5F4F5D834C8340915812509159127A
S1132DD0425F5F4F17965C934E931697A0915812DB
S1132DE0B09159125996FC93EE93589730813F5FF6
S1132DF03083222319F06FEF7FEFCB01422F39DBB1
S1132E00DF91CF910895CF93DF93DC011796ED9175
S1132E10FC9118970084F185E02DA08DB18DC289B5
S1132E20D389848995899F838E83C489D58982892E
S1132E3093899D838C8311968D919C9112979F0108
S1132E40225F3F4F8217930731F484899589129644
S1132E509C938E931197118E108E8C9181508C932C
S1132E6080919911811152C0A485B585C681D781FD
S1132E70808591859F838E83C085D1858681978146
S1132E809D838C8311968D919C9112979F012E5F47
S1132E903F4F8217930731F48085918512969C9356
S1132EA08E931197158614868C9181508C93A28DE4
S1132EB08091A8118A1710F4A093A8118BE08A9F1F
S1132EC0D0011124A651BE4E11960D90BC91A02D97
S1132ED0B783A68316964D915C91179751874087C7
S1132EE01696CD91DC9117973D832C8317963C93CE
S1132EF02E931697A28D8A9FD0011124A651BE4EFF
S1132F00B587A4878C918F5F8C931CC045EC51E1ED
S1132F10DA011196CD91DC911297D38BC28B8E81FD
S1132F209F81958B848B8E819F81DC0115963C93C8
S1132F302E9314973F832E83518F408FDA018C9107
S1132F408F5F8C93928DE0915812F0915912828D7B
S1132F50891720F481E08093A21101C080E0DF9101
S1132F60CF910895CF93DF93DC0170684D935D9307
S1132F706D937C9313971896ED91FC9119971A967B
S1132F804D915C911B9714968D919C911597169673
S1132F902D913C911797EC013F832E8316968D91CA
S1132FA09C91179714962D913C911597EC013D83B4
S1132FB02C83EA0189819A81A817B90731F41696FE
S1132FC08D919C9117979A8389831B961C921E92CC
S1132FD01A97DA018C9181508C93A485B585C681AA
S1132FE0D781808591859F838E83C085D185868195
S1132FF097819D838C8311968D919C9112979F014B
S11330002E5F3F4F8217930731F480859185129686
S11330109C938E931197158614868C9181508C9372
S1133020A28D8091A8118A1710F4A093A8118BE0A7
S11330308A9FD0011124A651BE4E11960D90BC91C9
S1133040A02DB783A68316964D915C91179751874F
S113305040871696CD91DC9117973D832C83179664
S11330603C932E931697A28D8A9FD0011124A651CA
S1133070BE4EB587A4878C918F5F8C93928DE0911F
S11330805812F0915912828D891718F481E08093B7
S1133090A211DF91CF9108950FB6F8940F92209169
S11330A0A111FC0120834091A9115091AA116091B2
S11330B0AB117091AC1141835283638374830F907D
S11330C00FBE08952091A111FC0120834091A91104
S11330D05091AA116091AB117091AC11418352834C
S11330E06383748308958F929F92AF92BF92CF921D
S11330F0DF92EF92FF920F931F93CF93DF93FB0125
S11331000FB6F8940F92C090A911D090AA11E09034
S1133110AB11F090AC11DC0111960D911D912D9124
S11331203C91149746015701801A910AA20AB30AE6
S113313040815181628173814F3FBFEF5B076B0711
S11331407B0739F1EC01B881A091A111BA1759F0AC
S1133150C016D106E206F30630F010821182128204
S1133160138281E017C084169506A606B70658F4A4
S1133170481959096A097B0940835183628373831F
S1133180A1DF80E007C0108211821282138281E0E5
S113319001C080E00F900FBEDF91CF911F910F917E
S11331A0FF90EF90DF90CF90BF90AF909F908F9063
S11331B0089581E08093A21108958091581290910E
S11331C0591208958091A711882331F080919911A3
S11331D0811104C082E0089581E0089580E008959B
S11331E00F931F93CF93DF93FC01892B09F477C0CE
S11331F0828DA0915812B09159125A969C918917B8
S113320008F063C04685578560897189772394F0F7
S1133210A0915812B09159125A969C914AE050E0EC
S113322060E070E0491B51096109710946875787BD
S1133230608B718B248535854BE0849FC0011124FC
S113324086519E4E28173907B9F5EF018F010E5F9D
S11332501F4FC8010E94B708E0915812F09159120B
S1133260E28DEA8F8091A8118E1710F4E093A811D3
S11332708BE08E9FF0011124E651FE4E0180F28115
S1133280E02DFF83EE832681378139872887A68145
S1133290B78115961C930E93149717830683EA8DB2
S11332A08E9FF0011124E651FE4EFD87EC8780814C
S11332B08F5F808381E016C0A0915812B09159129B
S11332C05A968C91828F81E00DC095A5E091581299
S11332D0F0915912828D981720F080E003C080E0AD
S11332E001C081E0DF91CF911F910F9108950F9359
S11332F01F93CF93DF93FC01892B09F449C086A562
S1133300815086A7228D95A5291709F443C0811100
S113331043C0EF018F010E5F1F4FC8010E94B70821
S1133320EDA5EA8F8AE090E0A0E0B0E08E1B910961
S1133330A109B1098E879F87A88BB98B8091A811A9
S11333408E1710F4E093A8118BE08E9FF0011124E6
S1133350E651FE4E0180F281E02DFF83EE8326814B
S1133360378139872887A681B78115961C930E93D8
S1133370149717830683EA8D8E9FF0011124E6517A
S1133380FE4EFD87EC8780818F5F808381E005C0DE
S113339080E003C080E001C080E0DF91CF911F9105
S11333A00F9108950F931F93CF93DF93FC01892B03
S11333B009F45AC085A5861708F4862F928D8917BB
S11333C009F452C026A5213009F04EC0828F4685EB
S11333D0578560897189772364F04AE050E060E0A2
S11333E070E0481B51096109710946875787608B52
S11333F0718B248535854BE0949FC001112486513F
S11334009E4E2817390781F5EF018F010E5F1F4F7C
S1133410C8010E94B708EA8D8091A8118E1710F494
S1133420E093A8118BE08E9FF0011124E651FE4E2B
S11334300180F281E02DFF83EE8326813781398775
S11334402887A681B78115961C930E93149717832A
S11334500683EA8D8E9FF0011124E651FE4EFD870E
S1133460EC8780818F5F8083DF91CF911F910F91D3
S11334700895CF92DF92EF92FF92E0915812F0916B
S113348059126685778580899189E0915812F09167
S11334905912A0915812B09159125A962C910F2E8C
S11334A0FAE0CF2ED12CE12CF12CF02DC21AD10848
S11334B0E108F108C686D786E08AF18AFF90EF908A
S11334C0DF90CF9008958091581290915912892BD2
S11334D039F0E0915812F091591286A58F5F86A7B2
S11334E0809158129091591208954F925F926F9261
S11334F07F92AF92BF92CF92DF92EF92FF920F939F
S11335001F93CF93DF93280139010FB6F8940F92DC
S1133510E0915812F0915912C82FD0E0EC0FFD1F22
S113352083A9823079F1E0915812F0915912CE01B9
S1133530880F991F880F991FE80FF91F87A590A975
S1133540A1A9B2A940955095609570954823592337
S11335506A237B2347A750AB61AB72ABE09158124F
S1133560F0915912EC0FFD1F81E083ABA114B1045B
S1133570C104D10439F041E0C601B5010E943912F9
S11335800E9433090F900FBE0FB6F8940F92E11406
S1133590F104A1F0E0915812F0915912CE01880F74
S11335A0991F880F991FE80FF91F87A590A9A1A952
S11335B0B2A9F70180839183A283B383E091581267
S11335C0F0915912EC0FFD1F83A98230E9F4E091C8
S11335D05812F0915912CE01880F991F880F991F24
S11335E0E80FF91F87A590A9A1A9B2A94094509406
S11335F060947094482259226A227B2247A650AADA
S113360061AA72AA81E001C080E020915812309131
S11336105912C20FD31F1BAA0F900FBEDF91CF9177
S11336201F910F91FF90EF90DF90CF90BF90AF90DC
S11336307F906F905F904F9008958F929F92AF927A
S1133640BF92EF92FF920F93CF93DF93DC010FB6FB
S1133650F8940F92E114F10489F0E62FF0E0EE0FF4
S1133660FF1FEE0FFF1FE80FF91F87A490A8A1A862
S1133670B2A8F70180829182A282B38270E0FD0138
S1133680E60FF71F83A992E093AB023001F118F41F
S1133690013031F04DC0033079F10430D1F148C02C
S11336A0660F771F660F771FFD01E60FF71F87A4CC
S11336B090A8A1A8B2A8BA01A901482959296A2940
S11336C07B2947A750AB61AB72AB01E034C0660FF6
S11336D0771F660F771FFD01E60FF71F47A550A957
S11336E061A972A94F5F5F4F6F4F7F4F47A750ABE0
S11336F061AB72AB01E01FC0660F771F660F771FC7
S1133700FD01E60FF71F27A730AB41AB52AB01E039
S113371012C0823079F0660F771F660F771FFD01A4
S1133720E60FF71F27A730AB41AB52AB01E003C054
S113373001E001C000E0813009F069C01C96ED9100
S1133740FC911D971696CD91DC91179718968D9143
S11337509C9119979F838E831896CD91DC9119972C
S113376016968D919C9117979D838C83818192816C
S11337709D012E5F3F4F8217930731F418968D9168
S11337809C911997928381831D961C921E921C977B
S11337908081815080835A96EC915A978091A81128
S11337A08E1710F4E093A8118BE08E9FF001112482
S11337B0E651FE4E0180F281E02D1796FC93EE93C4
S11337C016974681578119965C934E931897C68134
S11337D0D7813D832C83378326835A96EC915A975D
S11337E08E9FF0011124E651FE4E1D96FC93EE933C
S11337F01C9780818F5F80835A969C91E091581228
S1133800F0915912828D891710F40E9433090F9098
S11338100FBE802FDF91CF910F91FF90EF90BF905B
S1133820AF909F908F9008958F929F92AF92BF9286
S1133830CF92DF92EF92FF920F93CF93DF93DC014D
S1133840E114F10489F0E62FF0E0EE0FFF1FEE0F14
S1133850FF1FE80FF91F87A490A8A1A8B2A8F70139
S113386080829182A282B38270E0FD01E60FF71F8D
S113387093A982E083AB023001F118F4013031F0F6
S11338804DC0033079F10430D1F148C0660F771F81
S1133890660F771FFD01E60FF71F87A490A8A1A864
S11338A0B2A8BA01A901482959296A297B2947A73D
S11338B050AB61AB72AB81E034C0660F771F660F0B
S11338C0771FFD01E60FF71F47A550A961A972A94B
S11338D04F5F5F4F6F4F7F4F47A750AB61AB72ABEA
S11338E081E01FC0660F771F660F771FFD01E60F8B
S11338F0F71F27A730AB41AB52AB81E012C0923027
S113390079F0660F771F660F771FFD01E60FF71F2B
S113391027A730AB41AB52AB81E003C081E001C0CB
S113392080E0913009F096C09091991191115FC097
S11339301C96ED91FC911D971696CD91DC911797ED
S113394018962D913C9119973F832E831896CD910B
S1133950DC91199716962D913C9117973D832C83F2
S1133960418152819D012E5F3F4F4217530731F42D
S113397018964D915C911997528341831D961C9220
S11339801E921C979081915090835A96EC915A976D
S11339909091A8119E1710F4E093A8119BE09E9FAC
S11339A0F0011124E651FE4E0180F281E02D1796BC
S11339B0FC93EE9316974681578119965C934E9328
S11339C01897C681D7813D832C83378326835A96E3
S11339D0EC915A979E9FF0011124E651FE4E1D96DC
S11339E0FC93EE931C9790819F5F908321C065ECBC
S11339F071E1FB01C181D2815396DC93CE9352973E
S1133A002E813F8155963C932E9354974E815F812E
S1133A109D01225F3F4FFA01358324833F832E8328
S1133A2059967C936E935897FB0190819F5F908386
S1133A305A962C91E0915812F0915912928D921746
S1133A4048F4C114D10419F091E0F601908391E097
S1133A509093A211DF91CF910F91FF90EF90DF909F
S1133A60CF90BF90AF909F908F900895009721F4CE
S1133A7080915812909159120FB6F8940F9270E0F9
S1133A80FC01E60FF71F23A9223031F4FC01E60FF5
S1133A90F71F13AA81E001C080E00F900FBE0895C4
S1133AA0DC01E0916412F0916512808191E0811152
S1133AB090E09C93911108C00780F085E02D60810F
S1133AC0718182819381089560E070E0CB01089553
S1133AD0CF92DF92EF92FF920F931F93FC014283E8
S1133AE05383648375839387828704171507260796
S1133AF03707C0F00C191D092E093F0986859785E3
S1133B00A089B189081719072A073B0700F5BF01E7
S1133B106E5F7F4F80916212909163120E947A08C7
S1133B2080E018C00C151D052E053F0528F44C1522
S1133B305D056E057F0568F4BF016E5F7F4F809160
S1133B406412909165120E947A0880E003C081E0BB
S1133B5001C081E01F910F91FF90EF90DF90CF9013
S1133B6008950FB6F8940F928091601290916112AB
S1133B70892BE9F481E792E10E94650886E692E1E7
S1133B800E94650881E792E1909365128093641224
S1133B9086E692E1909363128093621240E067E0BC
S1133BA08AE00E94280B90936112809360120F9018
S1133BB00FBE0895EF92FF920F93D3DF80916012AE
S1133BC090916112892B91F00F2EFEE5EF2EF2E118
S1133BD0FF2EF02D03E020E030E040EC50E069E3FC
S1133BE074E088ED90E00E94DB1201C080E00F9148
S1133BF0FF90EF9008958F929F92AF92BF92CF92D1
S1133C00DF92EF92FF920F931F93CF93DF93CDB781
S1133C10DEB727970FB6F894DEBF0FBECDBFE09195
S1133C206012F0916112309781F169832A833B839A
S1133C304C835D839F838E836630F4F4C3DA8230D1
S1133C4069F400E0A7019601BE016F5F7F4F809188
S1133C506012909161120E944B0B18C000E020E0AA
S1133C6030E0A901BE016F5F7F4F80916012909197
S1133C7061120E944B0B0AC020E0A801BE016F5FD5
S1133C807F4FCF010E94FB0B01C080E027960FB647
S1133C90F894DEBF0FBECDBFDF91CF911F910F917E
S1133CA0FF90EF90DF90CF90BF90AF909F908F9058
S1133CB008958F929F92AF92BF92CF92DF92EF922C
S1133CC0FF920F931F93CF93DF933BC00780F08540
S1133CD0E02D80809180A280B380C085D1858E0143
S1133CE00E5F1F4FC8010E94B708EC89FD89CE0101
S1133CF019958E8982FF25C08E859F85A889B989EB
S1133D00880D991DAA1DBB1D88169906AA06BB0617
S1133D1070F48A839B83AC83BD83DB87CA87B80135
S1133D2080916412909165120E947A080AC0C12C95
S1133D30D12C760100E010E0A501940160E0CE01F1
S1133D405ADFE0916412F091651280818111BECF37
S1133D508091621290916312909365128093641221
S1133D60F0936312E0936212DF91CF911F910F9150
S1133D70FF90EF90DF90CF90BF90AF909F908F9087
S1133D800895CF92DF92EF92FF92CF93DF93EC01ED
S1133D900E9465136B017C0180915A1290915B1211
S1133DA0A0915C12B0915D12C816D906EA06FB0612
S1133DB020F47FDF81E0888301C01882C0925A1208
S1133DC0D0925B12E0925C12F0925D12C701B601D0
S1133DD0DF91CF91FF90EF90DF90CF9008954F92B5
S1133DE05F926F927F928F929F92AF92BF92CF9287
S1133DF0DF92EF92FF920F931F93CF93DF934B01C8
S1133E005C0129013A01E0916412F0916512078086
S1133E10F085E02DC085D185CE0102960E94B708B9
S1133E208E8982FF1BC04E855F8568897989480D1C
S1133E30591D6A1D7B1D7501640193018201CE0128
S1133E4047DE882369F0C12CD12C760100E010E014
S1133E50A501940160E0CE01CEDE02C08E7F8E8B80
S1133E60EC89FD89CE011995DF91CF911F910F91B6
S1133E70FF90EF90DF90CF90BF90AF909F908F9086
S1133E807F906F905F904F9008958F929F92AF9222
S1133E90BF92CF92DF92EF92FF921F93CF93DF9363
S1133EA01F92CDB7DEB76B017C01142F0E945F1304
S1133EB0CE01019666DF4B015C01898181112DC021
S1133EC011110DC08C149D04AE04BF0440F00E9477
S1133ED09F14A5019401C701B60181DF20C01123FD
S1133EE041F0E0916212F0916312808111E081113E
S1133EF010E0B701A601481959096A097B09212F65
S1133F0080916012909161120E94760D0E949F141C
S1133F10811105C00E94330902C00E949F140F90B2
S1133F20DF91CF911F91FF90EF90DF90CF90BF90E2
S1133F30AF909F908F900895AF92BF92CF92DF92EF
S1133F40EF92FF920F931F93CF93DF93CDB7DEB71A
S1133F5028970FB6F894DEBF0FBECDBF82C089810B
S1133F6088230CF47EC0AE80BF80D5011C968D9151
S1133F709C911D97892B21F0C50102960E94B708D8
S1133F80CE010896FEDE8B019C01E9810E2E000C09
S1133F90FF0BEA30F10508F064C08827EE58FF4FA4
S1133FA08F4F0C94AE32F50186898160868BCA806E
S1133FB0DB80EC80FD8046855785608971894C0DD6
S1133FC05D1D6E1D7F1DC50183DD882309F449C075
S1133FD0D5015496ED91FC915597C5011995F501BC
S1133FE0868982FF3EC04A815B816C817D818685A2
S1133FF09785A089B1899A01AB01280F391F4A1FFF
S11340005B1FC12CD12C760100E010E060E0C501FB
S1134010F2DD27C0D50156968C9156978E7F569621
S11340208C931FC0F50186898160868B4A815B81F0
S11340306C817D8146875787608B718B400F511F40
S1134040621F731F68017901C50142DD0AC0F501D1
S1134050868981FD04C0C5010E94280802C08E7FA4
S1134060868B20E030E0A901BE016F5F7F4F809115
S11340706012909161120E94360C811170CF2896C3
S11340800FB6F894DEBF0FBECDBFDF91CF911F9165
S11340900F91FF90EF90DF90CF90BF90AF90089575
S11340A0089584B1806884B985B1806885B908951C
S11340B083B1806883B90895F4DF2FEF80E792E03D
S11340C0215080409040E1F700C00000F1DFF5CFBF
S11340D0E8DF2FEF87EA91E6215080409040E1F736
S11340E000C00000E5DFF5CF2F923F924F925F9220
S11340F06F927F928F929F92AF92BF92CF92DF92F4
S1134100EF92FF920F931F93CF93DF93882E962EF7
S11341101A012801390186E090E00E94B632EC01D0
S1134120892B99F1198218821B821A823092871284
S113413020928612409282125092831260928412CC
S113414070928512F0928112E0928012A0927C12F9
S1134150B0927D12C0927E12D0927F12B9D2B8D2A0
S1134160811116C0492D50E048535F4F7E0184E011
S1134170E80EF11C082D9E0161E474E08CE491E2E8
S11341800E94DB128C2F9D2F05C080E090E002C0BE
S11341908C2F9D2FDF91CF911F910F91FF90EF9066
S11341A0DF90CF90BF90AF909F908F907F906F9053
S11341B05F904F903F902F900895CF92DF92EF92AF
S11341C0FF920F931F93CF93DF93EC0140918212E0
S11341D0509183126091841270918512CC24CA94F8
S11341E0DC2C760101E021E0809186129091871207
S11341F00E94DE0500918212109183122091841294
S113420030918512DC01CB0180239123A223B323B7
S1134210081719072A073B07B1F575D262E370E066
S113422080E090E00E94E0156ED2882341F06BD2CA
S113423062E370E080E090E00E94E015F8CF78D26D
S113424065E070E080E090E00E94E01559D2882398
S113425031F0BAD29B838A8391D29983888368EEA2
S113426073E080E090E00E94E01540917C12509150
S11342707D1260917E1270917F12809180129091D4
S113428081120E947E06DF91CF911F910F91FF90C2
S1134290EF90DF90CF900895EC01CE018EDFFDCF3B
S11342A0FC01808191810895FC01828193810895AC
S11342B00F931F93CF93DF93CDB7DEB764970FB6F9
S11342C0F894DEBF0FBECDBF81E00E945B2EF4D315
S11342D070D69F938F9382EF92E09F938F930E9467
S11342E03A3468D566D69F938F9385E093E09F9385
S11342F08F930E943A348E010F5F1F4FC801EED393
S113430058D61F930F939F938F938EE193E09F93BF
S11343108F930E943A34C801FDD34BD69F938F9359
S11343201F930F9382E393E09F938F930E943A34F9
S1134330A80167E473E088E693E01AD63AD69F931F
S11343408F931F930F9387E493E09F938F9388E653
S113435093E09F938F9389E793E09F938F930E94B9
S11343603A340BD426D69F938F938FEA93E09F938E
S11343708F930E943A340FB6F894DEBF0FBECDBFC0
S113438081E0F5D416D69F938F938EEB93E09F93A1
S11343908F930E943A3484EF91E0F4D40AD69F9329
S11343A08F9381E08F9384EF8F938FED93E09F93AE
S11343B08F930E943A340FB6F894DEBF0FBECDBF80
S11343C01AE080E0E0D3082FF4D59F938F931F92D7
S11343D01F938FEF93E09F938F930E943A340F9033
S11343E00F900F900F900F900F90083059F080E0CD
S11343F00E94BF2E66E371E080E090E00E94E01529
S11344001150F9F6083021F481E00E94A12E09C070
S113441081E00E94B02E80E00E947E2E0E9433092B
S1134420FDCF64960FB6F894DEBF0FBECDBFDF910B
S1134430CF911F910F910895CF93DF9300D01F92D6
S1134440CDB7DEB781E02AD362E070E080E090E08F
S11344500E94E01580E022D366E970E080E090E0FD
S11344600E94E015D4D224DFE8E8F2E186E08183FB
S113447082E080830E94651369837A838B839C83A3
S113448048EA58E460E070E0CE0101960E947B1592
S1134490E8E8F2E180E3828389E3838382E0848332
S11344A083EA858384E086838AE1878383E00E94AC
S11344B0D12E68E872E180E08FD37BD59F938F93F0
S11344C08FE194E09F938F930E943A340F900F9062
S11344D00F900F90D5CFEF92FF920F93E12CF12C18
S11344E0082F20E030E048E851E062E574E08CE118
S11344F092E20E94DB120F91FF90EF9008958F9249
S11345009F92AF92BF92CF92DF92EF92FF920F935E
S11345101F93CF93DF930E94CB059093E613809370
S1134520E5130E94CB059093EC138093EB1341E0C9
S113453060E070E08CE290E00E94D50E9093CE1380
S11345408093CD1341E060E070E08CE290E00E9443
S1134550D50E9093EA138093E91389E594E00E94C1
S11345604D340E942302E090EB13F090EC13409141
S1134570E5135091E613A12CB12C65016894A5F8BC
S113458008E010E020E030E060EC82E00E940901E5
S11345904C01E090EB13F090EC134091E513509133
S11345A0E613A12CB12C65016894A4F801E010E095
S11345B020E030E060EC82E097DDC82FD92F0E9424
S11345C05004E090EB13F090EC134091E5135091FC
S11345D0E6138091CE138F938091CD138F93DF9345
S11345E0CF930F2EF0E3AF2EB12CC12CD12CF02D94
S11345F009E010E020E030E060EC84E00E948F02EB
S11346004091CD135091CE1360EC81E00E94970548
S11346104091E9135091EA1360EC81E00E943D045B
S11346200F900F900F900F90DF91CF911F910F91EA
S1134630FF90EF90DF90CF90BF90AF909F908F90BE
S1134640089581B1816881B980E00E94062D85E0DA
S11346500E940D2E60E070E081E0E0D183E090E004
S11346603ACF0895EEDF4BDF8EE794E00E944D349D
S11346700E942713FFCF6530F1F4FA0180818F7314
S113468090E0982F88272181822B90930A028093AF
S113469009028281F0E48F9FC0011124FA01238171
S11346A026952695822B909308028093070281E039
S11346B080939E120895643051F080E090E49093CA
S11346C008028093070290930A02809309020895D6
S11346D00F931F930BE313E220E034E244EF50E026
S11346E060E087E20E94F42E9093A01280939F12C0
S11346F021E0892B09F020E0822F1F910F9108956A
S113470080919E12089580919F129091A01200971B
S113471059F040E060E070E00E94452F843031F4AD
S113472010929E1280E0089582E0089583E0089537
S113473080919F129091A012009739F064E00E943A
S1134740912F853021F083E0089582E0089580E080
S113475008956091090270910A0280E090E00E943D
S11347609B3120E030E048EC52E40E94293220E002
S113477038EF4FE756E40C9402310895EADF20E065
S113478030E040E251E40E9429320E946F31CB01B3
S11347900895609107027091080280E090E00E9401
S11347A09B3120E030E045E253E40E94293220E0CE
S11347B038EF4FE756E40E94023120E030E040E257
S11347C052E40C949D300895E4DF20E030E040E2B0
S11347D051E40E9429320E946A31CB0108950F935B
S11347E01F93CF93DF931F921F92CDB7DEB78C0137
S11347F019822DC0E091D812EC3250F481E08E0F72
S11348008093D812F0E0E65FFC4E8A81808302C078
S11348101092D8128A818A30D1F44091D81250E093
S1134820FA01E85FFC4E1082415051099E012F5F4E
S11348303F4F6AE073E18091DB129091DC120E9499
S1134840FC0F898181110E9433091092D812BE0194
S11348506E5F7F4FC80144D6882361F20F900F909A
S1134860DF91CF911F910F9108950F931F93CF93D1
S1134870DF938C01EB018091DB129091DC120E949A
S1134880070FB80181EA92E10E941B34209779F066
S1134890E1EAF2E101900020E9F7319780E290E04B
S11348A091838083BE0181EA92E10E941034E1EA9F
S11348B0F2E1DF010D900020E9F711978DE09AE015
S11348C011969C938E9312961C9201900020E9F706
S11348D03197E15AF241AE2F81EA92E1AC016A2F9D
S11348E08091DD129091DE12A6D5811111C008E2EB
S11348F015E020E030E04DE250E064E673E18091A1
S1134900DB129091DC120E94401084E693E102C015
S113491080E090E0DF91CF911F910F9108952F9245
S11349203F924F925F926F927F928F929F92AF923B
S1134930BF92CF92DF92EF92FF920F931F93CF9388
S1134940DF935C01FC0101900020E9F731976F01CE
S1134950C81AD90A5C2C0F2EF9E28F2EF7E09F2E8D
S1134960F02DE12CF12C4C2C3701F4010181128142
S1134970E80109900020E9F72197C01BD10B3C2ED8
S1134980F9E0CF16D10458F0F4012080FEE02F1294
S113499006C0B801C5010E94EB33892B09F5442DEB
S11349A0351408F44C2F50E0B801C5010E9422349C
S11349B0892B49F4F301EE0FFF1FE60DF71DE75DA8
S11349C0F84F20800DC08FEFE81AF80AE3E08E0E4E
S11349D0911CF1E1EF16F10439F66894222424F8CD
S11349E0822DDF91CF911F910F91FF90EF90DF9077
S11349F0CF90BF90AF909F908F907F906F905F907B
S1134A004F903F902F90089530DF89CF0895809183
S1134A10DB129091DC120C94070F08958F929F92F1
S1134A20AF92CF92EF920F931F93CF93C82F8B0126
S1134A3041E060E070E088EC90E00E94D50E909335
S1134A40DC128093DB121093DA120093D9120F2E2A
S1134A50FFEE8F2EF3E29F2EF02D6894AA24A6F881
S1134A606894CC24C6F8E12C00E023E040E051EE49
S1134A7060E070E08C2F12D49093DE128093DD12EC
S1134A80E7E0F1E0808180618083CF911F910F91F5
S1134A90EF90CF90AF909F908F900895882331F03E
S1134AA0E8E0F1E080818F7E80830895E8E0F1E022
S1134AB0808180618083089560E070E08FEA94E0F3
S1134AC0D4DEE4E6F3E101900020E9F73197E456FF
S1134AD0F34181E0759708F080E00895CF93DF9368
S1134AE0EC0160E070E080EC94E0BFDEE4E6F3E12A
S1134AF001900020E9F7E557F34139F464E673E1E6
S1134B00CE010E941B3480E002C0188281E0DF9154
S1134B10CF910895FC0101900020E9F79F012151F4
S1134B2031092817390729F4BC018EEE94E06CCFC3
S1134B30089589E00895FC0101900020E9F79F01A0
S1134B40215131092817390729F4BC018DEF94E06C
S1134B505BCF089589E00895FC0101900020E9F7F6
S1134B609F01215231092817390729F4BC018CE02F
S1134B7095E04ACF089589E0089560E070E08BE401
S1134B8095E042CF08950F931F93E82FF0E0EE0FC6
S1134B90FF1FEB5DF84F6081718184E595E034DFA0
S1134BA0811114C008E215E020E030E04DE250E04D
S1134BB064E673E18091DB129091DC120E94401054
S1134BC0882321F084E693E1AADE03C084E693E11E
S1134BD0A6DE1F910F9108950F931F93CF93DF9338
S1134BE01F92CDB7DEB7DB0111969C9111979531D9
S1134BF008F0B4C0992381F160E070E0272F30E021
S1134C00462F50E0FD01E40FF51F928192959F70AD
S1134C109A3010F0995C01C0905DF901EB50FD4EA3
S1134C2090832F5F3F4FFD01E40FF51F92819F702A
S1134C30492F50E04A30510514F0995C01C0905D51
S1134C40F901EB50FD4E90837E5F6F5F11969C914E
S1134C501197691798F201C070E0E72FF0E0EB506C
S1134C60FD4E10824C91811103C08DE595E002C088
S1134C708FE595E025EF32E13F932F931F924F93F9
S1134C809F938F9383E695E09F938F9387E393E1BC
S1134C909F938F930E947D3460E070E087E393E1FB
S1134CA0B3DE0FB6F894DEBF0FBECDBF811159C07D
S1134CB008E215E020E030E04DE250E064E673E104
S1134CC08091DB129091DC120E944010882309F439
S1134CD047C084E693E123DE8E3009F042C087E0CA
S1134CE089838091D9129091DA12892BA9F1BE019E
S1134CF06F5F7F4F84E693E168D18093DF12E9818F
S1134D00F0E0EC59FC4EDF010D900020E9F711971B
S1134D10AE1BBF0BAA2391F0BB27CD0101979C01C9
S1134D2012F42F5F3F4F359527952093E012AF0182
S1134D304F5F5F4F64E181EE92E173D101E010E0D7
S1134D4020E030E046E150E06FED72E18091D9124D
S1134D509091DA120E94370F8EE003C084E101C003
S1134D6080E00F90DF91CF911F910F9108958130D2
S1134D7019F063E775E002C06CE476E087E795E03C
S1134D8043CE08959F938F9388EA95E09F938F93E2
S1134D9087E393E19F938F930E947D3460E070E0FA
S1134DA087E393E131DE0F900F900F900F900F90F7
S1134DB00F9008952F923F924F925F926F927F923D
S1134DC08F929F92AF92BF92CF92DF92EF92FF9217
S1134DD00F931F93CF93DF93CDB7DEB7A0970FB692
S1134DE0F894DEBF0FBECDBF65ED75E081EE95E0B2
S1134DF03CDD95DD8111A3C080E2E2E2F2E0DE0158
S1134E00119601900D928A95E1F79E012F5F3F4F15
S1134E106901E12CF12C0F2EFDEEAF2EF5E0BF2E33
S1134E20F02D07E313E10F2EF6E04F2EF6E05F2E90
S1134E30F02D0F2EFDE18F2EF6E09F2EF02D0F2E7C
S1134E40F7E36F2EF6E07F2EF02D3E2C2F2CFF92F1
S1134E50EF92BF92AF921F930F930E947D3460E054
S1134E6070E0C80102DD5BDD0F900F900F900F9092
S1134E700F900F90811163C032E03E15E8F4F60103
S1134E8083818F9382818F9381818F9380818F938C
S1134E90FF92EF925F924F921F930F930E947D3483
S1134EA060E070E0C801E1DC3ADD0FB6F894DEBFE3
S1134EB00FBECDBF811143C02F923F929F928F921C
S1134EC01F930F930E947D3460E070E0C801CDDC35
S1134ED026DD0F900F900F900F900F900F9081117F
S1134EE02EC02F923F927F926F921F930F930E9436
S1134EF07D3460E070E0C801B8DC11DD0F900F90E4
S1134F000F900F900F900F90811119C03FEFE31A8B
S1134F10F30A84E0C80ED11C98E0E916F10409F004
S1134F2094CF60E070E08FE496E09FDCF8DC8111C0
S1134F3006C060E070E080E696E097DCF0DCA096C6
S1134F400FB6F894DEBF0FBECDBFDF91CF911F9196
S1134F500F91FF90EF90DF90CF90BF90AF909F9014
S1134F608F907F906F905F904F903F902F90089517
S1134F70EF92FF920F931F93CF93DF93EC018B017A
S1134F807A0181E0F4DE81110DC0CE01D4DD8111FE
S1134F9009C0C801E1DD811105C0C701BBDD811174
S1134FA001C0EBDDDF91CF911F910F91FF90EF9046
S1134FB0089590E0FC01EE0FFF1F8E0F9F1FFC0170
S1134FC0E75DF84F818192810895DC01009729F112
S1134FD0FB012081FC0101900020E9F73197E81BD7
S1134FE0F90B822F90E0E817F907C8F080E008C0B9
S1134FF0880F382F330F330F830F8053890F2F5FA0
S1135000FD01E20FF11D908130ED390F3A3010F4BB
S11350109111EECFFB012083089580E0089580E094
S113502008950F931F93CF93DF93DC01EA01209738
S1135030E1F1FA0101900020E9F73197E41BF50B47
S1135040329710F532C08D01040F151F30E0AE0108
S1135050420F531FFA019081913428F09753592F2E
S11350605295507F03C0592F5295507F2C0F3D1FEE
S1135070F9019181913410F0975301C09053950F29
S1135080F80190838F5F01C080E0282F220F482F02
S113509050E0FE0101900020E9F73197EC1BFD0B75
S11350A04E175F0710F48613CECFDF91CF911F9177
S11350B00F91089580919413860F80939413909187
S11350C09713913079F028F09230A9F0933019F1C8
S11350D008956F3F09F048C01092941381E08093C3
S11350E097130895663809F03FC01092931382E035
S11350F0809397130895E091931381E08E0F80932A
S11351009313F0E0EF56FC4E6083823069F583E040
S11351108093971308959091931321E0290F20937E
S11351209313963009F581110EC0E1E9F3E1808112
S113513090E0982F88272181820F911D90939913D5
S11351408093981304C0109299131092981310929C
S11351509713E0919513F0919613309729F080916D
S1135160981390919913199508958F929F92AF92E5
S1135170CF92EF920F930F2EFAE58F2EF8E29F2E27
S1135180F02D6894AA24A4F86894CC24C4F8E12CE3
S113519000E023E040E855E260E070E07FD09093C7
S11351A09B1380939A130F91EF90CF90AF909F90A1
S11351B08F900895CF93DF93CDB7DEB729970FB6BD
S11351C0F894DEBF0FBECDBF89E0E2E4F2E09E01B9
S11351D02F5F3F4FD90101900D928A95E1F710920C
S11351E099131092981380919A1390919B1300979E
S11351F031F0422F532F69E01ED180E001C082E0DC
S113520029960FB6F894DEBF0FBECDBFDF91CF91C4
S1135210089520919813309199132115310529F49B
S1135220FC011182108281E00895FC013183208306
S113523080E0089565360CF064E66C390CF46CE992
S113524096EF6902B00111246854744F811105C0AE
S11352507093290160932801089570932B01609342
S11352602A010895EAE0F1E08081886180838FE378
S11352709CE9909327018093260160E080E0DADFC7
S113528060E081E0D7DFE0E2F1E08081826A808340
S1135290E1E2F1E080818A61808308952F923F9258
S11352A04F925F926F927F928F929F92AF92CF9222
S11352B0EF92FF920F931F93CF93DF93CDB7DEB797
S11352C0F82E2A013B0188E090E00E94B6328C015E
S11352D08F2D90E0FC01EE0FFF1FE456FC4E11836E
S11352E000830115110509F469C0880F991FFC0199
S11352F0E55FFD4F80819181D8018D939C938C2D26
S113530090E0880F991F880F991F0E94B6321C01E4
S113531086E090E00E94B6327C014C2DB101F1D6BA
S1135320F801F582E4828A2D90E0880F991F880F96
S1135330991F0E94B6321C0186E090E00E94B632AA
S11353407C014A2DB101DDD6D8011396FC92EE9270
S1135350129717969C928E921697FFB6F894ED9139
S1135360FC91119736978081826080838D909C9008
S1135370C301B201E0D720E030E040E051E40E94F4
S113538029329B01AC0160E074E284E79BE43AD7E4
S113539020E030E040E85FE3D0D6A1D7F4013297B3
S11353A06083D801ED91FC911197359788E980834A
S11353B0ED91FC91349786E08083FFBEC801DF91B4
S11353C0CF911F910F91FF90EF90CF90AF909F904E
S11353D08F907F906F905F904F903F902F900895A3
S11353E0CF93DF93DC01892B01F11296ED91FC91AF
S11353F01397938182812581981B92238481981726
S1135400B1F0838126952823C081D181C20FD11D9B
S113541068838F5F958189238383ED91FC91359710
S113542080818062808380E003C081E001C082E0EB
S1135430DF91CF910895EF92FF920F931F93CF9333
S1135440DF937C01009709F441C0DC011296ED91D1
S1135450FC91139793818281981B85819823848181
S1135460891B8617A8F1662341F1842F952FDC014F
S11354706150462F50E04F5F5F4F480F591FE701BF
S1135480EA81FB81938182812581981B9223848107
S1135490981779F08C9193812695292360817181E5
S11354A08B01020F111DE80188839F5F858198237A
S11354B093831196A417B50711F7D701ED91FC91C9
S11354C0359780818062808380E003C081E001C0E1
S11354D082E0DF91CF911F910F91FF90EF9008959B
S11354E00097D1F0DC011496ED91FC91159793810E
S11354F08281981799F09281858186958923A0816C
S1135500B181A80FB11D8C91DB018C939F5F8581C4
S11355109823928380E0089581E0089583E00895BC
S11355201F920F920FB60F9211240BB60F922F9366
S11355303F934F935F936F937F938F939F93AF9317
S1135540BF93CF93DF93EF93FF93A0919C13B091FC
S11355509D13109711F16091C6001496ED91FC9182
S11355601597938182812581981B922384819817B2
S113557061F0838126952823C081D181C20FD11D7A
S113558068838F5F9581892383831696ED91FC91BF
S11355901797309711F0CD011995FF91EF91DF9195
S11355A0CF91BF91AF919F918F917F916F915F91B7
S11355B04F913F912F910F900BBE0F900FBE0F9004
S11355C01F9018951F920F920FB60F9211240BB6CD
S11355D00F922F938F939F93AF93BF93EF93FF9368
S11355E0E0919C13F0919D133097B9F00280F38100
S11355F0E02D938182819817B1F092818581282FC3
S113560026952923A081B181A20FB11D2C919F5F02
S1135610892382832093C6000BC0E1ECF0E08081F3
S11356208F7D808305C0E1ECF0E080818F7D8083F5
S1135630FF91EF91BF91AF919F918F912F910F9017
S11356400BBE0F900FBE0F901F9018951F920F92D4
S11356500FB60F9211240BB60F922F933F934F93D3
S11356605F936F937F938F939F93AF93BF93CF93E6
S1135670DF93EF93FF93A0919E13B0919F13109724
S113568011F16091CE001496ED91FC9115979381E0
S113569082812581981B92238481981761F08381EC
S11356A026952823C081D181C20FD11D68838F5FC5
S11356B09581892383831696ED91FC9117973097F2
S11356C011F0CD011995FF91EF91DF91CF91BF9129
S11356D0AF919F918F917F916F915F914F913F9186
S11356E02F910F900BBE0F900FBE0F901F90189527
S11356F01F920F920FB60F9211240BB60F922F9395
S11357008F939F93AF93BF93EF93FF93E0919E1377
S1135710F0919F133097B9F00280F381E02D9381CB
S113572082819817B1F092818581282F26952923AB
S1135730A081B181A20FB11D2C919F5F8923828327
S11357402093CE000BC0E9ECF0E080818F7D808354
S113575005C0E9ECF0E080818F7D8083FF91EF91BB
S1135760BF91AF919F918F912F910F900BBE0F908E
S11357700FBE0F901F9018951F920F920FB60F92A5
S113578011240BB60F922F933F934F935F936F9314
S11357907F938F939F93AF93BF93CF93DF93EF93B5
S11357A0FF93A091A013B091A113109711F16091F0
S11357B0D6001496ED91FC911597938182812581F1
S11357C0981B92238481981761F08381269528235E
S11357D0C081D181C20FD11D68838F5F95818923D8
S11357E083831696ED91FC911797309711F0CD01B4
S11357F01995FF91EF91DF91CF91BF91AF919F9157
S11358008F917F916F915F914F913F912F910F9065
S11358100BBE0F900FBE0F901F9018951F920F9202
S11358200FB60F9211240BB60F922F938F939F9361
S1135830AF93BF93EF93FF93E091A013F091A11363
S11358403097B9F00280F381E02D9381828198171B
S1135850B1F092818581282F26952923A081B181D9
S1135860A20FB11D2C919F5F892382832093D600C0
S11358700BC0E1EDF0E080818F7D808305C0E1ED18
S1135880F0E080818F7D8083FF91EF91BF91AF9194
S11358909F918F912F910F900BBE0F900FBE0F9081
S11358A01F9018951F920F920FB60F9211240BB6EA
S11358B00F922F933F934F935F936F937F938F93A5
S11358C09F93AF93BF93CF93DF93EF93FF93A091F5
S11358D0A213B091A313109711F16091360114969D
S11358E0ED91FC911597938182812581981B9223D8
S11358F08481981761F0838126952823C081D18102
S1135900C20FD11D68838F5F958189238383169687
S1135910ED91FC911797309711F0CD011995FF91F6
S1135920EF91DF91CF91BF91AF919F918F917F9133
S11359306F915F914F913F912F910F900BBE0F90FC
S11359400FBE0F901F9018951F920F920FB60F92D3
S113595011240BB60F922F938F939F93AF93BF9302
S1135960EF93FF93E091A213F091A3133097B9F052
S11359700280F381E02D938182819817B1F09281A6
S11359808581282F26952923A081B181A20FB11DDD
S11359902C919F5F89238283209336010BC0E1E31E
S11359A0F1E080818F7D808305C0E1E3F1E08081B7
S11359B08F7D8083FF91EF91BF91AF919F918F91E4
S11359C02F910F900BBE0F900FBE0F901F90189544
S11359D0CF93DF931F92CDB7DEB7BE016F5F7F4FCA
S11359E08091A4139091A5137BDD8111F6CF898159
S11359F090E00F90DF91CF910895682F8091A413C8
S1135A009091A513EDDC80E090E008958F929F9231
S1135A10AF92CF92EF920F93812C912C6894AA2489
S1135A20A7F86894CC24C7F8E12C00E023E040E018
S1135A3051EE60E070E032DC9093A5138093A413E0
S1135A40E1EFF3E183E192E09183808393838283A6
S1135A500F91EF90CF90AF909F908F90089590E02A
S1135A60FC01EE0FFF1FE80FF91FEE0FFF1FEA55B1
S1135A70FC4E238121111FC09C01220F331FF90109
S1135A80E80FF91FEE0FFF1FEA55FC4EA081B1810C
S1135A904C91F901E80FF91FEE0FFF1FEA55FC4E78
S1135AA081E090E0028002C0880F991F0A94E2F717
S1135AB0842B8C930895FC01EE0FFF1FDF01A80FC8
S1135AC0B91FAA0FBB1FAA55BC4E0D90BC91A02DA7
S1135AD02C91E80FF91FEE0FFF1FEA55FC4E81E0F1
S1135AE090E0028002C0880F991F0A94E2F7809523
S1135AF082238C93089590E0FC01EE0FFF1FE80FC2
S1135B00F91FEE0FFF1FEA55FC4E2381211120C01F
S1135B109C01220F331FF901E80FF91FEE0FFF1F3D
S1135B20EA55FC4EA081B1814C91F901E80FF91FAF
S1135B30EE0FFF1FEA55FC4E81E090E0028002C0A8
S1135B40880F991F0A94E2F7809584238C93089513
S1135B50FC01EE0FFF1FDF01A80FB91FAA0FBB1F27
S1135B60AA55BC4E0D90BC91A02D2C91E80FF91FA5
S1135B70EE0FFF1FEA55FC4E81E090E0028002C068
S1135B80880F991F0A94E2F7822B8C930895CC24F2
S1135B90C394D12C6894BB24B2F8C6EAD3E110E0D4
S1135BA08C81813081F018F1823061F5E881F981CE
S1135BB02081C6010A8002C0880F991F0A94E2F767
S1135BC0822780831FC08D818F5F8A3010F48D837C
S1135BD019C01D82E881F9812081C6010A8002C0B2
S1135BE0880F991F0A94E2F7822780830BC00D81E6
S1135BF0002329F0812F7FDF01500D8303C0BC8275
S1135C00812F2DDF1F5F2696143051F665E070E07A
S1135C1080E090E00E94E015C0CFEF92FF920F93D6
S1135C201F93CF93DF93082F80E487B9C6EAD3E1AB
S1135C300F2EF8E2EF2EF12CF02DF982E88286E0A7
S1135C408A831B8214E01C8380E009DF80E887B923
S1135C50FF82EE8287E0888719861A8781E0FFDE5B
S1135C6080E283BB84E390E09D878C8785E08E8708
S1135C701F86188B82E0F3DE80E18093010182E0CD
S1135C8091E09B8B8A8B1C8B1D8A1E8B83E0E7DE45
S1135C90E12CF12C20E030E040EC50E06CE577E0C2
S1135CA087EC9DE20E94DB12DF91CF911F910F914F
S1135CB0FF90EF900895CF93DF9390E0FC01EE0FF7
S1135CC0FF1FDF01A80FB91FAA0FBB1FAA55BC4EA7
S1135CD0CD91DC911197488121E030E012960C902F
S1135CE0129702C0220F331F0A94E2F72427288355
