:10000000E6C0000005C1000003C1000001C10000FE
:10001000FFC00000FDC00000FBC00000F9C00000F0
:10002000F7C00000F5C00000F3C00000F1C0000000
:100030000C94E509EDC00000EBC00000E9C0000031
:10004000E7C00000E5C00000E3C00000E1C0000020
:10005000DFC00000DDC00000DBC00000D9C0000030
:10006000D7C000000C947C2A0C94CE2AD1C000008A
:10007000CFC00000CDC00000CBC00000C9C0000050
:10008000C7C00000C5C00000C3C00000C1C0000060
:100090000C94122B0C94642BBBC000000C94B02F5A
:1000A000B7C00000B5C00000B3C00000B1C0000080
:1000B000AFC00000ADC00000ABC00000A9C0000090
:1000C000A7C00000A5C00000A3C000000C94A82B8E
:1000D0000C94FA2B9DC000000C943E2C0C94902C98
:1000E00097C00000BF1FBF1FBF1FF61FFE1F1320BA
:1000F000BF1FBF1FF61FFE1FD22F423042304230BB
:100100004230423042304230D22F423042304230D0
:100110004230423042304230D42F423042304230BE
:10012000423042304230423042304230423042303F
:100130004230423042304230D42F4230423042309E
:10014000423042304230423042304230423042301F
:1001500042304230423042303E3042304230423013
:100160004230423042304230093042304230423038
:1001700042304230423042304230423042304230EF
:100180004230423042304230FD2F42304230423025
:10019000423042304230423021300E940012809181
:1001A000E611823010F00E941F090E943C20F5CF1A
:1001B000CF93DF931F92CDB7DEB7CE0101960E9499
:1001C0003C1D49810E94311F0E94881FF6CF1124D7
:1001D0001FBECFEFD1E2DEBFCDBF00E00CBF17E006
:1001E000A0E0B2E0ECE8FEE600E00BBF02C0079042
:1001F0000D92A036B107D9F723E1A0E6B7E001C020
:100200001D92A33FB207E1F70E941E230C944437CE
:10021000F7CE2F923F924F925F926F927F928F9282
:100220009F92AF92BF92CF92DF92EF92FF920F9385
:100230001F93CF93DF93882E962E1A012801390140
:10024000870184E090E00E94A232EC01009771F1F6
:10025000FC01119211927F0130926B0720926A0784
:10026000409266075092670760926807709269072C
:100270001093650700936407A0926007B09261072E
:10028000C0926207D092630783E00E94A128492DA3
:1002900050E048535F4F082D9E016FE672E08EEBF1
:1002A00091E00E94C7128C2F9D2F02C080E090E049
:1002B000DF91CF911F910F91FF90EF90DF90CF9042
:1002C000BF90AF909F908F907F906F905F904F9076
:1002D0003F902F900895CF92DF92EF92FF920F936D
:1002E0001F93CF93DF93EC0140916607509167070E
:1002F0006091680770916907CC24CA94DC2C760160
:1003000001E021E080916A0790916B0743D400914E
:100310006607109167072091680730916907DC0133
:10032000CB0180239123A223B323081719072A079F
:100330003B07D9F40E94C628182F6EE571E080E0D3
:1003400090E00E94CC15111103C0CE010E94F52847
:100350004091600750916107609162077091630757
:100360008091640790916507B5D4DF91CF911F917B
:100370000F91FF90EF90DF90CF900895EC01CE01A8
:10038000AADFFDCFFC0180819181089582E090E099
:100390000E94A232FC01009741F013821282158262
:1003A0001482118210829F2F089580E090E00895BA
:1003B000009749F09B01285C31092934364218F432
:1003C000FC01738362830895009739F0693E23E04E
:1003D000720718F4FC01718360830895009749F057
:1003E0009B0120573E4F273B334018F4FC01758397
:1003F00064830895FC01828193810895FC01DB01EF
:1004000081E0808386E0818314968C911497159601
:100410009C911597928383838C9111969C9111974F
:100420009483858312968C91129713969C91968350
:100430008783CF01089521E0FC01208322E02183FE
:1004400012821382089581E090E00E94A23221E09E
:10045000892B09F420E020936F0781E090E00E944F
:10046000A23281E080936F0710926E070E94DB0B2F
:1004700090936D0780936C0708950F93CF93DF934C
:1004800020916C0730916D0721153105B9F0EC0111
:100490004FEF5FEFBA01C9010E94B10C80916F0765
:1004A000888300E020E030E0A90160E070E0809106
:1004B0006C0790916D070E94370B04C020916F0765
:1004C000FC012083DF91CF910F9108950F93CF937B
:1004D000DF9320916C0730916D0721153105B9F03C
:1004E000EC014FEF5FEFBA01C9010E94B10C80919E
:1004F0006E07888300E020E030E0A90160E070E052
:1005000080916C0790916D070E94370B04C0209179
:100510006E07FC012083DF91CF910F9108952F92F8
:100520003F924F925F926F927F928F929F92AF9283
:10053000BF92CF92DF92EF92FF920F931F93CF93D0
:10054000DF9300D01F92CDB7DEB7382E262E5C8306
:100550004B832801390188E090E00E94A2329A83FF
:100560008983009709F43FC0FC01918280828A8DC3
:100570009B8D938382830ADFE981FA81958384834B
:100580008B819C81909393078093920740928E0772
:1005900050928F076092900770929107F0928D07AA
:1005A000E0928C07A0928807B0928907C0928A07D0
:1005B000D0928B078C8D9D8D9093870780938607B3
:1005C000422D50E048535F4F7F0196E0E90EF11C49
:1005D000032D9F0169E772E083E194E00E94C71256
:1005E00089819A8102C080E090E00F900F900F9077
:1005F0000F90DF91CF911F910F91FF90EF90DF90BF
:10060000CF90BF90AF909F908F907F906F905F90B2
:100610004F903F902F900895AF92BF92CF92DF926C
:10062000EF92FF920F931F93CF93DF93CDB7DEB777
:1006300066970FB6F894DEBF0FBECDBF5C0181E0B8
:1006400090E049D48C0119DFF8018081882309F4F6
:10065000B7C081E090E03FD48C0138DFF8018081A1
:10066000882311F021D101C024D140918E075091EF
:100670008F076091900770919107809192079091F8
:10068000930728D3409188075091890760918A0782
:1006900070918B07CC24CA94DC2C760101E021E018
:1006A00080918C0790918D0775D2009188071091E9
:1006B000890720918A0730918B07DC01CB018023C9
:1006C0009123A223B323081719072A073B0709F030
:1006D00099C0F5018081918155DEBC01F5018481CD
:1006E000958166DEF5018081918184DE9F938F93F1
:1006F00080E892E09F938F930E942634F5018281D7
:1007000093810E944021BC01F5018481958166DEC0
:10071000F501828193810E943C21BC01F501848115
:10072000958152DEF501808191812CDE9F938F931C
:1007300083E892E09F938F930E942634F501828193
:1007400093810E9440219F938F938FE892E09F9323
:100750008F930E942634F501828193810E943C216F
:100760009F938F9383EA92E09F938F930E94263406
:10077000F50164817581CE01019640DE86E1FE01BE
:100780003196A0E7B7E001900D928A95E1F70FEF5F
:100790001FEF980146E150E060E777E0809186071F
:1007A000909187070E94230F60E375E780E090E057
:1007B0000E94CC150FB6F894DEBF0FBECDBF22C08D
:1007C000F50164817581CE01019635DE86E1FE0179
:1007D0003196A0E7B7E001900D928A95E1F70FEF0F
:1007E0001FEF980146E150E060E777E080918607CF
:1007F000909187070E94230F60E375E780E090E007
:100800000E94CC1566960FB6F894DEBF0FBECDBF22
:10081000DF91CF911F910F91FF90EF90DF90CF90DC
:10082000BF90AF900895EC01CE01F6DEFDCF0F939F
:100830001F930FEF1FEF980146E150E064E977E066
:100840000E942C10E4E9F7E02181938182811F92BC
:100850002F931F929F931F928F9384EB92E09F930D
:100860008F930E9426348DB79EB708960FB6F894E2
:100870009EBF0FBE8DBF1F910F910895EF92FF9203
:100880000F939A01E12CF12C082F48E851E065EE16
:1008900072E087E194E00E94C7120F91FF90EF9001
:1008A00008950C941E29089564E681E00C940629AD
:1008B00008956CE981E00C94062908950F931F9325
:1008C000CF93DF93CDB7DEB764970FB6F894DEBF52
:1008D0000FBECDBF81E00E94472E0E9448250E9496
:1008E000C5279F938F938EEE92E09F938F930E94E4
:1008F00026340E94C6260E94C5279F938F9381E0CD
:1009000093E09F938F930E9426348E010F5F1F4FB9
:10091000C8010E945A250E94C5271F930F939F93D9
:100920008F938AE193E09F938F930E942634C801AE
:100930000E9476250E94C5279F938F931F930F9344
:100940008EE293E09F938F930E942634A80163E484
:1009500073E084E693E00E94A4270E94C5279F933A
:100960008F931F930F9383E493E09F938F9384E679
:1009700093E09F938F9385E793E09F938F930E94DB
:1009800026340E94A9250E94C5279F938F938BEA46
:1009900093E09F938F930E9426340FB6F894DEBFA6
:1009A0000FBECDBF81E00E94A3260E94C5279F9362
:1009B0008F938AEB93E09F938F930E94263484EF6A
:1009C00091E00E94AE260E94C5279F938F9381E0FD
:1009D0008F9384EF8F938BED93E09F938F930E947F
:1009E00026340FB6F894DEBF0FBECDBF1AE080E00C
:1009F0000E94AF25082F0E94C5279F938F931F92B7
:100A00001F938BEF93E09F938F930E9426340F9058
:100A10000F900F900F900F900F90083059F080E0DA
:100A20000E94AB2E66E371E080E090E00E94CC155E
:100A30001150E9F6083021F481E00E948D2E08C0A3
:100A400081E00E949C2E80E00E946A2EF8D3FECFA7
:100A500064960FB6F894DEBF0FBECDBFDF91CF9185
:100A60001F910F9108950F931F93CF93DF93EC0184
:100A70008091AA07811118C081E00E943A2562E0A6
:100A800070E080E090E00E94CC1580E00E943A2562
:100A900066E970E080E090E00E94CC150E94F324AB
:100AA0000DDF81E08093AA07EBEAF7E086E081831F
:100AB00082E0808300E010E0980142E050E0BF0156
:100AC000CE010E942C10EC010E9451132297B0F02D
:100AD00083E00E94BD2E6BEA77E080E00E94D8257B
:100AE0000E94C5279F938F938BE194E09F938F93F0
:100AF0000E9426340F900F900F900F90DF91CF91AE
:100B00001F910F910895EF92FF920F939A01E12C9C
:100B1000F12C082F48E851E065EE72E083E395E0A0
:100B20000E94C7120F91FF90EF9008950F9301114B
:100B30000CC0DC01CB0182239323A423B523892B92
:100B40008A2B8B2B79F480E010C0DC01CB0182234F
:100B50009323A423B523281739074A075B0721F0FD
:100B600080E003C081E001C081E00F910895CF9340
:100B7000DF938FE090E0AFD1EC01009739F0FC01FA
:100B80001192119211921192CF018BD2CE01DF916D
:100B9000CF9108952F923F924F925F926F927F92E2
:100BA0008F929F92AF92BF92CF92DF92EF92FF927D
:100BB0000F931F93CF93DF93EC014A015B01622EE9
:100BC000702E0E944B13288039804A805B80A501DB
:100BD0009401C201B101AADF8823A1F0662089F146
:100BE000D501C40180959095A095B095822193215F
:100BF000A421B52188839983AA83BB83C12CD12CDE
:100C0000760122C0C114D104E104F104E9F06110BD
:100C100004C040E050E0BA0104C040E050E060E0B1
:100C200071E071107460482959296A297B2997015C
:100C30008601CE0104960E946316212C312C2101DD
:100C400003C0C12CD12C76010E948B14CD28CE2854
:100C5000CF2859F1811101C0F2D20E94251A6B01EF
:100C60007C0191FD1FC00FB6F8940F92C880D98007
:100C7000EA80FB80072DA5019401C701B60156DF6C
:100C8000882371F0662061F080949094A094B094D1
:100C90008C209D20AE20BF2088829982AA82BB82B0
:100CA0000F900FBE160127015524C201B101DF913B
:100CB000CF911F910F91FF90EF90DF90CF90BF9059
:100CC000AF909F908F907F906F905F904F903F90EC
:100CD0002F9008954F925F926F927F92AF92BF9242
:100CE000CF92DF92EF92FF920F931F93CF93DF93F8
:100CF000EC016A017B018C01095F1F4F0E944B13BD
:100D0000EB85FC8588819981AA81BB81C82AD92A73
:100D1000EA2AFB2AC882D982EA82FB82C12CD12C22
:100D200076013DC0A480B58080819181A281B3818C
:100D3000AC01BD017727B2FD0EC0488059806A80A2
:100D40007B80442255226622772245284628472860
:100D500089F420E012C0488059806A807B80442258
:100D6000552266227722441555056605770521F040
:100D700020E003C021E001C021E0222371F0B0FF98
:100D800004C0C42AD52AE62AF72A488159816A81F3
:100D90007B817260CF010E949E17EA2DFB2DE01728
:100DA000F10709F0BFCFC094D094E094F09488810B
:100DB0009981AA81BB81C822D922EA22FB22C8825A
:100DC000D982EA82FB820E948B14688179818A81B0
:100DD0009B81DF91CF911F910F91FF90EF90DF905A
:100DE000CF90BF90AF907F906F905F904F9008959D
:100DF000EDECF7E0A1EDB7E0B183A083138212829E
:100E0000E1E9F1E1F093CC07E093CB071382128282
:100E10001182108280EC99E013969C938E93129726
:100E2000ED93FC939093C8078093C7079093CA07EC
:100E30008093C90780E090E89093C2078093C10730
:100E40000895CF93DF93EC01ADECB7E001C0DF0173
:100E5000ED91FC911197EC17FD07C8F312968D9157
:100E60009C9113979D01280F391FC217D30749F48E
:100E70002A813B81820F931F13969C938E93129726
:100E8000ED018A819B819E01280F391FE217F3072C
:100E9000C1F42091CB073091CC07E217F30771F032
:100EA00022813381820F931F9B838A83ED91FC9172
:100EB0001197808191819983888305C03983288324
:100EC00002C0F983E883CA17DB0711F0CD93DC93E6
:100ED000DF91CF910895EF92FF920F931F93CF93DD
:100EE000DF938C010E944B138091CB079091CC072C
:100EF000892B09F47DDF8091C1079091C20780237F
:100F00009123892B09F076C00115110549F0C8011C
:100F100004960817190718F000E010E001C08C01D2
:100F20000115110509F469C08091C9079091CA079C
:100F30008017910708F464C0C091CD07D091CE0707
:100F4000EDECF7E002C0FE01EC018A819B81801785
:100F5000910720F4888199810097A9F78091CB07A8
:100F60009091CC07C817D90709F44DC0E080F180F3
:100F700084E0E80EF11C88819981918380832A8125
:100F80003B81201B310B2930310548F0CE01800F09
:100F9000911FFC01338322831B830A8352DF2A8142
:100FA0003B818091C9079091CA07821B930B909354
:100FB000CA078093C9074091C7075091C807841793
:100FC000950720F49093C8078093C7078091C107C5
:100FD0009091C207282B392B3B832A8319821882D0
:100FE0008091C5079091C60701969093C60780939C
:100FF000C5070BC0E12CF12C08C0E12CF12C05C079
:10100000E12CF12C02C0E12CF12C0E948B14E11494
:10101000F10411F40E944820C701DF91CF911F9184
:101020000F91FF90EF9008950F931F93CF93DF934D
:10103000009791F1EC0124974A815B812091C107CF
:101040003091C207BA0162237323672B29F16881AB
:101050007981672B09F520953095242335233B832F
:101060002A830E944B138A819B812091C90730916A
:10107000CA07820F931F9093CA078093C907CE01B6
:10108000E0DE8091C3079091C40701969093C40756
:101090008093C3070E948B14DF91CF911F910F9112
:1010A0000895FC010396928381834FEF5FEFBA01AD
:1010B0004383548365837683908787839287818770
:1010C00010820895FC011386128608950F931F93D2
:1010D000CF93DF93EB01088119812A813B810F3F78
:1010E0004FEF14072407340721F4FC01A185B285D2
:1010F00011C0DC01139601C0DF011496ED91FC9143
:101100001597408151816281738104171507260765
:10111000370790F71496ED91FC911597FD83EC83BA
:10112000D783C683BF83AE831596DC93CE93149783
:101130009B878A87FC0120812F5F2083DF91CF91DD
:101140001F910F910895CF93DF93FC01A285B38582
:10115000C481D581868197819F838E83C681D78103
:10116000848195819D838C8311968D919C9112979A
:10117000E817F90731F48681978112969C938E9334
:101180001197138612868C9181508C938C91DF91EC
:10119000CF910895A89590EC88E10FB6F894A895A2
:1011A000809360000FBE909360000895FC016083FF
:1011B000319770833197108231971082319720E8F0
:1011C0002083319710823197108231971082779760
:1011D00040833197508386970895DCDFA0915412A5
:1011E000B0915512CD91CDBFDD91DEBFFF91EF9152
:1011F000DF91CF91BF91AF919F918F917F916F912F
:101200005F914F913F912F911F910F91FF90EF9020
:10121000DF90CF90BF90AF909F908F907F906F9016
:101220005F904F903F902F901F900F900CBE0F90AB
:101230000BBE0F900FBE0F90089581E008950F929E
:101240000FB6F8940F920BB60F920CB60F921F9236
:1012500011242F923F924F925F926F927F928F92C2
:101260009F92AF92BF92CF92DF92EF92FF920F9335
:101270001F932F933F934F935F936F937F938F931E
:101280009F93AF93BF93CF93DF93EF93FF93A0917F
:101290005412B09155120DB60D920EB60D920E94D9
:1012A000E715A0915412B0915512CD91CDBFDD91AB
:1012B000DEBFFF91EF91DF91CF91BF91AF919F91F1
:1012C0008F917F916F915F914F913F912F911F91DE
:1012D0000F91FF90EF90DF90CF90BF90AF909F90D5
:1012E0008F907F906F905F904F903F902F901F90C6
:1012F0000F900CBE0F900BBE0F900FBE0F90089575
:101300000F920FB6F8940F920BB60F920CB60F9285
:101310001F9211242F923F924F925F926F927F9271
:101320008F929F92AF92BF92CF92DF92EF92FF92F5
:101330000F931F932F933F934F935F936F937F93DD
:101340008F939F93AF93BF93CF93DF93EF93FF93CD
:10135000A0915412B09155120DB60D920EB60D9289
:1013600013BE0E945F1381110E94E715A0915412D1
:10137000B0915512CD91CDBFDD91DEBFFF91EF91C0
:10138000DF91CF91BF91AF919F918F917F916F919D
:101390005F914F913F912F911F910F91FF90EF908F
:1013A000DF90CF90BF90AF909F908F907F906F9085
:1013B0005F904F903F902F901F900F900CBE0F901A
:1013C0000BBE0F900FBE0F9008959ADF1895DC01A9
:1013D00053962C915397222341F05A96ED91FC910C
:1013E0005B9790818AE0891B089580E008950FB68D
:1013F000F8940F92FC01868D811102C081E001C03A
:1014000080E00F900FBE08950FB6F8940F92FC0184
:10141000268D878D281302C081E001C080E00F90E7
:101420000FBE08950F931F93CF93DF93EC01042F0A
:101430001E8D48A141110CC088819981892B09F02A
:1014400042C08C819D810E9463191D821C8242C012
:10145000011117C050E08A819B810E94C73328A1E7
:101460008A819B81820F911D9B838A832C813D8180
:101470008217930750F1888199819B838A8380E04A
:1014800029C050E08E819F810E94C73388A190E0DF
:101490009195819591092E813F81280F391F3F83B6
:1014A0002E83488159812417350730F42C813D81E2
:1014B000820F931F9F838E83023049F4112349F0DA
:1014C000115080E007C080E005C080E003C080E0EC
:1014D00001C080E01F5F1E8FDF91CF911F910F91A0
:1014E0000895FC0140A14423A9F050E026813781F2
:1014F000240F351F37832683848195812817390768
:1015000020F08081918197838683CB0166817781EA
:101510000C94C73308951F93CF93DF93EC010FB65C
:10152000F8940F921AA10BC08B89882351F0CE0139
:1015300043960E94EF1681110E94C5181150111692
:101540009CF38FEF8AA30F900FBE0FB6F8940F9203
:1015500019A10BC08885882351F0CE0108960E94FE
:10156000EF1681110E94C518115011169CF38FEFD0
:1015700089A30F900FBEDF91CF911F910895CF9354
:10158000DF93EC010FB6F8940F92E881F9818F8D0B
:1015900028A190E030E0829FA001839F500D929F90
:1015A000500D11244E0F5F1F5D834C831E8EFB83F5
:1015B000EA830197289FA001299F500D389F500D65
:1015C0001124CF01840F951F9F838E838FEF89A3F2
:1015D0008AA361110BC08885882371F0CE0108961B
:1015E0000E94EF16882341F02ADE06C0CE0108963D
:1015F00058DDCE01439655DD0F900FBE81E0DF919F
:10160000CF9108950F931F93F801611103C01183C7
:10161000008302C051834083878F60A361E0CF01C4
:10162000AEDF1F910F910895DF92EF92FF920F931B
:101630001F93CF93DF93F82EE62ED42E869FC00102
:101640001124839648DCEC01009741F08C012D2D8C
:10165000AC014D5D5F4F6E2D8F2DD4DFCE01DF913C
:10166000CF911F910F91FF90EF90DF900895CF924F
:10167000DF92EF92FF920F931F93CF93DF93CDB73B
:10168000DEB729970FB6F894DEBF0FBECDBF7C0141
:101690006B012E833F834887598710E00FB6F8947B
:1016A0000F92F701968D878D981710F00230B1F4E4
:1016B000402FB601C701B6DEF7019389992341F0A7
:1016C000C70143960E94EF16882321F0B8DD02C0BF
:1016D0008111B5DD0F900FBE81E04CC08E819F81DE
:1016E000A885B985892B8A2B8B2B21F40F900FBEEF
:1016F00080E040C0111105C0CE0101960E944E1835
:1017000011E00F900FBEC7D70FB6F8940F92F701F4
:1017100081A18F3F09F411A2F70182A18F3F09F443
:1017200012A20F900FBEBE016A5F7F4FCE010196DD
:101730000E945F18811119C0C70166DE882381F0FD
:101740004E815F8168857985C70108960E944C1695
:10175000C701E1DE0E948B148111A0CF70DD9ECF06
:10176000C701D9DE0E948B1499CFC701D4DE0E9435
:101770008B1480E029960FB6F894DEBF0FBECDBF64
:10178000DF91CF911F910F91FF90EF90DF90CF905D
:1017900008950F93009769F0FC011582148211825D
:1017A0001082168200E020E030E0A90160E070E0E5
:1017B0005EDF0F910895CF93DF93482F60E081E0C3
:1017C00033DFEC01E6DFCE01DF91CF910895EF9298
:1017D000FF920F931F93CF93DF938A01FC01568DE5
:1017E000378D531710F02230F9F4422F7801EC01B5
:1017F0001AA18E8DCE0116DE1F3F81F48B898823BE
:10180000A9F0CE0143960E94EF16882389F0E114D7
:10181000F10481F081E0F70180830DC0FF24F3948F
:10182000F10EFAA281E007C080E005C081E003C0AC
:1018300081E001C081E0DF91CF911F910F91FF9076
:10184000EF900895CF92DF92EF92FF920F931F9344
:10185000CF93DF93CDB7DEB729970FB6F894DEBFED
:101860000FBECDBF8C016B012E833F834887598704
:10187000E12C0FB6F8940F92F801F68CFF2099F046
:10188000B601C8012EDEFA94F801F68E8085882311
:1018900031F0C80108960E94EF168111D0DC0F903C
:1018A0000FBE81E04FC08E819F81A885B985892BAD
:1018B0008A2B8B2B21F40F900FBE80E043C0E110E8
:1018C00006C0CE0101960E944E18EE24E3940F90BC
:1018D0000FBEE1D60FB6F8940F92F80181A18F3FA9
:1018E00009F411A2F80182A18F3F09F412A20F900E
:1018F0000FBEBE016A5F7F4FCE0101960E945F1846
:10190000811117C0C80173DD882379F04E815F8192
:1019100068857985C80143960E944C16C801FBDD95
:10192000FAD78111A6CF8BDCA4CFC801F4DDF3D7A1
:10193000A0CFC801F0DDEFD7C80159DD882309F435
:1019400098CF80E029960FB6F894DEBF0FBECDBFCA
:10195000DF91CF911F910F91FF90EF90DF90CF908B
:101960000895EF92FF920F931F93CF93DF93CDB71C
:10197000DEB729970FB6F894DEBF0FBECDBF8C013E
:101980004E835F8368877987E12CF12C0FB6F8943A
:101990000F92F801868D8823C9F08150868F80814F
:1019A0009181892B29F40E944F1AF8019583848331
:1019B000F8018085882331F0C80108960E94EF164F
:1019C00081113DDC0F900FBE81E06FC08E819F8141
:1019D000A885B985892B8A2B8B2B21F40F900FBEFC
:1019E00080E063C0F11006C0CE0101960E944E183F
:1019F000FF24F3940F900FBE4ED60FB6F8940F92BB
:101A0000F80181A18F3F09F411A2F80182A18F3F53
:101A100009F412A20F900FBEBE016A5F7F4FCE0184
:101A200001960E945F18811126C0C801E0DC88235E
:101A3000F1F0F80180819181892B51F40FB6F8946F
:101A40000F92848195810E94DC18E82E0F900FBEC2
:101A50004E815F8168857985C80143960E944C1646
:101A6000C80159DD58D7811191CFE9DB8FCFC8016B
:101A700052DD51D78BCFC8014EDD4DD7C801B7DC41
:101A8000882309F483CFEE2079F00FB6F8940F92F3
:101A9000C8019DDC682FF801848195810E94BE19E0
:101AA0000F900FBE80E001C080E029960FB6F89439
:101AB000DEBF0FBECDBFDF91CF911F910F91FF9081
:101AC000EF900895CF93DF93EC010FB6F8940F9247
:101AD00089A18F3F09F419A28AA18F3F09F41AA2A4
:101AE0000F900FBE8E8D811104C0CE0143960E94CF
:101AF000AD16CE0110DDDF91CF910895FC01448138
:101B0000558122813381240F351F80819181B90154
:101B1000681B790BCB016417750710F0841B950BBC
:101B200008950F93FC018FE0DF011D928A95E9F77C
:101B300075876487558344833783268306870F918F
:101B40000895AF92BF92CF92DF92EF92FF920F93E0
:101B50001F93CF93DF936C015B017A01FC01C2817B
:101B6000D381048115810C1B1D0B4017510708F40C
:101B70008A01F60184859585A801B5018C0F9D1F0A
:101B80000E94C7330E151F0558F4A701401B510BC7
:101B9000B501600F711FF601848595850E94C733DA
:101BA000CE018E0D9F1DF60124813581821793078A
:101BB00010F0821B930BF60193838283C701DF91A0
:101BC000CF911F910F91FF90EF90DF90CF90BF903A
:101BD000AF900895CF92DF92EF92FF920F931F93F1
:101BE000CF93DF931F921F92CDB7DEB77C016B01BD
:101BF0005A83498321153105C1F0FC01868580FD9A
:101C000008C04217530708F49A013A83298381E0F8
:101C10000FC02017310758F042E050E0BE016F5F5F
:101C20007F4FC7018EDF81E003C080E001C080E00C
:101C3000882331F049815A81B601C70182DF02C091
:101C400080E090E00F900F90DF91CF911F910F9166
:101C5000FF90EF90DF90CF900895AF92BF92CF9218
:101C6000DF92EF92FF920F931F93CF93DF937C014C
:101C70005B01E9014217530708F4EA01209781F15B
:101C8000F7010081118184819581801B910B6E0188
:101C90008C179D0708F46C01F70164857585600F4A
:101CA000711FA601C5010E94C733CC16DD0658F48A
:101CB000AE014C195D09F70164857585C5018C0D70
:101CC0009D1D0E94C7330C0F1D1FF7018481958154
:101CD0000817190710F0081B190BF701118300836F
:101CE000CE01DF91CF911F910F91FF90EF90DF9088
:101CF000CF90BF90AF9008956F927F928F929F92F6
:101D0000AF92BF92CF92DF92EF92FF920F931F9309
:101D1000CF93DF931F921F92CDB7DEB76C014B01BB
:101D20005A01790101151105B1F0FC016080718043
:101D3000A801BE016F5F7F4F90DF89819A81E01A11
:101D4000F10AA816B90630F4F60171826082A12C5E
:101D5000B12C01C05C019701A501B401C6017DDF72
:101D60000F900F90DF91CF911F910F91FF90EF9007
:101D7000DF90CF90BF90AF909F908F907F906F90AB
:101D80000895CF92DF92EF92FF920F93CF93DF935C
:101D9000EC016B01413011F401E001C000E0C1141D
:101DA000D10419F4CC24C394D12CCE014096C81789
:101DB000D90720F421968FD87C0102C0E12CF12CA8
:101DC000E114F10439F09601AE01B701615F7F4F74
:101DD000C701A7DEC701DF91CF910F91FF90EF9070
:101DE000DF90CF9008950F930FB6F8940F92FC01F7
:101DF00020853185232B71F422853385232B61F4D3
:101E0000268137814481558164857585068589DE03
:101E100081E003C080E001C080E00F900FBE0F9111
:101E20000895FC012481358180819181820F931F67
:101E300042815381841B950B01978217930710F001
:101E4000821B930B08952F923F924F925F926F9255
:101E50007F928F929F92AF92BF92CF92DF92EF923A
:101E6000FF920F931F93CF93DF93CDB7DEB72B97DE
:101E70000FB6F894DEBF0FBECDBF4C017B876A87DB
:101E80001A010E831F8328873987FC01848195817D
:101E90000197268520FF0CC02A01F2E04F0E511C4D
:101EA0008415950558F41E821F821886198606C06F
:101EB0008417950710F02A0101C02C018E819F81A3
:101EC000A885B985892B8A2B8B2B09F438C0CE01C4
:101ED00001960E9438180FB6F8940F92C401A1DF42
:101EE0003C018415950540F560E080E090E00E949B
:101EF000221D0E94C918F401938782870F900FBE9C
:101F0000AE80BF80C884D984E12CF12C00E010E0C1
:101F1000980140E050E0BA0180E00E94611AF401AB
:101F200013861286BE016A5F7F4FCE0101960E9422
:101F30005F18882381F205C00F900FBE02C0612C8C
:101F4000712C6114710419F4C4016BDF3C0182012E
:101F50009301A1016A857B85C4013CDE6C01892B5C
:101F6000E9F0C401CBDDF4012681378182179307A4
:101F7000A8F091D3F40180859185892B71F080853B
:101F80009185E12CF12C00E020E030E0A90160E037
:101F90000E94091BF40111861086BDD4C6012B9640
:101FA0000FB6F894DEBF0FBECDBFDF91CF911F916A
:101FB0000F91FF90EF90DF90CF90BF90AF909F90E8
:101FC0008F907F906F905F904F903F902F900895EB
:101FD000AF92BF92CF92DF92EF92FF920F931F9337
:101FE000CF93DF93EC017B015A0169018E8580FF5D
:101FF00004C08A010E5F1F4F01C08A01CE0111DFAC
:102000009C01A501B701CE01E5DD5C01892BC1F082
:10201000CE0174DD2E813F818217930788F0888579
:102020009985892B69F088859985E12CF12C00E050
:1020300020E030E0A90160E00E94001C19861886AB
:10204000C501DF91CF911F910F91FF90EF90DF902D
:10205000CF90BF90AF9008954F925F926F927F9212
:102060008F929F92AF92BF92CF92DF92EF92FF92A8
:102070000F931F93CF93DF93EC012B013A0158018B
:1020800069018E8580FF05C06894882481F8912CB1
:1020900002C0812C912CA114B104C104D10441F1DE
:1020A0000FB6F8940F92CE0129DD7C0188169906AF
:1020B00048F060E080E090E00E94221D0E94C91874
:1020C000998788870F900FBE8E149F04A0F0E12C93
:1020D000F12C00E010E0980140E050E0BA0180E00F
:1020E0000E94611A19861886CE0108DD7C0103C0A2
:1020F000CE0104DD7C018E149F04E8F48401970175
:10210000A301B201CE01F8DD6C01892BB1F0C3D27D
:102110008A859B85892B69F08A859B85E12CF12C2A
:1021200000E020E030E0A90160E00E94091B1B866E
:102130001A86F1D302C0C12CD12CC601DF91CF91F8
:102140001F910F91FF90EF90DF90CF90BF90AF90D5
:102150009F908F907F906F905F904F900895E09147
:10216000CE11F091CF11808181110CC08FEF9FEFC4
:10217000DC018093981190939911A0939A11B093D8
:102180009B110895E091CE11F091CF110780F08559
:10219000E02D80819181A281B381809398119093E9
:1021A0009911A0939A11B0939B110895CF93DF9347
:1021B000EC018B8D9C8D0E941408CE010E941408A6
:1021C000DF91CF9108954F925F926F927F928F929D
:1021D0009F92AF92BF92CF92DF92EF92FF920F93B6
:1021E000CF93DF932C015B014A013901E60165EAD7
:1021F00070E08B8D9C8D0E94D0338B8D9C8D21E067
:10220000821A9108880E991EA114B10489F415C090
:10221000822F90E0F501E80FF91F3081DE01A80F51
:10222000B91F5D963C938081882329F02F5F01C000
:1022300020E0203168F31CA601C01D8E0A3008F092
:1022400009E00A8F0DA71EA6CE0102960E94620821
:10225000CE010E960E946208DB87CA878AE090E072
:10226000A0E0B0E0801B9109A109B1098E879F878A
:10227000A88BB98BDF8BCE8B84E0FE01BF96DF018C
:102280001D928A95E9F71BAAA301B201C4010E941D
:10229000D60899838883E114F10419F0F701D183FA
:1022A000C083DF91CF910F91FF90EF90DF90CF909F
:1022B000BF90AF909F908F907F906F905F904F9066
:1022C0000895CF93C0E009C02BE0C29FC001112444
:1022D0008A519E4E0E945108CF5FCA30A8F38BED01
:1022E00091E10E94510880ED91E10E94510881EC3A
:1022F00091E10E94510886EB91E10E9451088AEA1F
:1023000091E10E9451088BED91E19093CF11809360
:10231000CE1180ED91E19093CD118093CC11CF91AE
:102320000895CF93DF93EC010FB6F8940F9280914C
:10233000A9118F5F8093A911809154129091551229
:10234000892B51F4D0935512C09354128091A91146
:10235000813091F4B6DF10C08091A31181110CC0BF
:10236000E0915412F0915512928D8A8D891720F0C8
:10237000D0935512C093541280919C118F5F80931B
:102380009C11EA8D8091A4118E1710F4E093A41192
:102390008BE08E9FF0011124EA51FE4E0180F28104
:1023A000E02DFF83EE832681378139872887A68138
:1023B000B7819E012E5F3F4F15963C932E93149745
:1023C00037832683EA8D8E9FF0011124EA51FE4E59
:1023D000FD87EC8780818F5F80830F900FBE809197
:1023E000A311882351F0E0915412F0915512928D6F
:1023F0008A8D981710F40E941F09DF91CF910895DC
:10240000CF93DF931BC00FB6F8940F92E091BD11EC
:10241000F091BE11C085D185CE0102960E94A3081D
:102420008091A91181508093A9118091B51181509B
:102430008093B5110F900FBECE01B8DE8091B5111B
:102440008111E1CFDF91CF9108958F929F92AF924A
:10245000BF92CF92DF92EF92FF92CF93DF936B0107
:102460007C01C42F8090A5119090A611A090A71177
:10247000B090A811809154129091551202960E942A
:10248000A3088FEFC816D806E806F806B1F5CC23E6
:10249000A1F1EAEAF1E1A181B281C0915412D09197
:1024A0005512BF83AE83C0915412D0915512169627
:1024B0008D919C911797998788871696CD91DC917D
:1024C0001797809154129091551202969D838C8398
:1024D0008091541290915512029617969C938E9368
:1024E0001697A0915412B09155121D96FC93EE933D
:1024F0001C9780818F5F80833FC0C80CD91CEA1C69
:10250000FB1CE0915412F0915512C282D382E482F6
:10251000F582C814D904EA04FB0468F460915412EB
:10252000709155128091CC119091CD116E5F7F4FBB
:102530000E94660821C060915412709155128091DA
:10254000CE119091CF116E5F7F4F0E9466088091EF
:10255000981190919911A0919A11B0919B11C81660
:10256000D906EA06FB0640F4C0929811D092991160
:10257000E0929A11F0929B11DF91CF91FF90EF9032
:10258000DF90CF90BF90AF909F908F9008952F9243
:102590003F924F925F926F927F928F929F92AF92F3
:1025A000BF92CF92DF92EF92FF920F93CF93DF9380
:1025B0003C011B014A012901CA010E946B076C0101
:1025C000892B71F084E390E00E946B07EC01892B6A
:1025D00019F0DC8ECB8E06C0C6010E94140802C022
:1025E000C0E0D0E0209761F0A12CB12C6E019201E7
:1025F000A401B101C301E7DDCE0193DE81E001C09A
:102600008FEFDF91CF910F91FF90EF90DF90CF9000
:10261000BF90AF909F908F907F906F905F904F9002
:102620003F902F900895EF92FF920F930F2EF6E9AF
:10263000EF2EF1E1FF2EF02D00E020E030E040EC45
:1026400050E060E374E08DEC90E0A1DF813011F4A4
:102650000E94C61D8130C9F4F8948FEF9FEFDC0112
:102660008093981190939911A0939A11B0939B1114
:1026700081E08093A3111092A5111092A6111092DF
:10268000A7111092A8110E94ED08809106020F91E7
:10269000FF90EF900895809195118F5F8093951131
:1026A00008950FB6F8940F926091A5117091A6113C
:1026B0008091A7119091A8110F900FBE0895CF920D
:1026C000DF92EF92FF92CF93DF938091951181116A
:1026D00005C1C090A511D090A611E090A711F0906F
:1026E000A8118FEFC81AD80AE80AF80AC092A511F3
:1026F000D092A611E092A711F092A811C114D104B2
:10270000E104F104B1F48091CE119091CF112091A8
:10271000CC113091CD113093CF112093CE119093E5
:10272000CD118093CC1180919D118F5F80939D116D
:1027300016DD8091981190919911A0919A11B09104
:102740009B11C816D906EA06FB0620F480E0B2C049
:1027500081E001C080E0E091CE11F091CF11908135
:1027600091110CC04FEF5FEFBA0140939811509355
:10277000991160939A1170939B119CC0E091CE11B6
:10278000F091CF110780F085E02D0084F185E02DD8
:102790004281538164817581C416D506E606F70629
:1027A00048F4409398115093991160939A11709343
:1027B0009B1180C0A485B585C681D78120853185D0
:1027C0003F832E83C085D185268137813D832C832D
:1027D00011964D915C9112979F012E5F3F4F4217CA
:1027E000530731F44085518512965C934E931197AF
:1027F000158614869C9191509C93A08DB18D109755
:1028000009F1C289D389448955895F834E83C4897C
:10281000D589428953895D834C8311966D917C9152
:102820001297AF01425F5F4F6417750731F4448917
:10283000558912965C934E931197118E108E9C9130
:1028400091509C93A28D9091A4119A1710F4A0938B
:10285000A4119BE09A9FD0011124AA51BE4E11965B
:102860000D90BC91A02DB783A68316964D915C91D7
:102870001797518740871696CD91DC9117973D8326
:102880002C8317963C932E931697A28D9A9FD00176
:102890001124AA51BE4EB587A4879C919F5F9C933B
:1028A000228DE0915412F0915512928D291708F063
:1028B0004FCF51CFE0915412F0915512E28D9BE031
:1028C000E99FF0011124EA51FE4E9081923008F008
:1028D00081E090919E11911116C016C080919F11B8
:1028E0009091A011A091A111B091A2110196A11DEA
:1028F000B11D80939F119093A011A093A111B0934B
:10290000A21180E001C081E0DF91CF91FF90EF90B4
:10291000DF90CF900895CF92DF92EF92FF92CF9306
:10292000DF930FB6F8940F928091951181508093A8
:102930009511809195118111BEC08091A9118111CD
:1029400088C0BCC0E091C811F091C9110084F18524
:10295000E02DA08DB18DC289D389848995899F830B
:102960008E83C489D589828993899D838C831196AE
:102970002D913C911297CF010E962817390731F40B
:102980008489958912969C938E931197118E108E3F
:102990008C9181508C93A485B585C681D781808523
:1029A00091859F838E83C085D185868197819D8304
:1029B0008C8311968D919C9112979F012E5F3F4FB2
:1029C0008217930731F48085918512969C938E939C
:1029D0001197158614868C9181508C93A28D8091CD
:1029E000A4118A1710F4A093A4118BE08A9FD00140
:1029F0001124AA51BE4E11960D90BC91A02DB78303
:102A0000A68316964D915C9117975187408716962D
:102A1000CD91DC9117973D832C8317963C932E9391
:102A20001697A28D8A9FD0011124AA51BE4EB58758
:102A3000A4878C918F5F8C93928DA0915412B0914A
:102A400055125A968C91981730F081E080939E1120
:102A500002C0E0E0F0E08091C111811173CFEF2B53
:102A600009F07DDBC0909F11D090A011E090A111E2
:102A7000F090A211C114D104E104F104A1F01FDE11
:102A8000882319F081E080939E1181E0C81AD10853
:102A9000E108F108A1F710929F111092A011109275
:102AA000A1111092A21180919E11882331F00E94F1
:102AB0001F0981E003C080E001C080E00F900FBEDD
:102AC000DF91CF91FF90EF90DF90CF9008958F929C
:102AD0009F92AF92BF92CF92DF92EF92FF921F939D
:102AE000CF93DF93EC016A017B01D5DD8090A511C6
:102AF0009090A611A090A711B090A81188819981FB
:102B0000AA81BB81AC01BD014C0D5D1D6E1D7F1DF9
:102B100088169906AA06BB0660F4481759076A0783
:102B20007B0798F484169506A606B70680F010E099
:102B300013C0481759076A077B0758F08416950693
:102B4000A606B70640F010E007C010E005C011E08F
:102B500003C011E001C011E0488359836A837B837D
:102B6000112341F0CB01BA01681979098A099B093F
:102B700040E06BDCD0DE811102C00E941F09812F72
:102B8000DF91CF911F91FF90EF90DF90CF90BF909A
:102B9000AF909F908F900895CF92DF92EF92FF9227
:102BA0006B017C01672B682B692B39F074DD40E0E9
:102BB000C701B6014ADCAFDE01C080E0811102C06E
:102BC0000E941F09FF90EF90DF90CF9008958091B1
:102BD0009511882321F081E080939E110895109231
:102BE0009E11E0915412F091551220813181E091B3
:102BF0005412F0915512838D948D8217930760F0D3
:102C00006091541270915512635E7F4F80915412FF
:102C1000909155120E9454208091A41101C08150BE
:102C2000282F30E09BE0929FF001939FF00D11243C
:102C3000EA51FE4E9081992391F39BE0929FA0016F
:102C4000939F500D1124DF010180F281E02D04805B
:102C5000F581E02D1296FC93EE93119747515E4E4D
:102C6000E417F50729F444815581FD01528341831E
:102C70009BE0929FF001939FF00D1124EA51FE4ECC
:102C80000180F281E02D208531853093551220930B
:102C900054128093A4110895CF92DF92EF92FF9285
:102CA0006A017B016091541270915512625F7F4FEF
:102CB0000E94660841E0C701B601C7DBFF90EF90B4
:102CC000DF90CF9008950F931F93CF93DF93FC0174
:102CD000A0915412B091551270681E964D935D9359
:102CE0006D937C935197A181B281C0915412D09180
:102CF0005512BB8BAA8BC0915412D09155121696C7
:102D00008D919C9117979D8B8C8B1696CD91DC9114
:102D1000179780915412909155120E969D838C8333
:102D200080915412909155120E9617969C938E9303
:102D30001697A0915412B09155125996FC93EE93A8
:102D4000589780818F5F808341E0C901B8017DDBA6
:102D5000DF91CF911F910F910895CF93DF93FC01E5
:102D6000CB01BA01A181B281C0915412D091551208
:102D7000BB8BAA8BC0915412D091551216964D91CF
:102D80005C9117975D8B4C8B1696CD91DC911797C4
:102D90004091541250915512425F5F4F5D834C83B6
:102DA0004091541250915512425F5F4F17965C93B9
:102DB0004E931697A0915412B09155125996FC93C8
:102DC000EE93589730813F5F3083222319F06FEFE5
:102DD0007FEFCB01422F39DBDF91CF910895CF9365
:102DE000DF93DC011796ED91FC9118970084F18533
:102DF000E02DA08DB18DC289D389848995899F8367
:102E00008E83C489D589828993899D838C83119609
:102E10008D919C9112979F01225F3F4F82179307DC
:102E200031F48489958912969C938E931197118E13
:102E3000108E8C9181508C9380919511811152C08C
:102E4000A485B585C681D781808591859F838E8332
:102E5000C085D185868197819D838C8311968D91C4
:102E60009C9112979F012E5F3F4F8217930731F479
:102E70008085918512969C938E9311971586148662
:102E80008C9181508C93A28D8091A4118A1710F49B
:102E9000A093A4118BE08A9FD0011124AA51BE4EA9
:102EA00011960D90BC91A02DB783A68316964D91D7
:102EB0005C911797518740871696CD91DC911797B3
:102EC0003D832C8317963C932E931697A28D8A9F51
:102ED000D0011124AA51BE4EB587A4878C918F5F73
:102EE0008C931CC041EC51E1DA011196CD91DC913B
:102EF0001297D38BC28B8E819F81958B848B8E8111
:102F00009F81DC0115963C932E9314973F832E836B
:102F1000518F408FDA018C918F5F8C93928DE0916D
:102F20005412F0915512828D891720F481E080931C
:102F30009E1101C080E0DF91CF910895CF93DF9380
:102F4000DC0170684D935D936D937C931397189695
:102F5000ED91FC9119971A964D915C911B971496DF
:102F60008D919C91159716962D913C911797EC0198
:102F70003F832E8316968D919C91179714962D91D1
:102F80003C911597EC013D832C83EA0189819A815C
:102F9000A817B90731F416968D919C9117979A83CB
:102FA00089831B961C921E921A97DA018C9181508C
:102FB0008C93A485B585C681D781808591859F83B3
:102FC0008E83C085D185868197819D838C83119660
:102FD0008D919C9112979F012E5F3F4F821793070F
:102FE00031F48085918512969C938E931197158666
:102FF00014868C9181508C93A28D8091A4118A1794
:1030000010F4A093A4118BE08A9FD0011124AA513F
:10301000BE4E11960D90BC91A02DB783A683169637
:103020004D915C911797518740871696CD91DC9111
:1030300017973D832C8317963C932E931697A28D5A
:103040008A9FD0011124AA51BE4EB587A4878C91C6
:103050008F5F8C93928DE0915412F0915512828D76
:10306000891718F481E080939E11DF91CF91089524
:103070000FB6F8940F9220919D11FC01208340918E
:10308000A5115091A6116091A7117091A8114183CB
:103090005283638374830F900FBE089520919D1116
:1030A000FC0120834091A5115091A6116091A711B8
:1030B0007091A811418352836383748308958F9222
:1030C0009F92AF92BF92CF92DF92EF92FF920F93B7
:1030D0001F93CF93DF93FB010FB6F8940F92C0902C
:1030E000A511D090A611E090A711F090A811DC01D5
:1030F00011960D911D912D913C9114974601570108
:10310000801A910AA20AB30A4081518162817381B7
:103110004F3FBFEF5B076B077B0739F1EC01B881CD
:10312000A0919D11BA1759F0C016D106E206F30618
:1031300030F0108211821282138281E017C084164F
:103140009506A606B70658F4481959096A097B0975
:103150004083518362837383A1DF80E007C01082C4
:1031600011821282138281E001C080E00F900FBEB5
:10317000DF91CF911F910F91FF90EF90DF90CF9053
:10318000BF90AF909F908F90089581E080939E11A3
:103190000895809154129091551208958091A31131
:1031A000882331F080919511811104C082E0089547
:1031B00081E0089580E008950F931F93CF93DF93EC
:1031C000FC01892B09F477C0828DA0915412B09133
:1031D00055125A969C91891708F063C04685578509
:1031E00060897189772394F0A0915412B09155129F
:1031F0005A969C914AE050E060E070E0491B51090A
:103200006109710946875787608B718B24853585E5
:103210004BE0849FC00111248A519E4E2817390724
:10322000B9F5EF018F010E5F1F4FC8010E94A3087F
:10323000E0915412F0915512E28DEA8F8091A41121
:103240008E1710F4E093A4118BE08E9FF0011124EF
:10325000EA51FE4E0180F281E02DFF83EE8326814C
:10326000378139872887A681B78115961C930E93DD
:10327000149717830683EA8D8E9FF0011124EA517B
:10328000FE4EFD87EC8780818F5F808381E016C0D2
:10329000A0915412B09155125A968C91828F81E070
:1032A0000DC095A5E0915412F0915512828D98179A
:1032B00020F080E003C080E001C081E0DF91CF9189
:1032C0001F910F9108950F931F93CF93DF93FC01EC
:1032D000892B09F449C086A5815086A7228D95A522
:1032E000291709F443C0811143C0EF018F010E5F1C
:1032F0001F4FC8010E94A308EDA5EA8F8AE090E065
:10330000A0E0B0E08E1B9109A109B1098E879F87CB
:10331000A88BB98B8091A4118E1710F4E093A4119F
:103320008BE08E9FF0011124EA51FE4E0180F28164
:10333000E02DFF83EE832681378139872887A68198
:10334000B78115961C930E93149717830683EA8D05
:103350008E9FF0011124EA51FE4EFD87EC8780819B
:103360008F5F808381E005C080E003C080E001C002
:1033700080E0DF91CF911F910F9108950F931F93DC
:10338000CF93DF93FC01892B09F45AC085A58617DA
:1033900008F4862F928D891709F452C026A5213092
:1033A00009F04EC0828F46855785608971897723E1
:1033B00064F04AE050E060E070E0481B51096109A8
:1033C000710946875787608B718B248535854BE063
:1033D000949FC00111248A519E4E2817390781F508
:1033E000EF018F010E5F1F4FC8010E94A308EA8DF5
:1033F0008091A4118E1710F4E093A4118BE08E9F9E
:10340000F0011124EA51FE4E0180F281E02DFF838C
:10341000EE832681378139872887A681B781159663
:103420001C930E93149717830683EA8D8E9FF001E9
:103430001124EA51FE4EFD87EC8780818F5F8083E7
:10344000DF91CF911F910F910895CF92DF92EF926C
:10345000FF92E0915412F09155126685778580892C
:103460009189E0915412F0915512A0915412B091AB
:1034700055125A962C910F2EFAE0CF2ED12CE12C1A
:10348000F12CF02DC21AD108E108F108C686D786C2
:10349000E08AF18AFF90EF90DF90CF9008958091BD
:1034A000541290915512892B39F0E0915412F091F9
:1034B000551286A58F5F86A7809154129091551260
:1034C00008954F925F926F927F92AF92BF92CF9288
:1034D000DF92EF92FF920F931F93CF93DF93280118
:1034E00039010FB6F8940F92E0915412F0915512F1
:1034F000C82FD0E0EC0FFD1F83A9823079F1E09155
:103500005412F0915512CE01880F991F880F991F00
:10351000E80FF91F87A590A9A1A9B2A940955095D8
:1035200060957095482359236A237B2347A750ABA6
:1035300061AB72ABE0915412F0915512EC0FFD1F8C
:1035400081E083ABA114B104C104D10439F041E09E
:10355000C601B5010E9425120E941F090F900FBEDF
:103560000FB6F8940F92E114F104A1F0E091541217
:10357000F0915512CE01880F991F880F991FE80FFF
:10358000F91F87A590A9A1A9B2A9F701808391830A
:10359000A283B383E0915412F0915512EC0FFD1FFA
:1035A00083A98230E9F4E0915412F0915512CE01D2
:1035B000880F991F880F991FE80FF91F87A590A9F9
:1035C000A1A9B2A9409450946094709448225922C1
:1035D0006A227B2247A650AA61AA72AA81E001C092
:1035E00080E02091541230915512C20FD31F1BAAB4
:1035F0000F900FBEDF91CF911F910F91FF90EF9031
:10360000DF90CF90BF90AF907F906F905F904F9082
:1036100008958F929F92AF92BF92EF92FF920F9375
:10362000CF93DF93DC010FB6F8940F92E114F1040D
:1036300089F0E62FF0E0EE0FFF1FEE0FFF1FE80FFF
:10364000F91F87A490A8A1A8B2A8F701808291824F
:10365000A282B38270E0FD01E60FF71F83A992E01A
:1036600093AB023001F118F4013031F04DC003305A
:1036700079F10430D1F148C0660F771F660F771FCC
:10368000FD01E60FF71F87A490A8A1A8B2A8BA0170
:10369000A901482959296A297B2947A750AB61AB61
:1036A00072AB01E034C0660F771F660F771FFD0114
:1036B000E60FF71F47A550A961A972A94F5F5F4F99
:1036C0006F4F7F4F47A750AB61AB72AB01E01FC09C
:1036D000660F771F660F771FFD01E60FF71F27A7FD
:1036E00030AB41AB52AB01E012C0823079F0660FD3
:1036F000771F660F771FFD01E60FF71F27A730AB77
:1037000041AB52AB01E003C001E001C000E08130F9
:1037100009F069C01C96ED91FC911D971696CD910C
:10372000DC91179718968D919C9119979F838E83A2
:103730001896CD91DC91199716968D919C911797BB
:103740009D838C83818192819D012E5F3F4F8217E3
:10375000930731F418968D919C91199792838183E8
:103760001D961C921E921C978081815080835A96D0
:10377000EC915A978091A4118E1710F4E093A41144
:103780008BE08E9FF0011124EA51FE4E0180F28100
:10379000E02D1796FC93EE93169746815781199664
:1037A0005C934E931897C681D7813D832C833783D2
:1037B00026835A96EC915A978E9FF0011124EA5174
:1037C000FE4E1D96FC93EE931C9780818F5F808345
:1037D0005A969C91E0915412F0915512828D89175E
:1037E00010F40E941F090F900FBE802FDF91CF9120
:1037F0000F91FF90EF90BF90AF909F908F900895A2
:103800008F929F92AF92BF92CF92DF92EF92FF92F0
:103810000F93CF93DF93DC01E114F10489F0E62FDD
:10382000F0E0EE0FFF1FEE0FFF1FE80FF91F87A458
:1038300090A8A1A8B2A8F70180829182A282B38247
:1038400070E0FD01E60FF71F93A982E083AB023021
:1038500001F118F4013031F04DC0033079F104303A
:10386000D1F148C0660F771F660F771FFD01E60F85
:10387000F71F87A490A8A1A8B2A8BA01A901482956
:1038800059296A297B2947A750AB61AB72AB81E00C
:1038900034C0660F771F660F771FFD01E60FF71F15
:1038A00047A550A961A972A94F5F5F4F6F4F7F4F26
:1038B00047A750AB61AB72AB81E01FC0660F771FAB
:1038C000660F771FFD01E60FF71F27A730AB41AB4F
:1038D00052AB81E012C0923079F0660F771F660F0D
:1038E000771FFD01E60FF71F27A730AB41AB52ABA7
:1038F00081E003C081E001C080E0913009F096C012
:103900009091951191115FC01C96ED91FC911D97BE
:103910001696CD91DC91179718962D913C91199799
:103920003F832E831896CD91DC91199716962D9191
:103930003C9117973D832C83418152819D012E5FDD
:103940003F4F4217530731F418964D915C911997E8
:10395000528341831D961C921E921C979081915018
:1039600090835A96EC915A979091A4119E1710F457
:10397000E093A4119BE09E9FF0011124EA51FE4EBA
:103980000180F281E02D1796FC93EE931697468105
:10399000578119965C934E931897C681D7813D83C2
:1039A0002C83378326835A96EC915A979E9FF00179
:1039B0001124EA51FE4E1D96FC93EE931C979081C4
:1039C0009F5F908321C061EC71E1FB01C181D281D5
:1039D0005396DC93CE9352972E813F8155963C931C
:1039E0002E9354974E815F819D01225F3F4FFA01D4
:1039F000358324833F832E8359967C936E93589707
:103A0000FB0190819F5F90835A962C91E091541214
:103A1000F0915512928D921748F4C114D10419F007
:103A200091E0F601908391E090939E11DF91CF9108
:103A30000F91FF90EF90DF90CF90BF90AF909F904D
:103A40008F900895009721F480915412909155120F
:103A50000FB6F8940F9270E0FC01E60FF71F23A950
:103A6000223031F4FC01E60FF71F13AA81E001C0F8
:103A700080E00F900FBE0895DC01E0916012F0919C
:103A80006112808191E0811190E09C93911108C0B6
:103A90000780F085E02D6081718182819381089596
:103AA00060E070E0CB010895CF92DF92EF92FF9239
:103AB0000F931F93FC014283538364837583938721
:103AC00082870417150726073707C0F00C191D0950
:103AD0002E093F0986859785A089B189081719079E
:103AE0002A073B0700F5BF016E5F7F4F80915E1292
:103AF00090915F120E94660880E018C00C151D05A9
:103B00002E053F0528F44C155D056E057F0568F40C
:103B1000BF016E5F7F4F80916012909161120E9491
:103B2000660880E003C081E001C081E01F910F9131
:103B3000FF90EF90DF90CF9008950FB6F8940F921A
:103B400080915C1290915D12892BE9F48DE692E1EF
:103B50000E94510882E692E10E9451088DE692E1AE
:103B6000909361128093601282E692E190935F12CB
:103B700080935E1240E067E08AE00E94140B90930D
:103B80005D1280935C120F900FBE0895EF92FF922A
:103B90000F93D3DF80915C1290915D12892B91F08D
:103BA0000F2EFAE5EF2EF2E1FF2EF02D03E020E0DC
:103BB00030E040EC50E065E374E088ED90E00E9476
:103BC000C71201C080E00F91FF90EF9008958F928F
:103BD0009F92AF92BF92CF92DF92EF92FF920F939C
:103BE0001F93CF93DF93CDB7DEB727970FB6F89427
:103BF000DEBF0FBECDBFE0915C12F0915D12309739
:103C000081F169832A833B834C835D839F838E8309
:103C10006630F4F4C3DA823069F400E0A70196015B
:103C2000BE016F5F7F4F80915C1290915D120E9488
:103C3000370B18C000E020E030E0A901BE016F5F43
:103C40007F4F80915C1290915D120E94370B0AC0E9
:103C500020E0A801BE016F5F7F4FCF010E94E70BFC
:103C600001C080E027960FB6F894DEBF0FBECDBF2F
:103C7000DF91CF911F910F91FF90EF90DF90CF9048
:103C8000BF90AF909F908F9008958F929F92AF9228
:103C9000BF92CF92DF92EF92FF920F931F93CF9339
:103CA000DF933BC00780F085E02D80809180A2806B
:103CB000B380C085D1858E010E5F1F4FC8010E9461
:103CC000A308EC89FD89CE0119958E8982FF25C054
:103CD0008E859F85A889B989880D991DAA1DBB1D50
:103CE00088169906AA06BB0670F48A839B83AC8368
:103CF000BD83DB87CA87B801809160129091611201
:103D00000E9466080AC0C12CD12C760100E010E0A8
:103D1000A501940160E0CE015ADFE0916012F091BC
:103D2000611280818111BECF80915E1290915F12ED
:103D30009093611280936012F0935F12E0935E1291
:103D4000DF91CF911F910F91FF90EF90DF90CF9077
:103D5000BF90AF909F908F900895CF92DF92EF9297
:103D6000FF92CF93DF93EC010E9451136B017C0112
:103D70008091561290915712A0915812B0915912F9
:103D8000C816D906EA06FB0620F47FDF81E08883A7
:103D900001C01882C0925612D0925712E092581267
:103DA000F0925912C701B601DF91CF91FF90EF90C9
:103DB000DF90CF9008954F925F926F927F928F9293
:103DC0009F92AF92BF92CF92DF92EF92FF920F93AA
:103DD0001F93CF93DF934B015C0129013A01E091DE
:103DE0006012F09161120780F085E02DC085D185C9
:103DF000CE0102960E94A3088E8982FF1BC04E85C9
:103E00005F8568897989480D591D6A1D7B1D75017B
:103E1000640193018201CE0147DE882369F0C12C41
:103E2000D12C760100E010E0A501940160E0CE0104
:103E3000CEDE02C08E7F8E8BEC89FD89CE01199576
:103E4000DF91CF911F910F91FF90EF90DF90CF9076
:103E5000BF90AF909F908F907F906F905F904F90AA
:103E600008958F929F92AF92BF92CF92DF92EF927E
:103E7000FF921F93CF93DF931F92CDB7DEB76B01F5
:103E80007C01142F0E944B13CE01019666DF4B017B
:103E90005C01898181112DC011110DC08C149D040C
:103EA000AE04BF0440F00E948B14A5019401C70129
:103EB000B60181DF20C0112341F0E0915E12F09144
:103EC0005F12808111E0811110E0B701A60148194D
:103ED00059096A097B09212F80915C1290915D122A
:103EE0000E94620D0E948B14811105C00E941F095F
:103EF00002C00E948B140F90DF91CF911F91FF9011
:103F0000EF90DF90CF90BF90AF909F908F900895EB
:103F1000AF92BF92CF92DF92EF92FF920F931F93D7
:103F2000CF93DF93CDB7DEB728970FB6F894DEBFF7
:103F30000FBECDBF82C0898188230CF47EC0AE80C5
:103F4000BF80D5011C968D919C911D97892B21F0E6
:103F5000C50102960E94A308CE010896FEDE8B01E1
:103F60009C01E9810E2E000CFF0BEA30F10508F0F0
:103F700064C08827EE58FF4F8F4F0C949A32F5019A
:103F800086898160868BCA80DB80EC80FD804685D7
:103F90005785608971894C0D5D1D6E1D7F1DC501A2
:103FA00083DD882309F449C0D5015496ED91FC9135
:103FB0005597C5011995F501868982FF3EC04A8152
:103FC0005B816C817D8186859785A089B1899A0105
:103FD000AB01280F391F4A1F5B1FC12CD12C760162
:103FE00000E010E060E0C501F2DD27C0D501569683
:103FF0008C9156978E7F56968C931FC0F5018689BB
:104000008160868B4A815B816C817D814687578781
:10401000608B718B400F511F621F731F6801790104
:10402000C50142DD0AC0F501868981FD04C0C501D4
:104030000E94140802C08E7F868B20E030E0A90128
:10404000BE016F5F7F4F80915C1290915D120E9464
:10405000220C811170CF28960FB6F894DEBF0FBEE8
:10406000CDBFDF91CF911F910F91FF90EF90DF9027
:10407000CF90BF90AF900895089584B1806884B9BF
:1040800085B1806885B9089583B1806883B9089542
:10409000F4DF2FEF80E792E0215080409040E1F77D
:1040A00000C00000F1DFF5CFE8DF2FEF87EA91E6EF
:1040B000215080409040E1F700C00000E5DFF5CFDF
:1040C0002F923F924F925F926F927F928F929F9228
:1040D000AF92BF92CF92DF92EF92FF920F931F9316
:1040E000CF93DF93882E962E1A012801390186E09E
:1040F00090E00E94A232EC01892B99F1198218827A
:104100001B821A82309283122092821240927E1277
:1041100050927F126092801270928112F0927D1202
:10412000E0927C12A0927812B0927912C0927A1228
:10413000D0927B12B9D2B8D2811116C0492D50E06D
:1041400048535F4F7E0184E0E80EF11C082D9E016C
:104150006DE374E088E391E20E94C7128C2F9D2FDB
:1041600005C080E090E002C08C2F9D2FDF91CF91A1
:104170001F910F91FF90EF90DF90CF90BF90AF9085
:104180009F908F907F906F905F904F903F902F9077
:104190000895CF92DF92EF92FF920F931F93CF93E8
:1041A000DF93EC0140917E1250917F12609180125A
:1041B00070918112CC24CA94DC2C760101E021E0BC
:1041C00080918212909183120E94CA0500917E1202
:1041D00010917F122091801230918112DC01CB016D
:1041E00080239123A223B323081719072A073B072B
:1041F000B1F575D262E370E080E090E00E94CC15EA
:104200006ED2882341F06BD262E370E080E090E0F0
:104210000E94CC15F8CF78D265E070E080E090E0A5
:104220000E94CC1559D2882331F0BAD29B838A835D
:1042300091D29983888368EE73E080E090E00E94D9
:10424000CC15409178125091791260917A12709148
:104250007B1280917C1290917D120E946A06DF9100
:10426000CF911F910F91FF90EF90DF90CF90089525
:10427000EC01CE018EDFFDCFFC018081918108959C
:10428000FC018281938108950F931F93CF93DF9355
:10429000CDB7DEB764970FB6F894DEBF0FBECDBFC3
:1042A00081E00E94472EF4D370D69F938F938EEEB9
:1042B00092E09F938F930E94263468D566D69F9391
:1042C0008F9381E093E09F938F930E9426348E0119
:1042D0000F5F1F4FC801EED358D61F930F939F93C4
:1042E0008F938AE193E09F938F930E942634C801B5
:1042F000FDD34BD69F938F931F930F938EE293E042
:104300009F938F930E942634A80163E473E084E6B0
:1043100093E01AD63AD69F938F931F930F9383E41B
:1043200093E09F938F9384E693E09F938F9385E729
:1043300093E09F938F930E9426340BD426D69F93AD
:104340008F938BEA93E09F938F930E9426340FB64E
:10435000F894DEBF0FBECDBF81E0F5D416D69F9393
:104360008F938AEB93E09F938F930E94263484EF80
:1043700091E0F4D40AD69F938F9381E08F9384EFDA
:104380008F938BED93E09F938F930E9426340FB60B
:10439000F894DEBF0FBECDBF1AE080E0E0D3082F57
:1043A000F4D59F938F931F921F938BEF93E09F936E
:1043B0008F930E9426340F900F900F900F900F90C4
:1043C0000F90083059F080E00E94AB2E66E371E058
:1043D00080E090E00E94CC151150F9F6083021F4ED
:1043E00081E00E948D2E09C081E00E949C2E80E019
:1043F0000E946A2E0E941F09FDCF64960FB6F894A2
:10440000DEBF0FBECDBFDF91CF911F910F910895F9
:10441000CF93DF9300D01F92CDB7DEB781E02AD3D0
:1044200062E070E080E090E00E94CC1580E022D352
:1044300066E970E080E090E00E94CC15D4D224DFE1
:10444000E4E8F2E186E0818382E080830E945113F8
:1044500069837A838B839C8348EA58E460E070E048
:10446000CE0101960E946715E4E8F2E180E38283C1
:1044700089E3838382E0848383EA858384E086837F
:104480008AE1878383E00E94BD2E64E872E180E0C8
:104490008FD37BD59F938F938BE194E09F938F93E2
:1044A0000E9426340F900F900F900F90D5CFEF926F
:1044B000FF920F93E12CF12C082F20E030E048E828
:1044C00051E06EE474E088E092E20E94C7120F911E
:1044D000FF90EF9008958F929F92AF92BF92CF92EC
:1044E000DF92EF92FF920F931F93CF93DF930E947F
:1044F000B7059093E2138093E1130E94B705909360
:10450000E8138093E71341E060E070E08CE290E014
:104510000E94C10E9093CA138093C91341E060E0DA
:1045200070E08CE290E00E94C10E9093E6138093BD
:10453000E51385E594E00E9439340E942302E0905F
:10454000E713F090E8134091E1135091E213A12C8E
:10455000B12C65016894A5F808E010E020E030E097
:1045600060EC82E00E9409014C01E090E713F090BA
:10457000E8134091E1135091E213A12CB12C650195
:104580006894A4F801E010E020E030E060EC82E004
:1045900097DDC82FD92F0E945104E090E713F090C7
:1045A000E8134091E1135091E2138091CA138F9365
:1045B0008091C9138F93DF93CF930F2EF0E3AF2E2B
:1045C000B12CC12CD12CF02D09E010E020E030E01E
:1045D00060EC84E00E948F024091C9135091CA138D
:1045E00060EC81E00E9483054091E5135091E61351
:1045F00060EC81E00E943E040F900F900F900F90AE
:10460000DF91CF911F910F91FF90EF90DF90CF90AE
:10461000BF90AF909F908F90089581B1816881B9CC
:1046200080E00E94F22C85E00E94F92D60E070E0AD
:1046300081E0E0D183E090E03ACF0895EEDF4BDFF8
:104640008AE794E00E9439340E941313FFCF65304B
:10465000F1F4FA0180818F7390E0982F88272181EF
:10466000822B90930A02809309028281F0E48F9F4B
:10467000C0011124FA01238126952695822B90935F
:1046800008028093070281E080939A1208956430B3
:1046900051F080E090E49093080280930702909399
:1046A0000A028093090208950F931F9307E213E211
:1046B00020E034E244EF50E060E087E20E94E02E28
:1046C00090939C1280939B1221E0892B09F020E0AB
:1046D000822F1F910F91089580919A1208958091D1
:1046E0009B1290919C12009759F040E060E070E0BE
:1046F0000E94312F843031F410929A1280E0089594
:1047000082E0089583E0089580919B1290919C121D
:10471000009739F064E00E947D2F853021F083E01E
:10472000089582E0089580E00895609109027091F3
:104730000A0280E090E00E94873120E030E048ECFF
:1047400052E40E94153220E038EF4FE756E40C9413
:10475000EE300895EADF20E030E040E251E40E94CC
:1047600015320E945B31CB01089560910702709170
:10477000080280E090E00E94873120E030E045E2CE
:1047800053E40E94153220E038EF4FE756E40E94D0
:10479000EE3020E030E040E252E40C94893008959D
:1047A000E4DF20E030E040E251E40E9415320E9454
:1047B0005631CB0108950F931F93CF93DF931F9230
:1047C0001F92CDB7DEB78C0119822DC0E091D412B3
:1047D000EC3250F481E08E0F8093D412F0E0EA5F67
:1047E000FC4E8A81808302C01092D4128A818A3062
:1047F000D1F44091D41250E0FA01EC5FFC4E1082EB
:10480000415051099E012F5F3F4F66E073E1809157
:10481000D7129091D8120E94E80F898181110E94CD
:104820001F091092D412BE016E5F7F4FC80144D69B
:10483000882361F20F900F90DF91CF911F910F911C
:1048400008950F931F93CF93DF938C01EB01809119
:10485000D7129091D8120E94F30EB8018DE992E11F
:104860000E940734209779F0EDE9F2E101900020F1
:10487000E9F7319780E290E091838083BE018DE972
:1048800092E10E94FC33EDE9F2E1DF010D9000209E
:10489000E9F711978DE09AE011969C938E9312960A
:1048A0001C9201900020E9F73197ED59F241AE2FAB
:1048B0008DE992E1AC016A2F8091D9129091DA12C0
:1048C000A6D5811111C008E215E020E030E04DE2EC
:1048D00050E060E673E18091D7129091D8120E9467
:1048E0002C1080E693E102C080E090E0DF91CF9150
:1048F0001F910F9108952F923F924F925F926F9266
:104900007F928F929F92AF92BF92CF92DF92EF925F
:10491000FF920F931F93CF93DF935C01FC010190F3
:104920000020E9F731976F01C81AD90A5C2C0F2EC5
:10493000F5E28F2EF7E09F2EF02DE12CF12C4C2C80
:104940003701F40101811281E80109900020E9F7A3
:104950002197C01BD10B3C2EF9E0CF16D10458F0A3
:10496000F4012080FEE02F1206C0B801C5010E94AC
:10497000D733892B09F5442D351408F44C2F50E01A
:10498000B801C5010E940E34892B49F4F301EE0FE2
:10499000FF1FE60DF71DEB5DF84F20800DC08FEF78
:1049A000E81AF80AE3E08E0E911CF1E1EF16F1042B
:1049B00039F66894222424F8822DDF91CF911F913B
:1049C0000F91FF90EF90DF90CF90BF90AF909F90AE
:1049D0008F907F906F905F904F903F902F900895B1
:1049E00030DF89CF08958091D7129091D8120C941E
:1049F000F30E08958F929F92AF92CF92EF920F9302
:104A00001F93CF93C82F8B0141E060E070E088ECEA
:104A100090E00E94C10E9093D8128093D712109309
:104A2000D6120093D5120F2EFBED8F2EF3E29F2EA0
:104A3000F02D6894AA24A6F86894CC24C6F8E12C3A
:104A400000E023E040E051EE60E070E08C2F12D4F3
:104A50009093DA128093D912E7E0F1E080818061CF
:104A60008083CF911F910F91EF90CF90AF909F9047
:104A70008F900895882331F0E8E0F1E080818F7E07
:104A800080830895E8E0F1E080818061808308956B
:104A900060E070E08BEA94E0D4DEE0E6F3E10190C0
:104AA0000020E9F73197E056F34181E0759708F06F
:104AB00080E00895CF93DF93EC0160E070E08CEB31
:104AC00094E0BFDEE0E6F3E101900020E9F7E15772
:104AD000F34139F460E673E1CE010E94073480E0CF
:104AE00002C0188281E0DF91CF910895FC0101900E
:104AF0000020E9F79F01215131092817390729F4CE
:104B0000BC018AEE94E06CCF089589E00895FC0121
:104B100001900020E9F79F01215131092817390739
:104B200029F4BC0189EF94E05BCF089589E00895F2
:104B3000FC0101900020E9F79F012152310928175B
:104B4000390729F4BC0188E095E04ACF089589E04F
:104B5000089560E070E087E495E042CF08950F93F8
:104B60001F93E82FF0E0EE0FFF1FEF5DF84F60811D
:104B7000718180E595E034DF811114C008E215E011
:104B800020E030E04DE250E060E673E18091D71222
:104B90009091D8120E942C10882321F080E693E196
:104BA000AADE03C080E693E1A6DE1F910F9108956F
:104BB0000F931F93CF93DF931F92CDB7DEB7DB0127
:104BC00011969C911197953108F0B4C0992381F109
:104BD00060E070E0272F30E0462F50E0FD01E40F49
:104BE000F51F928192959F709A3010F0995C01C0E8
:104BF000905DF901EF50FD4E90832F5F3F4FFD0117
:104C0000E40FF51F92819F70492F50E04A30510503
:104C100014F0995C01C0905DF901EF50FD4E908356
:104C20007E5F6F5F11969C911197691798F201C092
:104C300070E0E72FF0E0EF50FD4E10824C918111B3
:104C400003C089E595E002C08BE595E021EF32E1F4
:104C50003F932F931F924F939F938F938FE595E0F0
:104C60009F938F9383E393E19F938F930E94693483
:104C700060E070E083E393E1B3DE0FB6F894DEBF4B
:104C80000FBECDBF811159C008E215E020E030E031
:104C90004DE250E060E673E18091D7129091D81216
:104CA0000E942C10882309F447C080E693E123DE9C
:104CB0008E3009F042C087E089838091D5129091AF
:104CC000D612892BA9F1BE016F5F7F4F80E693E179
:104CD00068D18093DB12E981F0E0E05AFC4EDF01FD
:104CE0000D900020E9F71197AE1BBF0BAA2391F09E
:104CF000BB27CD0101979C0112F42F5F3F4F3595E3
:104D000027952093DC12AF014F5F5F4F64E18DED7B
:104D100092E173D101E010E020E030E046E150E0A4
:104D20006BED72E18091D5129091D6120E94230F03
:104D30008EE003C084E101C080E00F90DF91CF914D
:104D40001F910F910895813019F06FE675E002C050
:104D500068E476E083E795E043CE08959F938F93D0
:104D600084EA95E09F938F9383E393E19F938F93DE
:104D70000E94693460E070E083E393E131DE0F90DC
:104D80000F900F900F900F900F9008952F923F92D9
:104D90004F925F926F927F928F929F92AF92BF924B
:104DA000CF92DF92EF92FF920F931F93CF93DF93F7
:104DB000CDB7DEB7A0970FB6F894DEBF0FBECDBF5C
:104DC00061ED75E08DED95E03CDD95DD8111A3C0D1
:104DD00080E2E2E2F2E0DE01119601900D928A9506
:104DE000E1F79E012F5F3F4F6901E12CF12C0F2E5F
:104DF000F9EEAF2EF5E0BF2EF02D03E313E10F2EF9
:104E0000F2E04F2EF6E05F2EF02D0F2EF9E18F2EFF
:104E1000F6E09F2EF02D0F2EF3E36F2EF6E07F2E9F
:104E2000F02D3E2C2F2CFF92EF92BF92AF921F934A
:104E30000F930E94693460E070E0C80102DD5BDD21
:104E40000F900F900F900F900F900F90811163C0F3
:104E500032E03E15E8F4F60183818F9382818F93CF
:104E600081818F9380818F93FF92EF925F924F9217
:104E70001F930F930E94693460E070E0C801E1DC89
:104E80003ADD0FB6F894DEBF0FBECDBF811143C02F
:104E90002F923F929F928F921F930F930E9469349B
:104EA00060E070E0C801CDDC26DD0F900F900F9020
:104EB0000F900F900F9081112EC02F923F927F92F2
:104EC0006F921F930F930E94693460E070E0C801F5
:104ED000B8DC11DD0F900F900F900F900F900F9096
:104EE000811119C03FEFE31AF30A84E0C80ED11C08
:104EF00098E0E916F10409F094CF60E070E08BE4EB
:104F000096E09FDCF8DC811106C060E070E08CE583
:104F100096E097DCF0DCA0960FB6F894DEBF0FBEEB
:104F2000CDBFDF91CF911F910F91FF90EF90DF9058
:104F3000CF90BF90AF909F908F907F906F905F9039
:104F40004F903F902F900895EF92FF920F931F93F1
:104F5000CF93DF93EC018B017A0181E0F4DE8111C4
:104F60000DC0CE01D4DD811109C0C801E1DD811180
:104F700005C0C701BBDD811101C0EBDDDF91CF9121
:104F80001F910F91FF90EF90089590E0FC01EE0FBC
:104F9000FF1F8E0F9F1FFC01EB5DF84F81819281F7
:104FA0000895DC01009729F1FB012081FC010190AB
:104FB0000020E9F73197E81BF90B822F90E0E81702
:104FC000F907C8F080E008C0880F382F330F330F7F
:104FD000830F8053890F2F5FFD01E20FF11D908138
:104FE00030ED390F3A3010F49111EECFFB012083F0
:104FF000089580E0089580E008950F931F93CF9364
:10500000DF93DC01EA012097E1F1FA010190002031
:10501000E9F73197E41BF50B329710F532C08D019B
:10502000040F151F30E0AE01420F531FFA019081AB
:10503000913428F09753592F5295507F03C0592F20
:105040005295507F2C0F3D1FF9019181913410F042
:10505000975301C09053950FF80190838F5F01C063
:1050600080E0282F220F482F50E0FE010190002001
:10507000E9F73197EC1BFD0B4E175F0710F4861311
:10508000CECFDF91CF911F910F9108958091901312
:10509000860F8093901390919313913079F028F0BC
:1050A0009230A9F0933019F108956F3F09F048C08C
:1050B0001092901381E0809393130895663809F05D
:1050C0003FC010928F1382E0809393130895E09174
:1050D0008F1381E08E0F80938F13F0E0E357FC4E27
:1050E0006083823069F583E08093931308959091F3
:1050F0008F1321E0290F20938F13963009F581112A
:105100000EC0EDE8F3E1808190E0982F882721819F
:10511000820F911D909395138093941304C0109265
:1051200095131092941310929313E0919113F091B0
:105130009213309729F080919413909195131995BB
:1051400008958F929F92AF92CF92EF920F930F2E6E
:10515000F6E48F2EF8E29F2EF02D6894AA24A4F88E
:105160006894CC24C4F8E12C00E023E040E855E248
:1051700060E070E07FD090939713809396130F9127
:10518000EF90CF90AF909F908F900895CF93DF9343
:10519000CDB7DEB729970FB6F894DEBF0FBECDBFEF
:1051A00089E0E2E4F2E09E012F5F3F4FD9010190D8
:1051B0000D928A95E1F710929513109294138091B5
:1051C000961390919713009731F0422F532F69E077
:1051D0001ED180E001C082E029960FB6F894DEBFB0
:1051E0000FBECDBFDF91CF910895209194133091E0
:1051F00095132115310529F4FC011182108281E0FB
:105200000895FC013183208380E0089565360CF019
:1052100064E66C390CF46CE996EF6902B001112474
:105220006854744F811105C070932901609328015F
:10523000089570932B0160932A010895EAE0F1E04C
:105240008081886180838FE39CE99093270180931C
:10525000260160E080E0DADF60E081E0D7DFE0E2B5
:10526000F1E08081826A8083E1E2F1E080818A61FD
:10527000808308952F923F924F925F926F927F9218
:105280008F929F92AF92CF92EF92FF920F931F93C4
:10529000CF93DF93CDB7DEB7F82E2A013B0188E02C
:1052A00090E00E94A2328C018F2D90E0FC01EE0F65
:1052B000FF1FE856FC4E118300830115110509F408
:1052C00069C0880F991FFC01E55FFD4F80819181C6
:1052D000D8018D939C938C2D90E0880F991F880F97
:1052E000991F0E94A2321C0186E090E00E94A23227
:1052F0007C014C2DB101F1D6F801F582E4828A2DB2
:1053000090E0880F991F880F991F0E94A2321C01FC
:1053100086E090E00E94A2327C014A2DB101DDD6E8
:10532000D8011396FC92EE92129717969C928E9249
:105330001697FFB6F894ED91FC91119736978081FE
:10534000826080838D909C90C301B201E0D720E001
:1053500030E040E051E40E9415329B01AC0160E076
:1053600074E284E79BE43AD720E030E040E85FE372
:10537000D0D6A1D7F40132976083D801ED91FC918A
:105380001197359788E98083ED91FC91349786E0F9
:105390008083FFBEC801DF91CF911F910F91FF90D5
:1053A000EF90CF90AF909F908F907F906F905F9095
:1053B0004F903F902F900895CF93DF93DC01892B7E
:1053C00001F11296ED91FC911397938182812581D1
:1053D000981B922384819817B1F083812695282306
:1053E000C081D181C20FD11D68838F5F95818923D0
:1053F0008383ED91FC91359780818062808380E08A
:1054000003C081E001C082E0DF91CF910895EF9267
:10541000FF920F931F93CF93DF937C01009709F4C2
:1054200041C0DC011296ED91FC911397938182812A
:10543000981B858198238481891B8617A8F1662390
:1054400041F1842F952FDC016150462F50E04F5FD2
:105450005F4F480F591FE701EA81FB8193818281E9
:105460002581981B92238481981779F08C919381E0
:1054700026952923608171818B01020F111DE8019E
:1054800088839F5F8581982393831196A417B5071E
:1054900011F7D701ED91FC9135978081806280836F
:1054A00080E003C081E001C082E0DF91CF911F91D5
:1054B0000F91FF90EF9008950097D1F0DC011496C2
:1054C000ED91FC91159793818281981799F09281C3
:1054D000858186958923A081B181A80FB11D8C910A
:1054E000DB018C939F5F85819823928380E00895F0
:1054F00081E0089583E008951F920F920FB60F92F6
:1055000011240BB60F922F933F934F935F936F939A
:105510007F938F939F93AF93BF93CF93DF93EF933B
:10552000FF93A0919813B0919913109711F1609186
:10553000C6001496ED91FC91159793818281258187
:10554000981B92238481981761F0838126952823E4
:10555000C081D181C20FD11D68838F5F958189235E
:1055600083831696ED91FC911797309711F0CD013A
:105570001995FF91EF91DF91CF91BF91AF919F91DD
:105580008F917F916F915F914F913F912F910F90EC
:105590000BBE0F900FBE0F901F9018951F920F9289
:1055A0000FB60F9211240BB60F922F938F939F93E8
:1055B000AF93BF93EF93FF93E0919813F0919913FA
:1055C0003097B9F00280F381E02D938182819817A2
:1055D000B1F092818581282F26952923A081B18160
:1055E000A20FB11D2C919F5F892382832093C60057
:1055F0000BC0E1ECF0E080818F7D808305C0E1ECA1
:10560000F0E080818F7D8083FF91EF91BF91AF911A
:105610009F918F912F910F900BBE0F900FBE0F9007
:105620001F9018951F920F920FB60F9211240BB670
:105630000F922F933F934F935F936F937F938F932B
:105640009F93AF93BF93CF93DF93EF93FF93A0917B
:105650009A13B0919B13109711F16091CE0014969C
:10566000ED91FC911597938182812581981B92235E
:105670008481981761F0838126952823C081D18188
:10568000C20FD11D68838F5F95818923838316960E
:10569000ED91FC911797309711F0CD011995FF917D
:1056A000EF91DF91CF91BF91AF919F918F917F91BA
:1056B0006F915F914F913F912F910F900BBE0F9083
:1056C0000FBE0F901F9018951F920F920FB60F925A
:1056D00011240BB60F922F938F939F93AF93BF9389
:1056E000EF93FF93E0919A13F0919B133097B9F0E9
:1056F0000280F381E02D938182819817B1F092812D
:105700008581282F26952923A081B181A20FB11D63
:105710002C919F5F892382832093CE000BC0E9ECFC
:10572000F0E080818F7D808305C0E9ECF0E080812E
:105730008F7D8083FF91EF91BF91AF919F918F916A
:105740002F910F900BBE0F900FBE0F901F901895CA
:105750001F920F920FB60F9211240BB60F922F9338
:105760003F934F935F936F937F938F939F93AF93E9
:10577000BF93CF93DF93EF93FF93A0919C13B091CE
:105780009D13109711F16091D6001496ED91FC9144
:105790001597938182812581981B92238481981784
:1057A00061F0838126952823C081D181C20FD11D4C
:1057B00068838F5F9581892383831696ED91FC9191
:1057C0001797309711F0CD011995FF91EF91DF9167
:1057D000CF91BF91AF919F918F917F916F915F9189
:1057E0004F913F912F910F900BBE0F900FBE0F90D6
:1057F0001F9018951F920F920FB60F9211240BB69F
:105800000F922F938F939F93AF93BF93EF93FF9339
:10581000E0919C13F0919D133097B9F00280F381D1
:10582000E02D938182819817B1F092818581282F94
:1058300026952923A081B181A20FB11D2C919F5FD4
:10584000892382832093D6000BC0E1EDF0E08081B4
:105850008F7D808305C0E1EDF0E080818F7D8083C6
:10586000FF91EF91BF91AF919F918F912F910F90E9
:105870000BBE0F900FBE0F901F9018951F920F92A6
:105880000FB60F9211240BB60F922F933F934F93A5
:105890005F936F937F938F939F93AF93BF93CF93B8
:1058A000DF93EF93FF93A0919E13B0919F131097F6
:1058B00011F1609136011496ED91FC911597938149
:1058C00082812581981B92238481981761F08381BE
:1058D00026952823C081D181C20FD11D68838F5F97
:1058E0009581892383831696ED91FC9117973097C4
:1058F00011F0CD011995FF91EF91DF91CF91BF91FB
:10590000AF919F918F917F916F915F914F913F9157
:105910002F910F900BBE0F900FBE0F901F901895F8
:105920001F920F920FB60F9211240BB60F922F9366
:105930008F939F93AF93BF93EF93FF93E0919E1349
:10594000F0919F133097B9F00280F381E02D93819D
:1059500082819817B1F092818581282F269529237D
:10596000A081B181A20FB11D2C919F5F89238283F9
:10597000209336010BC0E1E3F1E080818F7D8083CD
:1059800005C0E1E3F1E080818F7D8083FF91EF919D
:10599000BF91AF919F918F912F910F900BBE0F9060
:1059A0000FBE0F901F901895CF93DF931F92CDB726
:1059B000DEB7BE016F5F7F4F8091A0139091A1135E
:1059C0007BDD8111F6CF898190E00F90DF91CF913F
:1059D0000895682F8091A0139091A113EDDC80E0D1
:1059E00090E008958F929F92AF92CF92EF920F9393
:1059F000812C912C6894AA24A7F86894CC24C7F829
:105A0000E12C00E023E040E051EE60E070E032DCA9
:105A10009093A1138093A013EDEEF3E183E192E064
:105A200091838083938382830F91EF90CF90AF9087
:105A30009F908F90089590E0FC01EE0FFF1FE80FFC
:105A4000F91FEE0FFF1FEE55FC4E238121111FC0E1
:105A50009C01220F331FF901E80FF91FEE0FFF1F02
:105A6000EE55FC4EA081B1814C91F901E80FF91F70
:105A7000EE0FFF1FEE55FC4E81E090E0028002C069
:105A8000880F991F0A94E2F7842B8C930895FC01E8
:105A9000EE0FFF1FDF01A80FB91FAA0FBB1FAE55E6
:105AA000BC4E0D90BC91A02D2C91E80FF91FEE0F6C
:105AB000FF1FEE55FC4E81E090E0028002C0880F8F
:105AC000991F0A94E2F7809582238C93089590E0C1
:105AD000FC01EE0FFF1FE80FF91FEE0FFF1FEE5541
